:100000000020001055180000511800005118000081
:1000100000000000000000000000000000000000E0
:100020000000000000000000000000005118000067
:10003000000000000000000051180000D100000086
:10004000511800005118000051180000511800000C
:1000500051180000511800005118000051180000FC
:1000600051180000511800005118000051180000EC
:1000700051180000010D0000511800005118000037
:1000800051180000511800005118000051180000CC
:1000900051180000511800005118000051180000BC
:1000A00051180000511800005118000051180000AC
:1000B00051180000511800000D06000051180000F2
:1000C0007047C0467047C0467047C0467047C0463C
:1000D000164B1A790132D2B21A715A790132D2B260
:1000E0005A719A790132D2B29A71DA790132D2B266
:1000F000DA711A79D1B2012A02D1002219701A716B
:100100005A79022A03D1013A5A7000225A719A7917
:10011000052A03D1043A9A7000229A71DA790A2AE0
:1001200003D1093ADA700022DA7170471002001028
:10013000C021124A124B13485360036A09061B027E
:100140001B0A0B43036200239360073313600022F2
:100150000D4B1978002900D01A705978002900D069
:100160005A709978002900D09A70D9780029F0D077
:10017000DA7019780029F0D0EEE7C04610E000E010
:10018000FF52070000ED00E01002001000B583B040
:1001900001F078FB01F0A8FB00230022012101936C
:1001A0000093022001F088FC032001F0D7F903B08E
:1001B00000BDC04610B50400002001F0E7F92000A2
:1001C00001F008FA002001F0F9F9022001F026FA06
:1001D000012001F073FA10BD10B5002482B001F0C7
:1001E00051FB01F089FB01F057FB012001F0BCFB42
:1001F00001F0C0FB002300220221012001940094A1
:1002000001F0E2FD0023002202210120019400946C
:1002100001F064FC002300220221002001940094DC
:1002200001F0DEFB0121022000F052FE022001F06D
:10023000A9FA012001F0BAFA012001F0E1FA02B0B6
:1002400010BDC04610B50021022000F0D7FF10BD40
:1002500010B50121022000F0D1FF10BD10B501F052
:10026000EBFA01F0E1FA0028FBD101F0EBFA10BD46
:1002700010B5002482B001F005FB01F047FB01F04E
:1002800081FB00230022022101200194009401F04F
:10029000CBFB00230022022101200194009401F0F5
:1002A000D5FB022001F058FA02B010BD70B506006F
:1002B00015000C0001F014FA01F046FA01F018FAEA
:1002C0000021A02001F01AFA01F03EFA300001F0FE
:1002D0001BFA01F039FA002D08DD65192078013488
:1002E00001F012FA01F030FAAC42F7D101F016FA3F
:1002F00070BDC046F8B5040017000E0001F0F0F91B
:1003000001F022FA01F0F4F90021A02001F0F6F941
:1003100001F01AFA200001F0F7F901F015FA01F0E6
:10032000DFF901F011FA01F0E3F90121A02001F059
:10033000E5F901F009FA012F0FDD3400751EED1902
:10034000002001F0F1F901F0FFF901F0E1F920706E
:100350000134AC42F4D1013FF619012001F0E4F977
:1003600001F0F2F901F0D4F9307001F0D7F9F8BDDD
:1003700010B5002482B001F085FA01F0D1FA012015
:1003800001F0ECFA002300220221012001940094E4
:1003900001F028FC00230022022101200194009496
:1003A00001F034FC032001F0F9FD042001F0FCFD14
:1003B00002B010BD10B5040001F036FE0028FBD0DD
:1003C000200001F039FE10BD70B505780400002D45
:1003D0000AD001F029FE0028FBD02800013401F0EA
:1003E0002BFE2578002DF4D170BDC04610B501F06C
:1003F00029FE03000020012B00D010BD01F02AFED1
:10040000FBE7C04600B583B001F03CFA01F062FAA8
:10041000002300220121019300930320013301F006
:1004200093FB032001F088F803B000BD10B5040071
:10043000002001F0A5F8200001F0C6F8002001F02E
:10044000B7F8022001F0D8F8012001F025F910BD1D
:1004500070B504000D00002001F092F8200001F0BA
:10046000BFF8601B01F0B0F8002001F0A1F80120F6
:1004700001F0C2F8022001F0E3F8022001F00CF9CB
:1004800070BDC04610B5002482B001F0FBF901F048
:1004900003FA00230022022100200194009401F0BD
:1004A00081FC01230022022101200194009401F02B
:1004B0005DFB01230022022100200194009401F041
:1004C000CBFB01210A2000F037FD0121022000F0C2
:1004D00019FD01210A2000F015FD02B010BDC04633
:1004E00010B50B280FD82B4B80001B589F460121BD
:1004F0000A2000F0C9FE0121022000F0A3FE012124
:100500000A2000F09FFE10BD01210A2000F0BCFE71
:100510000121022000F096FE02210A2000F092FE46
:10052000F1E700210A2000F0AFFE0121E4E70121FC
:100530000A2000F0A9FE0021DEE701210A2000F0D8
:10054000A3FE0121022000F07DFE00210A2000F020
:1005500079FED8E700210A2000F096FE0021CBE7C3
:1005600000210A2000F090FE0121EBE701210A2082
:1005700000F08AFE0021E5E70021F8E702210A20C9
:1005800000F082FE0121B7E701210A2000F07CFE85
:100590000221B1E7BC24000010B5002482B001F0B4
:1005A00071F901F079F90023012202210020019460
:1005B000009401F003FB002301220221002001949A
:1005C000009401F037FB0023012202210020019456
:1005D000009401F05FFA0021052000F093FC002157
:1005E000082000F08FFC0021072000F071FC0121A1
:1005F000052000F03DFD8022034BD20505201A6046
:1006000000F040FF02B010BD00E100E0082010B58E
:1006100000F08CFEC0B201280CD00222094B1A70E7
:100620005A78013AD2B25A70052000F061FFC046F4
:10063000C04610BD034A107053780133DBB25370CB
:10064000F2E7C046180200100022014B5A707047B2
:1006500018020010014B58707047C0461802001075
:10066000024B5A7802701878C0B270471802001016
:1006700010B5072000F04CFE431E9841013010BD1C
:1006800010B50400072000F043FE002805D0074BFA
:100690001A78012A05D0022201E00122034B1A70C8
:1006A00010BD2278013222700222F8E7000000100B
:1006B00010B5002482B001F0E5F801F0F7F801F080
:1006C00069F900230122002102200194009401F025
:1006D00017FA00230122002102200194009401F066
:1006E00021FA012000F062F902B010BD10B500201F
:1006F00000F020F900F032F9002000F039F900F0A4
:1007000041F9002000F048F9FA21034B89005843D1
:1007100001F030FD10BDC0469A0C000010B501205C
:1007200000F008F900F01AF9012000F021F900F0BA
:1007300029F9012000F030F9032101F01BFD10BD63
:1007400010B5002482B001F09DF801F0A5F8002357
:100750000122022100200194009401F053F90123A9
:100760000122022100200194009401F013FA0023D9
:100770000122022100200194009401F0DDFA0023FF
:100780000122022100200194009401F0E7FA0023E5
:100790000122022100200194009401F0F1FA0021CD
:1007A000032000F095FB0021042000F0ABFB0021AA
:1007B000062000F0C1FB0021072000F0BDFB002156
:1007C000082000F0B9FB02B010BDC04610B50320F0
:1007D00000F09EFDC0B2431E9841013010BDC046DE
:1007E00010B5062000F0B0FDC0B2431E98410130A4
:1007F00010BDC04610B5082000F0A6FDC0B2431ED3
:100800009841013010BDC04610B5072000F09CFD96
:10081000C0B2431E9841013010BDC04610B504203F
:1008200000F084FDC0B2431E9841013010BDC046A7
:1008300010B50400032000F06BFDC0B2002803D106
:100840000122074B1A7010BD054B1A78012A01D0FE
:100850000222F7E72278013222700222F2E7C04634
:100860000100001010B50400062000F06DFDC0B2BC
:10087000002803D10122074B5A7010BD054B5A784E
:10088000012A01D00222F7E72278013222700222E7
:10089000F2E7C0460100001010B50400082000F087
:1008A00053FDC0B2002803D10122074B9A7010BD3E
:1008B000054B9A78012A01D00222F7E7227801320B
:1008C00022700222F2E7C0460100001010B50400B9
:1008D000072000F039FDC0B2002803D10122074BE8
:1008E000DA7010BD054BDA78012A01D00222F7E751
:1008F0002278013222700222F2E7C0460100001085
:1009000010B50400042000F011FDC0B2002803D18E
:100910000122074B1A7110BD054B1A79012A01D02B
:100920000222F7E72278013222700222F2E7C04663
:1009300001000010FF2204490B689343FE3A8240F5
:1009400013430B607047C04600C00140024B58681B
:100950004001400F7047C04600C001408023034A59
:100960005B0411680B4313607047C04600C0014030
:100970000430034A80008358002BFCDA7047C046DD
:1009800000C00140024A034913680B4013607047DE
:1009900000C00140FFFFFFFE034B04308000C05841
:1009A0000004800D7047C04600C00140013800229D
:1009B000022802D8044B1A5C1202044904480B684E
:1009C000034013430B607047EC24000000C001405B
:1009D000FF00FFFF024B034ADA6000229A61704772
:1009E000000005400123000010B500F067FA10BDBB
:1009F00010B500F047FF00F09DFF034B034ADA609B
:100A000000229A6110BDC04600000540012300008D
:100A1000014B18687047C0461C020010014B586813
:100A20007047C0461C0200100121024A13688B4324
:100A300013607047000005400122014B1A607047A7
:100A40001C020010B222284B52009958043A9B58BD
:100A5000090470B5194345D51F2301251C00013B2E
:100A60003ED32A009A401142F8D1F3220F211E4BA7
:100A70005A62027B1140D42252010A439A63417B9D
:100A8000026800291CD1194D92002A408025ED01F1
:100A900015439962DD621963A02109020A435A6372
:100AA00080218388104A0902D363C38813640389B1
:100AB0005364438993641462136A0B42FCD170BD82
:100AC00080251104120CD604F60C2D02090C3543B6
:100AD0009962DD621963E02109020A435A63DFE784
:100AE0000024C2E72024C0E700000540FC1F0000EE
:100AF000B222284B52009958043A9B58090430B549
:100B0000194345D51F2301251C00013B3ED32A0074
:100B10009A401142F8D1B7230F211E4A5362037B3A
:100B2000194098231B010B439363417B0368002901
:100B300023D1116318499B000B40A02109020B43EC
:100B400053638288134BDA63C2881A6402895A6439
:100B500042899A64827B012A07D103215A6A8A4317
:100B60005A625A6B0D490A405A638021094A0902A8
:100B70001462136A0B42FCD130BD1904090C1163D5
:100B8000E0211B0C09020B435363DAE70024C2E7A0
:100B90002024C0E700000540FC1F0000FFDFFFFF2E
:100BA00070B5802580242F4A2D0213592B42FCD189
:100BB00084237F25D550105180228026294C120293
:100BC000A3591D0015401342FAD19822A3581B05C2
:100BD0001FD50121244B19608423F231E150A55027
:100BE00080220433E5500433E5500433E5500433E8
:100BF000E5500833E5500433E5500433E550043341
:100C0000E550A05117487339120243581342FCD1E2
:100C100070BD9422A3585B041BD4A3580022DB04AC
:100C20005B0D4A7398220B600E4B9858893A02402C
:100C30000A739C229A588A80A0229A58CA80A422B9
:100C40009A580A81A8229B58A73A4B81064B5A60B2
:100C5000DEE7A3580548043AA2581B040340134397
:100C60000122DEE7000005401C0200100000FF1F0B
:100C7000B222204B520070B59C58043A9B58240471
:100C80001C43DB0734D5002301261D000133202B34
:100C90002CD032009A401442F7D10235F022154B85
:100CA0005A62154A9A63002911D1144A80001040F3
:100CB0008022120202439962D86219635A6380212A
:100CC0000C4A09021562136A0B42FCD170BD8021E7
:100CD0000204C000C00C0902120C01439A62D962DE
:100CE0001A63C022120202435A63E8E70025D5E7DF
:100CF0000125D3E7000005408F140000FC1F000011
:100D000000B5144A83B013690093009B002B09D0EF
:100D1000802109028B4207D000984004400C431EFA
:100D20001F2B13D903B000BD536801930823019909
:100D30000B4202D05168994351601023019A13422B
:100D4000F0D004494A689A434A60EBE70249FFF74A
:100D500027FFE7E700000540240200100821234B8D
:100D600070B55A6880240A435A60802278315858F6
:100D7000920202435A501E4B1E49186801F070F946
:100D8000C02240211C4B520001389850803AFF3A53
:100D90001A601A68F3260A431A601A6824028A4302
:100DA00080211A60154A8901116000210022013159
:100DB0005E629A639A62DA621A635A63DA631A6449
:100DC0005A649A641962186A050025402042FAD1D3
:100DD0002029ECD15D601A680E310A431A601A6846
:100DE0002D398A431A60064B196070BD008004409B
:100DF0000800001000127A000000054000E100E049
:100E00001C020010F8B5040018000F4B9C61002A6A
:100E100008D01F00002418370E5DE51901342E712B
:100E20009442F9DB24215A5425229854002202319D
:100E30005A541968002900D1F8BD1A6018331800F7
:100E4000FFF756FEF8E7C0461C020010F8B50E4F3B
:100E5000B862002A08D03E00002028360D5C8419B4
:100E6000013025719042F9DB3800283043730123AB
:100E700083733B680273002B00D1F8BD00233B60F5
:100E8000FFF7E0FDF9E7C0461C0200100A4910B563
:100E90004B68002B0ED000234B608B6803608B8A5D
:100EA0000A7D83818B7D8373002A03D00C3104304B
:100EB00001F04CFA10BDC0461C0200108021034B0B
:100EC0001A680A431A6010225A61704700000540F0
:100ED00010B500290BD0012900D010BDA02280231D
:100EE0008140D2051B02D4582143D150F5E701229D
:100EF000A02480218240E405090263589343635093
:100F0000EBE7C04610B500290AD0012900D010BD7A
:100F100080238140074A1B02D4582143D150F6E771
:100F2000012280218240034C09026358934363509D
:100F3000EDE7C0460000015010B500290AD0012994
:100F400000D010BD80238140074A1B02D4582143A2
:100F5000D150F6E7012280218240034C09026358F8
:100F600093436350EDE7C0460000025010B50029DE
:100F70000AD0012900D010BD80238140074A1B02FE
:100F8000D4582143D150F6E7012280218240034CFE
:100F90000902635893436350EDE7C04600000350D5
:100FA0000123A022834030B5094DD20554591C437A
:100FB0005451012907D0022900D030BD05495058AD
:100FC00003435350F9E70348115899431150F4E78C
:100FD000048000000C8000000123A022834030B573
:100FE000114DD2055459D8439C435451022911D074
:100FF00003290AD0012907D10C4C115901400C4892
:10100000115111580B43135030BD08495058034338
:101010005350F9E705495358034053500449535876
:1010200003405350F0E7C0460480000008800000F1
:101030000C8000000123834030B50A4A0A4D545900
:101040001C435451012907D0022900D030BD074963
:10105000505803435350F9E704481158994311502D
:10106000F4E7C04600000150048000000C8000003E
:101070000123834030B5114A114DD84354599C4344
:101080005451022911D003290AD0012907D10D4C4E
:10109000115901400C48115111580B43135030BDE8
:1010A0000849505803435350F9E706495358034041
:1010B00053500549535803405350F0E70000015086
:1010C00004800000088000000C80000001238340A1
:1010D00030B50A4A0A4D54591C435451012907D0CE
:1010E000022900D030BD0749505803435350F9E757
:1010F0000448115899431150F4E7C04600000250CB
:10110000048000000C8000000123834030B5114AA8
:10111000114DD84354599C435451022911D00329ED
:101120000AD0012907D10D4C115901400C48115129
:1011300011580B43135030BD0849505803435350C6
:10114000F9E70649535803405350054953580340A3
:101150005350F0E7000002500480000008800000B7
:101160000C8000000123834030B50A4A0A4D5459CF
:101170001C435451012907D0022900D030BD074932
:10118000505803435350F9E70448115899431150FC
:10119000F4E7C04600000350048000000C8000000B
:1011A0000123834030B5114A114DD84354599C4313
:1011B0005451022911D003290AD0012907D10D4C1D
:1011C000115901400C48115111580B43135030BDB7
:1011D0000849505803435350F9E706495358034010
:1011E00053500549535803405350F0E70000035053
:1011F00004800000088000000C80000010B5012968
:1012000015D002290AD0002907D10122A02482404A
:101210000B49E40563589343635010BD0123A0219B
:101220008340074AC9058C5863408B50F5E7A022DC
:101230008140034BD205D4582143D150EDE7C0463D
:10124000FC3F000010B5012913D0022909D0002964
:1012500006D1012282400A4C0A49635893436350E5
:1012600010BD012383400649064A8C5863408B50C9
:10127000F6E78140024A034BD4582143D150EFE7AF
:1012800000000150FC3F000010B5012913D00229D5
:1012900009D0002906D1012282400A4C0A4963582C
:1012A0009343635010BD012383400649064A8C587E
:1012B00063408B50F6E78140024A034BD4582143E8
:1012C000D150EFE700000250FC3F000010B50129AB
:1012D00013D0022909D0002906D1012282400A4CEC
:1012E0000A4963589343635010BD01238340064964
:1012F000064A8C5863408B50F6E78140024A034B04
:10130000D4582143D150EFE700000350FC3F0000C8
:10131000A022054BD205D358012282401340180069
:10132000431E98417047C046FC3F0000044A054BED
:10133000D3580122824013401800431E9841704741
:1013400000000150FC3F0000044A054BD358012225
:10135000824013401800431E98417047000002501D
:10136000FC3F0000044A054BD35801228240134041
:101370001800431E9841704700000350FC3F0000D6
:1013800030B50F24A022800084408140034DD20557
:101390005359A3430B43535130BDC046FC3F00009B
:1013A00030B50F24800084408140034D034A5359D7
:1013B000A3430B43535130BDFC3F000000000150DC
:1013C00030B50F24800084408140034D034A5359B7
:1013D000A3430B43535130BDFC3F000000000250BB
:1013E00030B50F24800084408140034D034A535997
:1013F000A3430B43535130BDFC3F0000000003509A
:10140000012210B5A02482400249E40563589343A9
:10141000635010BD108000000122824010B50349C6
:10142000034C63589343635010BDC04610800000C6
:10143000000001500122824010B50349034C63585B
:101440009343635010BDC04610800000000002505E
:101450000122824010B50349034C63589343635003
:1014600010BDC04610800000000003500123A021E1
:10147000834010B5024AC9058C5823438B5010BDD8
:10148000108000000123834010B50349034A8C58A3
:1014900023438B5010BDC046000001501080000057
:1014A0000123834010B50349034A8C5823438B50D2
:1014B00010BDC04600000250108000000123834090
:1014C00010B50349034A8C5823438B5010BDC046C6
:1014D00000000350108000000123A0218340034A34
:1014E000C9058B50C046C0467047C0461C800000EE
:1014F000012383400249034A8B50C046C0467047CF
:10150000000001501C800000012383400249034A6F
:101510008B50C046C0467047000002501C8000003F
:10152000012383400249034A8B50C046C04670479E
:10153000000003501C80000001380022022802D85D
:10154000044B8000C2580121034BDA605A680A43F9
:101550005A607047F02400000080014001380022EA
:10156000022802D8044B8000C2580121034BDA60E4
:101570005A680A435A607047F024000000C00040D7
:10158000014B18677047C04600800140014B186747
:101590007047C04600C00040014B98687047C04685
:1015A00000800140014B98687047C04600C0004071
:1015B000014B98607047C04600800140014B986025
:1015C0007047C04600C00040014B98617047C0465C
:1015D00000800140014B98617047C04600C0004048
:1015E000014B58627047C04600800140014B586271
:1015F0007047C04600C00040022808D0032800D031
:1016000070470421044A53690B435361F8E7024AC7
:10161000536903435361F3E700800140022808D077
:10162000032800D070470421044A53690B435361D7
:10163000F8E7024A536903435361F3E700C00040EF
:10164000022809D0032800D070478023064A1B01D6
:1016500051690B435361F7E78023034ADB0051696B
:101660000B435361F0E7C04600800140022809D0D7
:10167000032800D070478023064A1B0151690B43A1
:101680005361F7E78023034ADB0051690B43536141
:10169000F0E7C04600C00040012808D0022800D072
:1016A00070470121044A536F0B435367F8E7302218
:1016B000014BDA63F4E7C04600800140012808D0FE
:1016C000022800D070470121044A536F0B4353672F
:1016D000F8E73022014BDA63F4E7C04600C000406F
:1016E00080230822DB059A6118321A607047C046D1
:1016F00080232022DB059A617047C046802308437F
:10170000DB0598607047C0468023DB059860704712
:101710008023DB059868C0B27047C0468023102242
:10172000DB051A607047C046002807D0012800D0AA
:10173000704780230422DB059A61F9E780230422A5
:10174000DB051A60F4E7C04680220821D205136841
:101750001942FCD09161704701280CD0022804D0B6
:1017600080234022DB051A60704780233C22DB0582
:101770005A611A61F4E78023F022DB055A611A618D
:10178000EEE7C04601280CD00238434258410F22F0
:10179000404202400F2004490B68834313430B600F
:1017A00070470722F6E7C046000004400421134BAF
:1017B0005A688A435A6003281CD007DC012810D0DD
:1017C00002280DD140211A688A4304E0042807D179
:1017D00040211A680A431A601A6840310A431A60A5
:1017E000704740211A688A431A601A6840318A4358
:1017F0001A60F5E740211A680A43F5E70000044043
:1018000001280CD002384342584105224042024090
:101810000221044B1A615A680A435A607047302209
:10182000F6E7C04600000440024BD868C006C00F6F
:101830007047C04600000440014B98607047C046A6
:1018400000000440014B986880B2704700000440DB
:10185000FEE7C0460848094B10B5984207D2013B45
:101860001A1A920801320649920000F0D1FD00F0E8
:1018700057FBFEF75DFCFEE7000000100C000010B7
:10188000382500008022802302495B0288580343E8
:101890008B507047008004408022402002498B58C2
:1018A00003438B507047C046008004408022802351
:1018B00002499B01885803438B50704700800440C5
:1018C0008022802302499B00885803438B50704735
:1018D00000800440802280230249DB0088580343B3
:1018E0008B5070470080044080230249CA581A4335
:1018F000CA507047008004408022802302491B01A7
:10190000885803438B507047008004408022202079
:1019100002498B5803438B507047C04600800440F7
:101920008022802302495B01885803438B50704713
:10193000008004408022802302499B028858034390
:101940008B507047008004408022802302491B0294
:10195000885803438B507047008004409823014A05
:10196000D0507047008004409423014AD050704703
:10197000008004400121024A53680B4353607047C2
:10198000008004400221024A53680B4353607047B1
:10199000008004408E221020024992008B5883431D
:1019A0008B507047008004408E22402002499200F4
:1019B0008B5883438B5070470080044030B5039CA4
:1019C000049D2402AD022C43DB011C43044352015D
:1019D000024B1443C9000C431C6130BD004004405D
:1019E00030B5039C049D2402AD022C43DB011C4353
:1019F00004435201024B1443C9000C43DC6130BD67
:101A00000040044030B5039C049D2402AD022C43E9
:101A1000DB011C4304435201024B1443C9000C4335
:101A2000DC6230BD0040044030B5039C049D2402BC
:101A3000AD022C43DB011C4304435201024B14430F
:101A4000C9000C431C6330BD0040044030B5039C0A
:101A5000049D2402AD022C43DB011C4304435201CC
:101A6000024B1443C9000C435C6330BD004004408A
:101A700030B5039C049D2402AD022C43DB011C43C2
:101A800004435201024B1443C9000C43DC6430BDD3
:101A90000040044030B5039C049D2402AD022C4359
:101AA000DB011C4304435201024B1443C9000C43A5
:101AB0001C6530BD0040044030B5039C049D2402E9
:101AC000AD022C43DB011C4304435201024B14437F
:101AD000C9000C431C6630BD0040044030B5039C77
:101AE000049D2402AD022C43DB011C43044352013C
:101AF000024B1443C9000C435C6630BD00400440F7
:101B000030B5039C049D2402AD022C43DB011C4331
:101B100004435201024B1443C9000C435C6730BDBF
:101B20000040044030B5039C049D2402AD022C43C8
:101B3000DB011C4304435201024B1443C9000C4314
:101B40009C6730BD0040044030B5039C049D2402D6
:101B5000AD022C43DB011C4304435201024B1443EE
:101B6000C9000C43DC6730BD0040044030B5039C25
:101B7000049D2402AD022C43DB011C43802304435B
:101B800052011443C900024A0C43D45030BDC04630
:101B90000040044030B5039C049D2402AD022C4358
:101BA000DB011C439423044352011443C900024A3D
:101BB0000C43D45030BDC0460040044030B5039CB7
:101BC000049D2402AD022C43DB011C43A0230443EB
:101BD00052011443C900024A0C43D45030BDC046E0
:101BE0000040044030B5039C049D2402AD022C4308
:101BF000DB011C43A423044352011443C900024ADD
:101C00000C43D45030BDC0460040044030B5039C66
:101C1000049D2402AD022C43DB011C43A823044392
:101C200052011443C900024A0C43D45030BDC0468F
:101C30000040044030B5039C049D2402AD022C43B7
:101C4000DB011C4304435201024B1443C9000C4303
:101C50005C6130BD0040044030B5039C049D24020B
:101C6000AD022C43DB011C4304435201024B1443DD
:101C7000C9000C43DC6630BD0040044030B5039C15
:101C8000049D2402AD022C43DB011C439823044332
:101C900052011443C900024A0C43D45030BDC0461F
:101CA0000040044030B5039C049D2402AD022C4347
:101CB000DB011C4304435201024B1443C9000C4393
:101CC0009C6030BD0040044030B5039C049D24025C
:101CD000AD022C43DB011C4304435201024B14436D
:101CE000C9000C439C6230BD0040044030B5039CE9
:101CF000049D2402AD022C43DB011C43044352012A
:101D0000024B1443C9000C43DC6530BD0040044065
:101D100030B5039C049D2402AD022C43DB011C431F
:101D20008C23044352011443C900024A0C43D4508B
:101D300030BDC0460040044030B5039C049D2402E1
:101D4000AD022C43DB011C4304435201024B1443FC
:101D5000C9000C431C6030BD0040044030B5039CFA
:101D6000049D2402AD022C43DB011C4304435201B9
:101D7000024B1443C9000C431C6230BD00400440B8
:101D800030B5039C049D2402AD022C43DB011C43AF
:101D900004435201024B1443C9000C435C6230BD42
:101DA0000040044030B5039C049D2402AD022C4346
:101DB000DB011C4304435201024B1443C9000C4392
:101DC0009C6530BD0040044030B5039C049D240256
:101DD000AD022C43DB011C4304435201024B14436C
:101DE000C9000C431C6730BD0040044030B5039C63
:101DF000049D2402AD022C43DB011C4384230443D5
:101E000052011443C900024A0C43D45030BDC046AD
:101E10000040044030B5039C049D2402AD022C43D5
:101E2000DB011C438823044352011443C900024AC6
:101E30000C43D45030BDC0460040044030B5039C34
:101E4000049D2402AD022C43DB011C439C2304436C
:101E500052011443C900024A0C43D45030BDC0465D
:101E60000040044030B5039C049D2402AD022C4385
:101E7000DB011C43AC23044352011443C900024A52
:101E80000C43D45030BDC04600400440204B0020DD
:101E90005B6A10B5DB051B0F013B0E2B02D81D4AF8
:101EA0009B00985803241A4A516A136F2340022B4F
:101EB00025D0032B0ED0012B04D1136C1C40023C07
:101EC000012C23D91448124B144C996F00F0C8F818
:101ED000206010BD116C0B40012B03D0023B002091
:101EE000012BF0D9C02391685B001942EAD19268B6
:101EF000623BFF3B0848134001335843E3E73E236E
:101F000049001940023100F0ABF8DCE70020DAE7C5
:101F100000800440FC240000001BB70008000010F3
:101F20008E2120201C4B89005A5882B082435A507F
:101F300000221A620192019BC72B06D8C046019B62
:101F400001330193019BC72BF8D901230021124AC9
:101F500013645364516453640131536C1942FCD0CF
:101F600023238E218020936089005358834353504C
:101F70000121094AD3681942FCD0032313670023C7
:101F80005167536751670121034A536F1942FCD0CF
:101F9000916702B07047C04600800440014BD86092
:101FA0007047C0460080004003282BD012DC012877
:101FB00021D002281ED180211A4BDA680A43DA6048
:101FC0007D221A6000225A6041329A62DA688A439E
:101FD000DA600FE004280DD18021124BDA680A4341
:101FE000DA6019221A6000225A60CD329A62DA68E9
:101FF0008A43DA60704780210A4BDA680A43DA6064
:10200000FA22DEE78021074BDA680A43DA602522EC
:102010001A6000225A609A329A62DA688A43DA6059
:10202000E8E7C04600800040024B58698006C00FB8
:102030007047C04600800040014B18607047C046A2
:10204000008000400120024B5B6918407047C04689
:1020500000800040014B1868C0B27047008000400B
:10206000002243088B4274D303098B425FD3030AD7
:102070008B4244D3030B8B4228D3030C8B420DD3EA
:10208000FF22090212BA030C8B4202D31212090278
:1020900065D0030B8B4219D300E0090AC30B8B42B6
:1020A00001D3CB03C01A5241830B8B4201D38B0364
:1020B000C01A5241430B8B4201D34B03C01A524109
:1020C000030B8B4201D30B03C01A5241C30A8B424C
:1020D00001D3CB02C01A5241830A8B4201D38B0237
:1020E000C01A5241430A8B4201D34B02C01A5241DB
:1020F000030A8B4201D30B02C01A5241CDD2C3094D
:102100008B4201D3CB01C01A524183098B4201D3C8
:102110008B01C01A524143098B4201D34B01C01AB3
:10212000524103098B4201D30B01C01A5241C3082B
:102130008B4201D3CB00C01A524183088B4201D39A
:102140008B00C01A524143088B4201D34B00C01A86
:102150005241411A00D20146524110467047FFE7F2
:1021600001B5002000F0F0F802BDC0460029F7D00C
:1021700076E7704703460B437FD4002243088B4227
:1021800074D303098B425FD3030A8B4244D3030BFE
:102190008B4228D3030C8B420DD3FF22090212BAC3
:1021A000030C8B4202D31212090265D0030B8B423F
:1021B00019D300E0090AC30B8B4201D3CB03C01A29
:1021C0005241830B8B4201D38B03C01A5241430B04
:1021D0008B4201D34B03C01A5241030B8B4201D3F4
:1021E0000B03C01A5241C30A8B4201D3CB02C01A5F
:1021F0005241830A8B4201D38B02C01A5241430AD7
:102200008B4201D34B02C01A5241030A8B4201D3C5
:102210000B02C01A5241CDD2C3098B4201D3CB016C
:10222000C01A524183098B4201D38B01C01A52411B
:1022300043098B4201D34B01C01A524103098B421F
:1022400001D30B01C01A5241C3088B4201D3CB000A
:10225000C01A524183088B4201D38B00C01A5241ED
:1022600043088B4201D34B00C01A5241411A00D29D
:1022700001465241104670475DE0CA0F00D0494206
:10228000031000D34042534000229C4603098B4276
:102290002DD3030A8B4212D3FC22890112BA030AFE
:1022A0008B420CD3890192118B4208D38901921180
:1022B0008B4204D389013AD0921100E08909C30905
:1022C0008B4201D3CB01C01A524183098B4201D307
:1022D0008B01C01A524143098B4201D34B01C01AF2
:1022E000524103098B4201D30B01C01A5241C3086A
:1022F0008B4201D3CB00C01A524183088B4201D3D9
:102300008B00C01A5241D9D243088B4201D34B00F3
:10231000C01A5241411A00D20146634652415B1035
:10232000104601D34042002B00D549427047634616
:102330005B1000D3404201B5002000F005F802BD5B
:102340000029F8D016E770477047C046F0B5CE4672
:10235000474680B588420DD98B1898420AD2531E41
:10236000002A03D0CA5CC254013BFBD2C0BCB946B0
:10237000B046F0BD0F2A0BD80500561E002AF5D036
:102380000023CC5C1A00EC5401339642F9D1EDE7FE
:1023900003000B4388469B0734D110261700B14633
:1023A0000C000300103F3F093F01C519A9442668EE
:1023B0001E6066685E60A6689E60E6681034DE6037
:1023C0001E001033AE42F2D1CF1939000F230C2674
:1023D00010318C461340164217D04446043B9B08EC
:1023E0009B00FF181437061B0C688D1904312C60F4
:1023F000B942F9D16146043359184B441D000323F7
:102400001A40BAE70500561EBAE74D461A00B4E76F
:10241000F0B5CE46474680B50F2A0ED80500561EA9
:10242000002A06D00023CC5C1A00EC5401339642FB
:10243000F9D1C0BCB946B046F0BD03000B43884695
:102440009B0734D110261700B1460C000300103F43
:102450003F093F01C519A94466685E60A6689E6091
:10246000E668DE60266810341E601E001033AE423F
:10247000F2D1CF1939000F230C2610318C461340AE
:10248000164217D04446043B9B089B00FF181437A4
:10249000061B0C688D1904312C60B942F9D16146D4
:1024A000043359184B441D0003231A40B7E70500B5
:1024B000561EB7E74D461A00B1E7C04606050000B4
:1024C000EE040000220500002E0500003A05000081
:1024D00054050000600500006C0500007805000050
:1024E0007C05000088050000080500002F170B0080
:1024F000DF0100005F0000002F00000020A10700A6
:1025000000350C00E0C81000C05C1500006A18001F
:1025100040771B0080841E00C0912100009F240092
:1025200040AC2700E032290020402C00604D2F00F5
:0825300000D4300040E133004B
:0C2538000202020202020000006CDC0241
:102548000000000000000000000000000000000083
:102558000000000000000000000000000000000073
:102568000000000000000000000000000000000063
:102578000000000000000000000000000000000053
:102588000000000000000000000000000000000043
:102598000000000000000000000000000000000033
:1025A8000000000000000000000000000000000023
:1025B8000000000000000000000000000000000013
:1025C8000000000000000000000000000000000003
:1025D80000000000000000000000000000000000F3
:1025E80000000000000000000000000000000000E3
:1025F80000000000000000000000000000000000D3
:1026080000000000000000000000000000000000C2
:1026180000000000000000000000000000000000B2
:1026280000000000000000000000000000000000A2
:102638000000000000000000000000000000000092
:102648000000000000000000000000000000000082
:102658000000000000000000000000000000000072
:102668000000000000000000000000000000000062
:102678000000000000000000000000000000000052
:102688000000000000000000000000000000000042
:102698000000000000000000000000000000000032
:1026A8000000000000000000000000000000000022
:1026B8000000000000000000000000000000000012
:1026C8000000000000000000000000000000000002
:1026D80000000000000000000000000000000000F2
:1026E80000000000000000000000000000000000E2
:1026F80000000000000000000000000000000000D2
:1027080000000000000000000000000000000000C1
:1027180000000000000000000000000000000000B1
:1027280000000000000000000000000000000000A1
:102738000000000000000000000000000000000091
:04000003000018558C
:00000001FF
