:10000000002000107910000075100000751000002D
:1000100000000000000000000000000000000000E0
:10002000000000000000000000000000751000004B
:10003000000000000000000075100000D501000065
:10004000751000007510000075100000751000009C
:10005000751000007510000075100000751000008C
:10006000751000007510000075100000751000007C
:10007000751000006D05000075100000751000007F
:10008000751000007510000075100000751000005C
:10009000751000007510000075100000751000004C
:1000A000751000007510000075100000751000003C
:1000B000751000004D0F0000B11800007510000011
:1000C0007047C0467047C0467047C04610B5174AD3
:1000D00013780133DBB2092B01D8137010BD002354
:1000E0001370134A13780A33DBB219005A2B1AD84B
:1000F000104C1370216001F029FE01F05DFE01211A
:10010000012001F021FC0C4B226819680B4801F01A
:1001100027FC0121022001F017FC094B094819684E
:1001200001F01EFCDAE70A230A21E1E7640000106F
:1001300000000010B4000010B00000103C280000C7
:10014000B80000105028000010B500F083F801F04E
:1001500075FB01F03DFE01F0F7FCFA22044B920022
:100160001A6001F0F3FD00F005F830BFFDE7C0466E
:10017000B00000100122FA21124B10B51A80013292
:100180005A8003329A800532DA800F4B8900186852
:1001900001F032FE830018188023400001385B0410
:1001A00098420DD2C021094A090650600848036AE6
:1001B0001B021B0A0B430362002393600733136087
:1001C00010BDC046020000100C00001010E000E05E
:1001D00000ED00E010B51E4C2388013B9BB223804C
:1001E000002B12D06388013B9BB26380002B16D09A
:1001F000A388013B9BB2A380002B1AD0E388013B6C
:100200009BB2E380002B1ED010BD01332380FFF78B
:1002100057FF6388013B9BB26380002BE8D1023318
:100220006380FFF74FFFA388013B9BB2A380002BA5
:10023000E4D10533A380FFF747FFE388013B9BB27E
:10024000E380002BE0D10A33E380FFF73FFFDBE7D9
:100250000200001000B583B000F0AEFF00F0B6FF62
:1002600000230022019300930121002001F0C6F831
:100270000121082000F000FC03B000BD014B18680C
:100280007047C04668000010014B58687047C04670
:10029000680000100121024A13688B431360704705
:1002A000000005400122014B1A60704768000010F1
:1002B000B222284B52009958043A9B58090470B551
:1002C000194345D51F2301251C00013B3ED32A00BD
:1002D0009A401142F8D1F3220F211E4B5A62027B41
:1002E0001140D42252010A439A63417B02680029DB
:1002F0001CD1194D92002A408025ED0115439962C9
:10030000DD621963A02109020A435A6380218388B0
:10031000104A0902D363C388136403895364438971
:1003200093641462136A0B42FCD170BD80251104E2
:10033000120CD604F60C2D02090C35439962DD62CD
:100340001963E02109020A435A63DFE70024C2E788
:100350002024C0E700000540FC1F0000B222284B0B
:1003600052009958043A9B58090430B5194345D5B1
:100370001F2301251C00013B3ED32A009A40114255
:10038000F8D1B7230F211E4A5362037B19409823EB
:100390001B010B439363417B0368002923D1116345
:1003A00018499B000B40A02109020B43536382882C
:1003B000134BDA63C2881A6402895A6442899A64C8
:1003C000827B012A07D103215A6A8A435A625A6BF7
:1003D0000D490A405A638021094A09021462136ACE
:1003E0000B42FCD130BD1904090C1163E0211B0C38
:1003F00009020B435363DAE70024C2E72024C0E775
:1004000000000540FC1F0000FFDFFFFF70B58025E6
:1004100080242F4A2D0213592B42FCD184237F259F
:10042000D550105180228026294C1202A3591D005C
:1004300015401342FAD19822A3581B051FD501215C
:10044000244B19608423F231E150A55080220433FB
:10045000E5500433E5500433E5500433E5500833E8
:10046000E5500433E5500433E5500433E550A05122
:1004700017487339120243581342FCD170BD9422BD
:10048000A3585B041BD4A3580022DB045B0D4A7302
:1004900098220B600E4B9858893A02400A739C22AE
:1004A0009A588A80A0229A58CA80A4229A580A810F
:1004B000A8229B58A73A4B81064B5A60DEE7A35807
:1004C0000548043AA2581B04034013430122DEE707
:1004D00000000540680000100000FF1FB222204B02
:1004E000520070B59C58043A9B5824041C43DB0707
:1004F00034D5002301261D000133202B2CD03200DF
:100500009A401442F7D10235F022154B5A62154A2F
:100510009A63002911D1144A8000104080221202EF
:1005200002439962D86219635A6380210C4A090216
:100530001562136A0B42FCD170BD80210204C00019
:10054000C00C0902120C01439A62D9621A63C022DC
:10055000120202435A63E8E70025D5E70125D3E7F5
:10056000000005408F140000FC1F000000B5144A75
:1005700083B013690093009B002B09D080210902EE
:100580008B4207D000984004400C431E1F2B13D908
:1005900003B000BD53680193082301990B4202D0B8
:1005A0005168994351601023019A1342F0D00449D5
:1005B0004A689A434A60EBE70249FFF727FFE7E7FB
:1005C00000000540700000100821234B70B55A68E8
:1005D00080240A435A60802278315858920202439C
:1005E0005A501E4B1E49186801F006FCC0224021DB
:1005F0001C4B520001389850803AFF3A1A601A6832
:10060000F3260A431A601A6824028A4380211A607A
:10061000154A890111600021002201315E629A634E
:100620009A62DA621A635A63DA631A645A649A64E1
:100630001962186A050025402042FAD12029ECD120
:100640005D601A680E310A431A601A682D398A43B0
:100650001A60064B196070BD008004400C00001049
:1006600000127A000000054000E100E06800001080
:10067000F8B5040018000F4B9C61002A08D01F0039
:10068000002418370E5DE51901342E719442F9DB10
:1006900024215A5425229854002202315A541968B0
:1006A000002900D1F8BD1A6018331800FFF756FE74
:1006B000F8E7C04668000010F8B50E4FB862002A8F
:1006C00008D03E00002028360D5C841901302571C9
:1006D0009042F9DB380028304373012383733B6871
:1006E0000273002B00D1F8BD00233B60FFF7E0FD53
:1006F000F9E7C046680000100A4910B54B68002BA6
:100700000ED000234B608B6803608B8A0A7D838147
:100710008B7D8373002A03D00C31043001F030FC50
:1007200010BDC046680000108021034B1A680A43C0
:100730001A6010225A6170470000054010B5012967
:1007400015D002290AD0002907D10122A024824015
:100750000B49E40563589343635010BD0123A02166
:100760008340074AC9058C5863408B50F5E7A022A7
:100770008140034BD205D4582143D150EDE7C04608
:10078000FC3F000010B5012913D0022909D000292F
:1007900006D1012282400A4C0A49635893436350B0
:1007A00010BD012383400649064A8C5863408B5094
:1007B000F6E78140024A034BD4582143D150EFE77A
:1007C00000000150FC3F000010B5012913D00229A0
:1007D00009D0002906D1012282400A4C0A496358F7
:1007E0009343635010BD012383400649064A8C5849
:1007F00063408B50F6E78140024A034BD4582143B3
:10080000D150EFE700000250FC3F000010B5012975
:1008100013D0022909D0002906D1012282400A4CB6
:100820000A4963589343635010BD0123834006492E
:10083000064A8C5863408B50F6E78140024A034BCE
:10084000D4582143D150EFE700000350FC3F000093
:10085000A022054BD205D358012282401340180034
:10086000431E98417047C046FC3F0000044A054BB8
:10087000D3580122824013401800431E984170470C
:1008800000000150FC3F0000044A054BD3580122F0
:10089000824013401800431E9841704700000250E8
:1008A000FC3F0000044A054BD3580122824013400C
:1008B0001800431E9841704700000350FC3F0000A1
:1008C00030B50F24A022800084408140034DD20522
:1008D0005359A3430B43535130BDC046FC3F000066
:1008E00030B50F24800084408140034D034A5359A2
:1008F000A3430B43535130BDFC3F000000000150A7
:1009000030B50F24800084408140034D034A535981
:10091000A3430B43535130BDFC3F00000000025085
:1009200030B50F24800084408140034D034A535961
:10093000A3430B43535130BDFC3F00000000035064
:10094000012210B5A02482400249E4056358934374
:10095000635010BD108000000122824010B5034991
:10096000034C63589343635010BDC0461080000091
:10097000000001500122824010B50349034C635826
:100980009343635010BDC046108000000000025029
:100990000122824010B50349034C635893436350CE
:1009A00010BDC04610800000000003500123A021AC
:1009B000834010B5024AC9058C5823438B5010BDA3
:1009C000108000000123834010B50349034A8C586E
:1009D00023438B5010BDC046000001501080000022
:1009E0000123834010B50349034A8C5823438B509D
:1009F00010BDC0460000025010800000012383405B
:100A000010B50349034A8C5823438B5010BDC04690
:100A100000000350108000000123A0218340034AFE
:100A2000C9058B50C046C0467047C0461C800000B8
:100A3000012383400249034A8B50C046C046704799
:100A4000000001501C800000012383400249034A3A
:100A50008B50C046C0467047000002501C8000000A
:100A6000012383400249034A8B50C046C046704769
:100A7000000003501C80000010B500290BD0012994
:100A800000D010BDA02280238140D2051B02D45883
:100A90002143D150F5E70122A02480218240E405C2
:100AA0000902635893436350EBE7C04610B5002931
:100AB0000AD0012900D010BD80238140074A1B02C3
:100AC000D4582143D150F6E7012280218240034CC3
:100AD0000902635893436350EDE7C046000001509C
:100AE00010B500290AD0012900D010BD8023814013
:100AF000074A1B02D4582143D150F6E70122802136
:100B00008240034C0902635893436350EDE7C046AB
:100B10000000025010B500290AD0012900D010BDF4
:100B200080238140074A1B02D4582143D150F6E765
:100B3000012280218240034C090263589343635091
:100B4000EDE7C046000003500123A022834030B5EA
:100B5000094DD20554591C435451012907D002298B
:100B600000D030BD0549505803435350F9E70348BE
:100B7000115899431150F4E7048000000C800000E4
:100B80000123A022834030B5114DD2055459D843DA
:100B90009C435451022911D003290AD0012907D1BD
:100BA0000C4C115901400C48115111580B43135072
:100BB00030BD0849505803435350F9E7054953588D
:100BC000034053500449535803405350F0E7C04684
:100BD00004800000088000000C8000000123834096
:100BE00030B50A4A0A4D54591C435451012907D0C3
:100BF000022900D030BD0749505803435350F9E74C
:100C00000448115899431150F4E7C04600000150C0
:100C1000048000000C8000000123834030B5114A9D
:100C2000114DD84354599C435451022911D00329E2
:100C30000AD0012907D10D4C115901400C4811511E
:100C400011580B43135030BD0849505803435350BB
:100C5000F9E7064953580340535005495358034098
:100C60005350F0E7000001500480000008800000AD
:100C70000C8000000123834030B50A4A0A4D5459C4
:100C80001C435451012907D0022900D030BD074927
:100C9000505803435350F9E70448115899431150F1
:100CA000F4E7C04600000250048000000C80000001
:100CB0000123834030B5114A114DD84354599C4308
:100CC0005451022911D003290AD0012907D10D4C12
:100CD000115901400C48115111580B43135030BDAC
:100CE0000849505803435350F9E706495358034005
:100CF00053500549535803405350F0E70000025049
:100D000004800000088000000C8000000123834064
:100D100030B50A4A0A4D54591C435451012907D091
:100D2000022900D030BD0749505803435350F9E71A
:100D30000448115899431150F4E7C046000003508D
:100D4000048000000C8000000123834030B5114A6C
:100D5000114DD84354599C435451022911D00329B1
:100D60000AD0012907D10D4C115901400C481151ED
:100D700011580B43135030BD08495058034353508A
:100D8000F9E7064953580340535005495358034067
:100D90005350F0E70000035004800000088000007A
:100DA0000C800000014B18677047C046008001406E
:100DB000014B18677047C04600C00040014B98685F
:100DC0007047C04600800140014B98687047C0469C
:100DD00000C00040014B98607047C0460080014051
:100DE000014B98607047C04600C00040014B9861BD
:100DF0007047C04600800140014B98617047C04673
:100E000000C00040014B58627047C046008001405E
:100E1000014B58627047C04600C00040022808D00D
:100E2000032800D070470421044A53690B435361DF
:100E3000F8E7024A536903435361F3E70080014036
:100E4000022808D0032800D070470421044A5369BF
:100E50000B435361F8E7024A536903435361F3E7D5
:100E600000C00040022809D0032800D0704780232A
:100E7000064A1B0151690B435361F7E78023034A7C
:100E8000DB0051690B435361F0E7C046008001402D
:100E9000022809D0032800D070478023064A1B018E
:100EA00051690B435361F7E78023034ADB00516923
:100EB0000B435361F0E7C04600C00040012808D052
:100EC000022800D070470121044A536F0B43536737
:100ED000F8E73022014BDA63F4E7C04600800140B6
:100EE000012808D0022800D070470121044A536F1E
:100EF0000B435367F8E73022014BDA63F4E7C0464F
:100F000000C0004001380022022802D8044B8000B3
:100F1000C2580121034BDA605A680A435A6070478D
:100F2000A42800000080014001380022022802D8D5
:100F3000044B8000C2580121034BDA605A680A430F
:100F40005A607047A428000000C0004010B5082077
:100F5000FFF77AFD0122014B1A7010BDA0000010AE
:100F60002021034A53691942FCD010607047C046E3
:100F70000080004010B500280CD00478002C09D067
:100F80002021054A53691942FCD01460447801308D
:100F9000002CF7D110BDC04600800040034A00205D
:100FA0005369DB0701D51068C0B27047008000406C
:100FB0000FB430B5A3B026AB04CB02AC8021200027
:100FC000019300F0D1FF2578002D09D02021074A98
:100FD00053691942FCD0156065780134002DF7D1B2
:100FE00023B030BC08BC04B01847C04600800040A5
:100FF000014BD8607047C0460080004003282CD0C9
:101000000EDC01281ED002281BD18020184B0021A5
:10101000DA680243DA607D221A6059603C3A0BE0DC
:1010200004280ED18020124B0021DA680243DA60D6
:1010300019221A605960B4329A62DA688243DA601F
:101040001962704780200A4B0021DA680243DA6097
:10105000FA221A605960B93AEEE78020044B002169
:10106000DA680243DA6025221A6059607532E3E7D4
:1010700000800040FEE7C0460848094B10B5984282
:1010800007D2013B1A1A920801320649920000F079
:1010900091FF00F053F8FFF757F8FEE7000000104B
:1010A0006400001020290000204B00205B6A10B56E
:1010B000DB051B0F013B0E2B02D81D4A9B009858E5
:1010C00003241A4A516A136F2340022B25D0032BA5
:1010D0000ED0012B04D1136C1C40023C012C23D9EF
:1010E0001448124B144C996F00F086FE206010BD1E
:1010F000116C0B40012B03D0023B0020012BF0D9D7
:10110000C02391685B001942EAD19268623BFF3BC1
:101110000848134001335843E3E73E234900194090
:10112000023100F069FEDCE70020DAE700800440CD
:10113000B0280000001BB7000C0000108E212020FA
:101140001C4B89005A5882B082435A5000221A62BE
:101150000192019BC72B06D8C046019B0133019326
:10116000019BC72BF8D901230021124A1364536451
:10117000516453640131536C1942FCD023238E21F6
:101180008020936089005358834353500121094ABA
:10119000D3681942FCD003231367002351675367B8
:1011A00051670121034A536F1942FCD0916702B085
:1011B0007047C046008004408022802302495B02C1
:1011C000885803438B5070470080044080224020A1
:1011D00002498B5803438B507047C046008004403F
:1011E0008022802302499B01885803438B5070471B
:1011F000008004408022802302499B0088580343DA
:101200008B50704700800440802280230249DB001D
:10121000885803438B507047008004408023024964
:10122000CA581A43CA507047008004408022802365
:1012300002491B01885803438B50704700800440CB
:101240008022202002498B5803438B507047C046B0
:10125000008004408022802302495B0188580343B8
:101260008B507047008004408022802302499B02FB
:10127000885803438B5070470080044080228023AD
:1012800002491B02885803438B507047008004407A
:101290009823014AD0507047008004409423014AAB
:1012A000D0507047008004400121024A53680B432C
:1012B00053607047008004400221024A53680B4388
:1012C00053607047008004400821024A53680B4372
:1012D00053607047008004408E2210200249920023
:1012E0008B5883438B507047008004408E224020EF
:1012F000024992008B5883438B5070470080044012
:1013000030B5039C049D2402AD022C43DB011C4339
:1013100004435201024B1443C9000C431C6130BD0D
:101320000040044030B5039C049D2402AD022C43D0
:10133000DB011C4304435201024B1443C9000C431C
:10134000DC6130BD0040044030B5039C049D2402A4
:10135000AD022C43DB011C4304435201024B1443F6
:10136000C9000C43DC6230BD0040044030B5039C32
:10137000049D2402AD022C43DB011C4304435201B3
:10138000024B1443C9000C431C6330BD00400440B1
:1013900030B5039C049D2402AD022C43DB011C43A9
:1013A00004435201024B1443C9000C435C6330BD3B
:1013B0000040044030B5039C049D2402AD022C4340
:1013C000DB011C4304435201024B1443C9000C438C
:1013D000DC6430BD0040044030B5039C049D240211
:1013E000AD022C43DB011C4304435201024B144366
:1013F000C9000C431C6530BD0040044030B5039C5F
:10140000049D2402AD022C43DB011C430443520122
:10141000024B1443C9000C431C6630BD004004401D
:1014200030B5039C049D2402AD022C43DB011C4318
:1014300004435201024B1443C9000C435C6630BDA7
:101440000040044030B5039C049D2402AD022C43AF
:10145000DB011C4304435201024B1443C9000C43FB
:101460005C6730BD0040044030B5039C049D2402FD
:10147000AD022C43DB011C4304435201024B1443D5
:10148000C9000C439C6730BD0040044030B5039C4C
:10149000049D2402AD022C43DB011C430443520192
:1014A000024B1443C9000C43DC6730BD00400440CC
:1014B00030B5039C049D2402AD022C43DB011C4388
:1014C0008023044352011443C900024A0C43D45000
:1014D00030BDC0460040044030B5039C049D24024A
:1014E000AD022C43DB011C439423044352011443FB
:1014F000C900024A0C43D45030BDC04600400440ED
:1015000030B5039C049D2402AD022C43DB011C4337
:10151000A023044352011443C900024A0C43D4508F
:1015200030BDC0460040044030B5039C049D2402F9
:10153000AD022C43DB011C43A4230443520114439A
:10154000C900024A0C43D45030BDC046004004409C
:1015500030B5039C049D2402AD022C43DB011C43E7
:10156000A823044352011443C900024A0C43D45037
:1015700030BDC0460040044030B5039C049D2402A9
:10158000AD022C43DB011C4304435201024B1443C4
:10159000C9000C435C6130BD0040044030B5039C81
:1015A000049D2402AD022C43DB011C430443520181
:1015B000024B1443C9000C43DC6630BD00400440BC
:1015C00030B5039C049D2402AD022C43DB011C4377
:1015D0009823044352011443C900024A0C43D450D7
:1015E00030BDC0460040044030B5039C049D240239
:1015F000AD022C43DB011C4304435201024B144354
:10160000C9000C439C6030BD0040044030B5039CD1
:10161000049D2402AD022C43DB011C430443520110
:10162000024B1443C9000C439C6230BD004004408F
:1016300030B5039C049D2402AD022C43DB011C4306
:1016400004435201024B1443C9000C43DC6530BD16
:101650000040044030B5039C049D2402AD022C439D
:10166000DB011C438C23044352011443C900024A8A
:101670000C43D45030BDC0460040044030B5039CFC
:10168000049D2402AD022C43DB011C4304435201A0
:10169000024B1443C9000C431C6030BD00400440A1
:1016A00030B5039C049D2402AD022C43DB011C4396
:1016B00004435201024B1443C9000C431C6230BD69
:1016C0000040044030B5039C049D2402AD022C432D
:1016D000DB011C4304435201024B1443C9000C4379
:1016E0005C6230BD0040044030B5039C049D240280
:1016F000AD022C43DB011C4304435201024B144353
:10170000C9000C439C6530BD0040044030B5039CCB
:10171000049D2402AD022C43DB011C43044352010F
:10172000024B1443C9000C431C6730BD0040044009
:1017300030B5039C049D2402AD022C43DB011C4305
:101740008423044352011443C900024A0C43D45079
:1017500030BDC0460040044030B5039C049D2402C7
:10176000AD022C43DB011C43882304435201144384
:10177000C900024A0C43D45030BDC046004004406A
:1017800030B5039C049D2402AD022C43DB011C43B5
:101790009C23044352011443C900024A0C43D45011
:1017A00030BDC0460040044030B5039C049D240277
:1017B000AD022C43DB011C43AC2304435201144310
:1017C000C900024A0C43D45030BDC046004004401A
:1017D000084A03001068002808D00749C3188B4244
:1017E00001D81360704701204042FBE703481060B6
:1017F000F3E7C046A400001008020010080400101F
:10180000012040427047C04680239B0100204B606E
:101810007047C04601207047002070470020704785
:1018200010007047FEE7C04610B500F0BBFB162362
:1018300003600120404210BD0120704710B5002414
:1018400082B0FFF7B9FCFFF705FD0120FFF720FD8F
:10185000FFF73AFD002300220221012001940094A9
:10186000FFF762FE00230022022101200194009470
:10187000FFF76EFE0320FFF7BBFB0420FFF7BEFB64
:1018800002B010BD072010B5FEF7E2FF064BC0B254
:101890001A78012A01D0187010BD0028FBD1034925
:1018A0000A7801320A70F6E710000010A800001054
:1018B000F8B50520FEF7DAFFC6B20820FEF7D6FF1E
:1018C0000A2507000520FEF7D1FF013D040008208E
:1018D000FEF7CCFF002DF5D1E4B2A64203D1FFB252
:1018E000C0B2874203D00520FFF7A2F8F8BD054B30
:1018F00059684A1EBE4201D05A60F4E74A1C5A6039
:10190000F1E7C046A800001070B50A48FFF750FB89
:10191000094D0A4C69682000FFF74AFB0848FFF7A9
:1019200047FB29782000FFF743FB0648FFF740FB01
:1019300070BDC04664280000A80000107428000094
:10194000782800008428000010B5C9B2012804D00E
:101950004139C8B200F062F810BD7F31C8B2F9E772
:101960000FB470B58AB00EAB04CB02AD20212800B5
:10197000019300F0F9FA2C78002C36D00F260121C3
:101980000020FEF721FF012000F034F801210120A2
:10199000FEF71AFF012000F02DF821090020FEF7C4
:1019A000BFFF012000F026F800210120FEF70CFF08
:1019B000012000F01FF801210120FEF705FF0120A2
:1019C00000F018F8210000203140FEF7A9FF0120A7
:1019D00000F010F800210120FEF7F6FE013532205C
:1019E00000F008F82C78002CC9D10AB070BC08BCF3
:1019F00004B0184784B00190019A93009B185B00D3
:101A00000393039B5A1E0392002B05D0C046039BF1
:101A10005A1E0392002BF9D104B0704730B50F2441
:101A200089B00021044005090020FEF7CDFE0A23FD
:101A30000793079B5A1E0792002B05D0C046079BB1
:101A40005A1E0792002BF9D101210120FEF7BCFE9E
:101A50000A230693069B5A1E0692002B05D0C04609
:101A6000069B5A1E0692002BF9D129000020FEF792
:101A700057FF0A230593059B5A1E0592002B05D09C
:101A8000C046059B5A1E0592002BF9D1002101206A
:101A9000FEF79AFE0A230493049B5A1E0492002B1D
:101AA00005D0C046049B5A1E0492002BF9D1012197
:101AB0000120FEF789FE0A230393039B5A1E03921B
:101AC000002B05D0C046039B5A1E0392002BF9D170
:101AD00021000020FEF724FF0A230293029B5A1ED6
:101AE0000292002B05D0C046029B5A1E0292002B88
:101AF000F9D100210120FEF767FEFA235B00019374
:101B0000019B5A1E0192002B05D0C046019B5A1E14
:101B10000192002BF9D109B030BDC04600B50120BB
:101B200083B0FFF77BFF074B0193019B5A1E019285
:101B3000002B05D0C046019B5A1E0192002BF9D103
:101B400003B000BD204E000010B500248CB0FFF79C
:101B500033FBFFF73BFB002300220221002001940E
:101B60000094FFF741FD012300220221002001948F
:101B70000094FFF74BFD0023002202210020019476
:101B80000094FFF7D5FD00230022022100200194DC
:101B90000094FFF7E1FD00230022022100200194C0
:101BA0000094FFF7EDFD00230022022100200194A4
:101BB0000094FFF7F9FD0023002201210020019489
:101BC0000094FFF7EBFC01210020FEF789FF0121C3
:101BD0000120FEF785FF01210020FEF79BFF012178
:101BE0000120FEF797FF01210220FEF793FF01215C
:101BF0000320FEF78FFF01210A20FEF757FF4B4B12
:101C00000A930A9B5A1E0A92002B05D0C0460A9BD3
:101C10005A1E0A92002BF9D10220FFF7FFFEFA2389
:101C20009B000993099B5A1E0992002B05D0C046C0
:101C3000099B5A1E0992002BF9D12820FFF7EEFECE
:101C4000FA239B000893089B5A1E0892002B05D08C
:101C5000C046089B5A1E0892002BF9D10C20FFF7B2
:101C6000DDFEFA239B000793079B5A1E0792002B69
:101C700005D0C046079B5A1E0792002BF9D10620BB
:101C8000FFF7CCFEFA239B000693069B5A1E069292
:101C9000002B05D0C046069B5A1E0692002BF9D198
:101CA0000120FFF7BBFE224B0593059B5A1E0592B0
:101CB000002B05D0C046059B5A1E0592002BF9D17A
:101CC0008020FFF7ABFEFA239B000493049B5A1E6F
:101CD0000492002B05D0C046049B5A1E0492002B90
:101CE000F9D10120FFF79AFE114B0B930B9B5A1E63
:101CF0000B92002B05D0C0460B9B5A1E0B92002B5B
:101D0000F9D1FA239B000393039B5A1E0392002BE5
:101D100005D0C046039B5A1E0392002BF9D1002127
:101D20000A20FEF72FFD0CB010BDC046F04902009E
:101D3000204E000010B501210A20FEF723FD10BD42
:101D400010B500210A20FEF71DFD10BDF8B5174C97
:101D500021686768002925D0154800F04DF8050076
:101D600038006421684300F047F8060011486421F8
:101D7000784300F041F8A0600020FFF713F8280036
:101D8000FFF740F83000FFF731F80020FFF722F8A6
:101D90000120FFF743F80220FFF764F80220FFF765
:101DA0008DF8F8BD00260025E0E7C046B000001021
:101DB00040420F00E40C000010B5034903480EC96F
:101DC000FFF7F6F810BDC046B000001088280000EC
:101DD00000B583B0FFF7F0F9FFF716FA00230022F1
:101DE00001210193009303200133FFF74FFB0320F0
:101DF000FFF788F803B000BD002243088B4274D37C
:101E000003098B425FD3030A8B4244D3030B8B42FB
:101E100028D3030C8B420DD3FF22090212BA030C04
:101E20008B4202D31212090265D0030B8B4219D3E5
:101E300000E0090AC30B8B4201D3CB03C01A524105
:101E4000830B8B4201D38B03C01A5241430B8B424D
:101E500001D34B03C01A5241030B8B4201D30B0336
:101E6000C01A5241C30A8B4201D3CB02C01A52415D
:101E7000830A8B4201D38B02C01A5241430A8B4220
:101E800001D34B02C01A5241030A8B4201D30B0209
:101E9000C01A5241CDD2C3098B4201D3CB01C01A23
:101EA000524183098B4201D38B01C01A524143092D
:101EB0008B4201D34B01C01A524103098B4201D31B
:101EC0000B01C01A5241C3088B4201D3CB00C01A88
:101ED000524183088B4201D38B00C01A5241430800
:101EE0008B4201D34B00C01A5241411A00D2014625
:101EF000524110467047FFE701B5002000F006F898
:101F000002BDC0460029F7D076E770477047C0464B
:101F100070B50600140008001A009AB0002C05DA0B
:101F20008B230120336040421AB070BD8223694682
:101F300000259B008B81199500900490AC4200D045
:101F4000651E01235B42CB8130001E9B8D604D617D
:101F500000F09AF9431C01DA8B233360002CE3D0A4
:101F60000022009B1A70DFE713B5044C00931300A6
:101F70000A0001002068FFF7CBFF16BD1400001017
:101F800010B5884202D98B18984208D300239A4290
:101F900007D0CC5CC4540133F9E78B5C8354013A1D
:101FA000FBD210BD014B18687047C04614000010EA
:101FB00070477047002310B59A4200D110BDCC5C29
:101FC000C4540133F8E7000070B505000C1E10D0B2
:101FD000043C2368002B00DAE418280000F0E0F845
:101FE0001D4A1368002B05D163601460280000F0BF
:101FF000DFF870BDA34208D9206821188B42F3D1C5
:1020000019685B6809182160EEE71A005B68002B0D
:1020100001D0A342F9D911685018A0420BD1206811
:102020000918501811608342E0D118685B684118A4
:1020300011605360DAE7A04202D90C232B60D5E788
:10204000206821188B4203D119685B680918216048
:1020500063605460CAE7C0460002001070B50F4EBE
:102060000D0031680400002902D100F083FB3060CC
:102070002900200000F07EFB431C03D101256D42A6
:10208000280070BD0323C51C9D43A842F8D0291A1F
:10209000200000F06FFB0130F2D1EFE7FC010010EF
:1020A000F7B50322CB1C9343083305001F000C2B0C
:1020B00034D20C27B94233D8280000F071F8374EDB
:1020C00033681C00002C2FD139002800FFF7C6FF11
:1020D0000400431C5FD134680094009B002B4AD15C
:1020E000002C52D023682800E3180099019300F0D7
:1020F00041FB019B834248D123682800FF1A390025
:10210000FFF7ACFF013040D02368DB192360336850
:102110005A68002A33D1009B336019E0002BC9DADA
:102120000C232B600020FEBD2168C91B20D40B2985
:102130000AD9E2192760A34204D1326063681160B2
:10214000536005E05A60F9E76268A3420ED132603D
:10215000280000F02DF8200007220B30231D9043AB
:10216000C21A9842DFD01B1AA350DCE75A60EFE78F
:1021700023006468A6E7009C63680093ADE71A003B
:102180005B68A342FBD10023DAE70C2328002B6015
:1021900000F00EF8C6E70760DAE7C046000200105C
:1021A00010B50248FFF704FF10BDC046F80100104B
:1021B00010B50248FFF7FDFE10BDC046F801001043
:1021C000F0B58E6885B01F000C00330002900392BA
:1021D000BE4254D80C22885E9022D20010422CD0ED
:1021E0000322096923685B1A019363695343019AC7
:1021F000DD0FED187B1C6D109B182A00AB4201D936
:102200001D001A00400527D511000298FFF748FF6E
:10221000061E2AD0019A2169FFF7CCFEA289194B2C
:102220001A4080231343A381019B2661F618266080
:1022300065613E00ED1A3B00A5601F003A0003995E
:102240002068FFF79DFE0020A3689B1BA360236806
:10225000DB19236005B0F0BD029800F0A8FA061E55
:10226000E2D121690298FFF7AFFE0C230120029A08
:1022700040421360A28934331343A381EAE73E004E
:10228000DCE7C0467FFBFFFFF0B59FB002901D006A
:102290008B890F0016001B0612D50B69002B0FD17E
:1022A0004021FFF7FDFE38603861002806D10C237D
:1022B000029A1360012040421FB0F0BD40237B61B1
:1022C000002306AC6361203363761033A376059553
:1022D00035002B78002B01D0252B48D1AB1B039365
:1022E000B5420BD0320039000298FFF769FF013088
:1022F00000D1AAE06369039A9B1863612B78002BD5
:1023000000D1A2E00122532100235242626002AABE
:1023100052186E1C2360E360A3601370A365524BD8
:10232000052218003178039300F036FA751C2268F4
:1023300000281ED1D30604D5202302A95330091842
:102340000B70130704D553202B2302A909180B7017
:1023500033782A2B15D0350000210A20E3682A782B
:102360006E1C303A092A4ED9002910D116E00135E9
:10237000AFE7039B2E00C01A012383401343236061
:10238000CDE7059B191D1B680591002B01DBE36060
:1023900004E05B42E3600223134323602B782E2B7F
:1023A0000CD16B782A2B33D1059B02351A1D1B6883
:1023B0000592002B01DA01235B4263602B4E03225E
:1023C0003000297800F0E8F9002806D04023801B6F
:1023D000834022680135134323602978062224486C
:1023E0006E1C217600F0D8F9002834D0214800284E
:1023F00021D10722059B0733934308330593636973
:102400001B18636164E74343350001219B18A6E76D
:1024100000230A201900013563602A786E1C303AC7
:10242000092A03D9002BC9D06160C7E741433500B1
:1024300001238918F1E705AA009221003A000E4B0A
:10244000029800E000BF431CD9D1BB895B0600D5D0
:1024500030E7606930E705AA009221003A00064B98
:10246000029800F07BF8EEE7EC280000F22800006C
:10247000F628000000000000C1210000F7B516009A
:1024800001938A680B690C000090934200DA1300F4
:102490002200336043321278002A01D001333360C6
:1024A00023689B0602D53368023333602268062313
:1024B00015001D401A4227D0230043331B785A1EB3
:1024C00093412268920630D4220001990098089D19
:1024D0004332A847013025D0062223680025134047
:1024E000042B05D13368E568ED1AEB43DB171D407B
:1024F000A3682269934201DD9B1AED180026B542BC
:1025000020D1002010E00135E36832689B1AAB420D
:10251000D2DD2200012301990098089F1932B847A3
:102520000130F0D101204042FEBD3020E11843319E
:10253000087021005A1C45310978A2184332023331
:102540001170C1E72200012301990098089F1A32F7
:10255000B8470130E6D00136D1E70000F0B58BB0C6
:1025600006920A0043320793059003920A7E0C00FC
:10257000109B782A09D8622A0BD8002A00D1BBE028
:102580007A490491582A00D18FE0250042352A70FB
:1025900022E0100063381528F7D800F041F9160042
:1025A0001F00F6FFF6FFF6FFF6FF1F00F6FFF6FF2F
:1025B000F6FFF6FFA00036007F00F6FFF6FFB10041
:1025C000F6FF3600F6FFF6FF830025001A68423555
:1025D000111D196013682B7001239FE018680968AA
:1025E000021D0D060BD506681A60002E03DA2D2396
:1025F000039A764213705D4B0A27049319E006682C
:102600001A604906F1D536B2EFE71A68096840CA80
:10261000080602D4490600D5B6B21A60237E534A92
:102620000A2704926F2B00D1023F2300002243337C
:102630001A706368A360002B06DB04212268039DE7
:102640008A43226033430CD0039D30003900FFF7EA
:1026500059FC049B013D5B5C2B70330006009F42DC
:10266000F3D9082F09D12368DB0706D562682369EF
:102670009A4202DC3023013D2B70039B5B1B2361DC
:10268000079B210000930598069B09AAFFF7F6FE19
:10269000013048D1012040420BB0F0BD2022096832
:1026A0000A432260782232490491210045310A70A0
:1026B0001968226840C9100602D4500600D5B6B287
:1026C0001960D30702D5202313432360002E01D0C5
:1026D0001027AAE72022236893432360F8E71A68AB
:1026E0000D68101D4969186013682E0601D5196020
:1026F00002E06D06FBD519800023039D2361BFE72F
:102700001A68111D1960156800212800626800F020
:1027100043F8002801D0401B6060636823610023F8
:10272000039A1370ACE72A00236906990598079D60
:10273000A8470130AED023689B0715D4099BE068F9
:102740009842A9DA1800A7E7220001230699059804
:10275000079E1932B04701309CD00135E368099AD1
:102760009B1AAB42F0DCE9E70025F7E7FD28000003
:102770000E290000002370B5064D040008002B60F0
:10278000FFF726F8431C03D12B68002B00D02360F1
:1027900070BDC046F4010010C9B28218904201D148
:1027A0000020704703788B42FBD00130F6E7F7B585
:1027B00006000C001500002905D11100FFF770FC80
:1027C00004002000FEBD002A03D1FFF7FDFB2C0012
:1027D000F7E700F01CF80700854202D84308AB4237
:1027E000EFD329003000FFF75BFC0190002801D1F6
:1027F000019CE6E72A00BD4200D93A002100019879
:10280000FFF7D8FB21003000FFF7DEFBF0E70B1FDE
:102810001B68181F002B01DA0B58C0187047000006
:1028200003B47146490840004900095E49008E44DE
:1028300003BC7047F8B5C046F8B5C04650574D3A8E
:1028400025346C75487A2025336C752525202000A9
:10285000566F6C743A25346C756D562020202020FC
:10286000000000000D526F746172793A436E743D3E
:102870000000000025640000207C20436C69636B2D
:10288000733D00002020200050574D3A20256C75E4
:1028900020487A2C20256C7525252C20256C752048
:1028A0006D560A00DF0100005F0000002F000000ED
:1028B00020A1070000350C00E0C81000C05C150026
:1028C000006A180040771B0080841E00C091210020
:1028D000009F240040AC2700E032290020402C005B
:1028E000604D2F0000D4300040E13300232D302B09
:1028F0002000686C4C006566674546470030313201
:102900003334353637383941424344454600303157
:1029100032333435363738396162636465660000B6
:102920000A000100020005000A000000006CDC0241
:10293000010000001800001000000000BC000010A2
:10294000240100108C0100100000000000000000B5
:102950000000000000000000000000000000000077
:102960000000000000000000000000000000000067
:102970000000000000000000000000000000000057
:042980000000000053
:00000001FF
