:1000000000200010F1360000ED360000ED36000053
:1000100000000000000000000000000000000000E0
:10002000000000000000000000000000ED360000AD
:100030000000000000000000ED360000000000009D
:10004000ED360000ED360000ED360000ED36000024
:10005000ED360000ED360000ED360000ED36000014
:10006000ED360000ED360000ED360000ED36000004
:10007000ED360000112E0000ED360000ED360000D8
:10008000ED360000ED360000ED360000ED360000E4
:10009000ED360000ED360000ED360000ED360000D4
:1000A000ED360000ED360000ED360000ED360000C4
:1000B000ED36000049360000E13E0000ED3600005C
:1000C00010B5642000F030FBFBE7C04600B583B0FC
:1000D00002F012FD002301930133802204490093B2
:1000E0000448002300F0C8F900F054FCFEE7C046C5
:1000F000E0490000C100000072B6FEE772B6FEE7FC
:100100007047C0467047C046F8B5224D04002E889F
:1001100068680F00043002F04BF81F4BB6B29C42E7
:1001200015D06B683419A4B29C80A64205D9E86941
:100130006968043102F022F8F8BD286A6968043160
:1001400002F01CF8AB8CA342F6D9AC84F4E7002F84
:100150000CD16A68731E9BB293809E42E7D8286ACE
:100160006968043102F00AF8AB8CE5E76A68EB686D
:10017000936099686A68D1606A6804324A606A6804
:1001800004329A602A006B6808325A61AB68013306
:10019000AB60D1E760000010FFFF000070B5104CAD
:1001A00014E002F0D1FAA36BDD68281D02F000F81C
:1001B000236C013B2364A36A013BA36202F0D0FAE3
:1001C000286B02F001FC280002F0FEFBA36A002B62
:1001D000E7D1636C012BF9D902F0AAFAF6E7C04621
:1001E00060000010F0B5DE4657464E464546514980
:1001F000E0B50C8883B00134A4B20C80002C00D18F
:100200007AE04D4B019300228B8C00929C4258D394
:100210009146443294460B6A8C441B68002B3BD1B8
:100220004CE04E465E611668013E16609A6A002AEE
:100230000DD0DF691E6A5068BE6077601F001837F6
:10024000B84257D0484616689862013E1660019839
:10025000DF6AC26A974200D9C762BA00D219920017
:100260008E18B56C4046AA469D60AD686244DD605C
:1002700068605046454685605A61736C009A013348
:1002800073644B68DB6ABB429B415B421A430B6A57
:1002900000921B68002B11D00B6ADB68DB689A8820
:1002A00094423FD39F68DE685A69BE6077601F1D25
:1002B000B84657684745B4D15660B2E701235B4260
:1002C0008B8401204B68DA6A93009B189B00C91845
:1002D000019B4A6C1B6B904280415A1E93414042E5
:1002E0001843009B184303B0F0BCBB46B246A94676
:1002F000A046F0BD5660A5E70B6A1B68002B01D035
:1003000072B6FEE70B6ACA690A620B4ACB61936A4E
:100310000192013393620B6A1B68002B04D1013BED
:100320008B8470E78A84CCE70B6ADB681B888B843C
:1003300069E7C04660000010E0000010F8B5DE4636
:1003400057464E464546E0B502F0FEF9484C636B11
:10035000013B6363636B002B52D1464B9B461B6C86
:10036000002B4DD0A36B002B61D000239946443362
:100370009846433B9C46D8442FE049469962116811
:10038000013911605A699D68D9681E1DA9604D60C8
:100390005568B5423ED0116801391160E26AD96AE8
:1003A000914200D9E16258468A005218920087189B
:1003B000BD6C4244A8689D60D8604660AE605A61DA
:1003C0007B6C01337B645B465B68DB6A994201D3DB
:1003D00063462363A36B002B1ED0636CDB68DD696F
:1003E000196A9A6AA9604D601D0056681835AE42B8
:1003F000C3D15160C1E74C23E552236B002B33D1AD
:10040000002402F0ADF92000F0BCBB46B246A9467C
:10041000A046F8BD5160BEE75B461B6A1B68002B17
:100420001ED05B465A461B6ADB681B8893844C23AC
:10043000E35A9DB2002BE0D04C26012708E0FFF7DD
:10044000D1FE002800D02763013DADB2002DD2D0EF
:10045000636B002BF3D0A35B01339BB2A353F3E791
:100460005A46013B9384E2E702F062F90124C8E7AF
:10047000E000001060000010F8B5CE46474680B599
:100480009700804638000E00994602F021FA051EBA
:1004900026D04C2002F01CFA041E1ED04C22002153
:1004A00003F040FE280025633A00A52103F03AFE40
:1004B000256B002E0CD0210000223431B35C8B540C
:1004C000002B02D00132082AF8D13B230022E2544B
:1004D000089B042B0AD972B6FEE7280002F074FAD2
:1004E00001204042C0BCB946B046F8BD089B261D5D
:1004F000E362E363300001F031FE2000183001F0C8
:100500002DFE0523089A043F9B1A23830723E8192D
:1005100098434A4641462461646202F0EBF8099B25
:100520002060002B00D01C6002F00EF9354D2B6CC2
:1005300001332B646B68002B32D0334FE26ABB6F00
:10054000002B23D0FB6F0133FB67FB6A934200D281
:10055000FA6293009B189B00EA18916C8868A1606E
:10056000E06046608E6029004431CB186361536CB3
:100570000133536402F0F4F8BB6F002B04D06B68B6
:10058000DA6AE36A9A4207D30120ABE76B68DB6A59
:100590009342D7D86C60D5E702F0CAF80120A1E7F2
:1005A0006C602B6C012B02D0E26A174FCAE7A823BC
:1005B0002F0098464437A8443800143701F0C2FD94
:1005C000B845F9D1502399460F4FB944484601F038
:1005D000B9FD64239846B844404601F0B3FD3800A5
:1005E000383001F0AFFD28002C3001F0ABFD2800C1
:1005F000083001F0A7FD4B462B624346E26AEB61EF
:10060000A0E7C04660000010E0000010F8B504004C
:1006100002F09AF8234D002C3AD0271D380001F043
:10062000C7FDA36A002B03D02000183001F0C0FDE5
:100630001D4EF36F0133F3676B68A3421FD02B6C21
:10064000013B2B642B6A1B68002B15D02B6ADB68DF
:100650001B88AB8402F084F86B68A34205D0206B42
:1006600002F0B2F9200002F0AFF9B36F002B02D014
:100670006B68A3420ED0F8BD013BAB84EAE72800CB
:1006800039002C3001F06EFDAB6A0133AB62E1E75B
:100690006C68C2E7736B002B01D072B6FEE702F004
:1006A00047F8E8E760000010E000001070B500288F
:1006B00022D0002901D172B6FEE7194C636B002BE2
:1006C0001CD1636B01336363164B1A88038895B2A0
:1006D000591889B2934216D98B4211D98D420FD243
:1006E0000180491B88B20021FFF70EFD0125636BD5
:1006F000002B0BD172B6FEE772B6FEE772B6FEE7CC
:1007000000250180F3E78B42EAD8E7E7FFF716FE02
:10071000002801D0280070BD02F00AF8FAE7C046B0
:10072000E00000106000001010B5002814D00C4C40
:10073000636B002B01D072B6FEE7636B013363631A
:100740000021FFF7E1FC636B002B01D172B6FEE7DD
:10075000FFF7F4FD002801D101F0EAFF10BDC0460B
:10076000E000001010B5040001F0EEFF002C04D0F2
:10077000E46A01F0F5FF200010BD014B5C68F7E76B
:100780006000001010B5040001F0F8FF002C04D048
:10079000E46A01F0F7FF200010BD014B5C68F7E749
:1007A00060000010F8B504000D00042901D972B6EC
:1007B000FEE701F0C9FF002C2DD0E36B9D421ED057
:1007C000254E1FD877683F1B7A425741E16A8B421A
:1007D00000D1E5621822A35EE563002B02DB05234E
:1007E0005B1B238332008B005B1844329B00D318C1
:1007F00062699A4212D0002F01D001F099FF01F0F6
:10080000AFFFF8BD7268A24223D000277268D26A97
:1008100095427F41DAE7104B5C68CEE7251D280042
:1008200001F0C6FC0D4BE26AD96A8A4200D9DA624D
:1008300093009B189B00F218916C4436F618536C89
:1008400088680133A160E06045608D606661536433
:10085000D1E70027BAE7C04660000010E0000010B2
:10086000F8B5041E0DD01C4D6B68834208D001F012
:100870006BFF2B00626908339A4204D001F070FFCD
:10088000F8BD72B6FEE7154FA36A3A0038329342BC
:10089000F4D0002BF2D1261D300001F089FCE26A71
:1008A000FB6A9A4200D9FA6293009B189B00E918F0
:1008B000886C8768A060E7607E60866028004430AE
:1008C000C31863614B6C01334B646B68DB6A9A42FB
:1008D000D4D301F02DFFD1E760000010E00000103C
:1008E000F8B5CE464746040080B5002811D001F087
:1008F00045FF264D62692B00083306009A420AD054
:100900000027300001F03EFF3800C0BCB946B046B9
:10091000F8BD72B6FEE71E4AA36A10003830914651
:100920008342EDD0002BEBD1536B002B28D16B68A9
:10093000E26ADB6A00279A4203D301234A46013761
:100940001363231D1800984601F032FC4B46E26AFF
:10095000DB6A9A4201D94B46DA6293009B189B00EE
:10096000EA189C464346916C44358868A160E06073
:1009700043608B60536C6544013365615364C0E729
:100980002100183101F0EEFBBAE7C046600000100C
:10099000E000001010B50024114B82B001934022FA
:1009A0000023104910480094FFF766FD012801D08C
:1009B00072B6FEE701F074FD012805D00130F7D0D2
:1009C0000A4B1B6802B010BD72B60122084B52429E
:1009D0009A84084A90671C8001F028FFF0E7C0461F
:1009E00060010010EC4900009D010000504A000029
:1009F00060000010E000001010B572B60022024B3B
:100A00009A6701F089FE10BDE0000010024A536BA6
:100A1000013353637047C046E0000010044B10B52B
:100A20005B6B002B01D172B6FEE7FFF787FC10BDB0
:100A3000E000001010B501F087FE034B1C8801F0A8
:100A40008FFEA4B2200010BD6000001010B501F0B0
:100A500095FE034B1C8801F095FEA4B2200010BD4A
:100A600060000010014B186C7047C0466000001019
:100A7000002801D034307047024B58680028F9D163
:100A800072B6FEE76000001070B50D4C0500636B98
:100A9000002B01D072B6FEE7636B0133636301F094
:100AA00053FE4C22A35A5B199BB2A35201F058FE8D
:100AB000636B002B01D172B6FEE7FFF73FFC70BD00
:100AC000E0000010074B10B55A6B002A02D1FFF767
:100AD00089FB10BD4C215A5A0020013292B25A5261
:100AE000F7E7C046E000001070B51E4D6B6B002BA1
:100AF00002D001232B6370BD1B4C2B6363681B4921
:100B00001B6B1A688A4202D15968914220D06068F2
:100B100061683431FFF7F2FAEA6A02E0002A15D080
:100B2000013A91008B189B00E3185B6C002BF5D009
:100B30008918890060180100836C4C315B688364FC
:100B40008B420CD0DB686360EA62D4E772B6FEE7E2
:100B50009A688A42DBD1DB689342D8D1DCE75B68D4
:100B60008364EFE7E000001060000010A5A5A5A5D4
:100B700070B5040001F0E8FD254D002C36D0261D8F
:100B8000300001F015FBA36A002B03D020001830C1
:100B900001F00EFB28003100083001F0E3FA482292
:100BA000A35C012B01D10023A35401F0D9FD194E00
:100BB000B36F002B03D16B68A3420FD070BD01F05F
:100BC000C3FD2B6A1B68002B12D02B6ADB681B88C5
:100BD000AB8401F0C5FD6B68A342EFD1B36F002B6E
:100BE00009D0736B002B0FD072B6FEE76C68C6E7B6
:100BF000013BAB84EDE7A9682A6C914201D16B609F
:100C0000DCE7FFF771FFD9E701F092FDD6E7C046B8
:100C100060000010E000001010B50C00002809D0A2
:100C2000054B5968183101F0A9FA01212000FFF79E
:100C30006BFA10BD72B6FEE760000010030070B5DD
:100C4000002820D01148406B002801D172B6FEE781
:100C50000F48104C456821432983446859688D68C2
:100C6000E16144682562446818346C604468183453
:100C70008C60416810008B62196801311960012194
:100C8000FFF742FA70BD72B6FEE7C046E000001002
:100C9000600000100080FFFF030070B50800110025
:100CA000002B17D00C4A5C685568A668EC61556843
:100CB0002E62556818357560556852681835A560FC
:100CC00093621A6801321A60002900D00348FFF7C6
:100CD0001BFA70BD72B6FEE760000010FFFF000057
:100CE000F0B5C646C36800B5DB68002B52D0D869A2
:100CF000196A9A6A81604860180054681830844202
:100D000046D000219962116801391160234AD96ADD
:100D1000546B002C17D0D46BA568DC611D62686031
:100D2000A060100038309862936B1D4C01339363C0
:100D300063680020DB6A8B4202D201230130136317
:100D400080BCB846F0BD58699D68DC681F1DAC606A
:100D500065604568BD421FD00468013C0460D06AEC
:100D6000884200D2D16288000D4C401880002518BE
:100D7000AE6C8046B0689E60D8604760B760260061
:100D800044363000404458616B6C01336B64CFE7EC
:100D90005160B6E772B6FEE74460DDE7E0000010A0
:100DA00060000010F0B5C646264C00B5636B002B02
:100DB00001D172B6FEE7244BC2680B430380002AC0
:100DC0003AD0036945688168A9604D605D688542D5
:100DD00036D00021016119689068013919605369A2
:100DE000D168171D816048605868B84226D01968DC
:100DF000D06A01391960E36A984200D9E062830041
:100E000012491B189B00CD18AE6C9846B3689660CB
:100E1000D3605F60B7600E004436330043445361D3
:100E20006B6C01336B644B68DB6A984201D9012318
:100E3000236380BCB846F0BD72B6FEE75960D6E7C2
:100E40005960C6E7E00000100080FFFF600000105E
:100E500010B5041E0AD001F077FC054B9B6A236095
:100E6000044B1B88A38001F07BFC10BD72B6FEE72B
:100E7000E000001060000010034B9B6A0360034B0E
:100E80001B8883807047C046E0000010600000109F
:100E9000F0B5C64604000D0000B500281ED000299C
:100EA0001AD001F051FC15492A880B8814489BB2CE
:100EB000824220D0134FA088BE6AB04626684645BD
:100EC0000ED098420CD8002301242B8001F048FC5E
:100ED000200080BCB846F0BD72B6FEE772B6FEE7F1
:100EE0001E1AB6B2B242EED9D21ABB6A8018288056
:100EF00023600B88A3800024E8E7C0466000001050
:100F0000FFFF0000E00000100122014B1A63704750
:100F1000E0000010014B58687047C04660000010A8
:100F2000044B01209A6F002A03D0586B434258416A
:100F300040007047E000001070B5041E23D0224D21
:100F4000C26A6B68DB6A9A4216D21821435E002B94
:100F500004DB6B68D96A05235B1A038329009300BD
:100F60009B1844319B006269CB189A420DD06B6884
:100F70000120DB6AE36205E06B68C06BDB6A9842C4
:100F80008041404270BD0020FCE7261D300001F08A
:100F90000FF96B68DA6A0D4BE262D96A8A4200D9AE
:100FA000DA6293009B189B00EA18916C4435ED18A7
:100FB000536C88680133E060A16046608E60012058
:100FC00065615364DEE7C04660000010E000001079
:100FD00070B5041E10D01A4D6B68834201D072B6F2
:100FE000FEE71B6C002B09D0C16AC26B013B036496
:100FF000914201D0002B03D0002070BD72B6FEE7F5
:10100000061D300001F0D4F80523E26B9B1A238300
:101010000C4BE262D96A8A4200D9DA6293009B18CB
:101020009B00EA18916C4435ED18536C88680133C5
:10103000E060A16046608E60012065615364DCE77A
:1010400060000010E000001070B5041E0DD0036CAD
:10105000002B01D172B6FEE7C26B8A4200D20A00B1
:10106000E16A914201D0012B00D070BD184D6B6830
:10107000A3422BD01820235EE262002B02DB052363
:101080009B1A23832A008B005B1844329B00D318E1
:1010900062699A42E9D1261D300001F089F80D4BB2
:1010A000E26AD96A8A4200D9DA6293009B189B00EF
:1010B000EA18916C4435ED18536C88680133A160CF
:1010C000E06046608E6065615364CEE772B6FEE70D
:1010D00060000010E0000010044B5A685968108B43
:1010E0005A680523C96A5B1A1383704760000010B1
:1010F000044B5A68002A03D059680A6C01320A640A
:10110000586870476000001070B50D00140000288A
:1011100001D072B6FEE701F017FB144E73685B6CEA
:10112000002B0AD1012172684833D154002C04D01D
:101130002000FEF7E9FF01F0FBFA01F011FB01F0DE
:1011400003FB73685C6C002C04D07368002D09D01D
:1011500000225A64482300217268D15401F000FB38
:10116000200070BD621E5A64F4E7C04660000010A3
:10117000F0B5C64600B51C006B461B8B0E00150073
:101180009846002801D072B6FEE701F0DDFA482249
:10119000194F7B689B5C022B09D079684B6CB34379
:1011A0004B6401217B6899544346002B1DD101F00B
:1011B000D7FA01F0C9FA002C02D07B685B6C23607F
:1011C00048237A680024D35C022B04D17A68013466
:1011D000536CAB435364482300217A68D15401F027
:1011E000BFFA200080BCB846F0BD4046FEF78CFF39
:1011F00001F09EFADBE7C04660000010F8B504007D
:1012000016001D00002901D072B6FEE7002812D09A
:1012100001F09AFA069B002B02D0636C069A1360C9
:1012200048230221E25CE154D2B2042D43D829497B
:10123000AD004B599F4672B6FEE76664012A04D0A2
:10124000012401F08DFA2000F8BD6369A168E2680D
:10125000261D8A6051605968B14232D01A68013A3D
:101260001A601D4BE26AD96A8A4222D893001B4950
:101270009B189B00C818856CAF68A560E7607E600E
:10128000AE600D004435EB186361436C0133436479
:10129000A36A002B17D072B6FEE7636C0133636458
:1012A000CCE7022AC9D10024CBE7636C33436364E3
:1012B000C4E7DA62DAE7094B1B88002BBED072B6AE
:1012C000FEE75A60CAE74B68DB6A9A42B8D901F078
:1012D0002FFAB5E7284A0000E00000106000001077
:1012E000F0B5C64600B5040016001D0082B0002807
:1012F00016D0002901D072B6FEE701F03FFA089B34
:10130000002B02D0636C089A136048230221E25C30
:10131000E154D2B2042D5DD83A49AD004B599F46F5
:1013200072B6FEE76664012A07D0012401F02AFAAA
:10133000200002B080BCB846F0BDA36A002B0DD0DF
:1013400072B6FEE7022AEDD10024EFE7636C0133A9
:101350006364E8E7636C33436364E4E72A4BE56A5C
:101360005A6B002A3CD1A668E1686269B1604E60A0
:10137000261DB4465668664542D011680139116091
:10138000DA6AAA4200D2DD62AA005219920090469F
:101390001E49019288444646B76C6646BA68A76003
:1013A000E2605660BE600F00019A4437BA1862616D
:1013B00042464446526C013262644A68D26AAA428A
:1013C000B3D2099A002A02D0012209990A600122A7
:1013D0001A63AAE70D490B88002BA4D072B6FEE76A
:1013E0002100DA6B18319668E261266271609160C3
:1013F0001A003832A2629A6B044901329A63DCE720
:101400005160BAE73C4A0000E000001060000010A4
:10141000F0B5CE46474680B50400150083B00028DD
:1014200013D0002901D072B6FEE701F0A7F94823D6
:101430000221E25CE154636C01336364012A42D10E
:10144000A36A002B03D072B6FEE772B6FEE72A4B02
:10145000E16A5A6B8846002A3CD1A768E66862694F
:10146000BE607760271D3900B94657688F4241D06A
:101470001668013E1660DA6A424501D24246DA62D7
:10148000424692001D4E42449200B718B96C019238
:10149000A1608A688C464946E2605160624691606C
:1014A00044218C46019AB444624462617A6C0132F0
:1014B0007A647268D26A424505D2002D01D00122B9
:1014C0002A6001221A6301F05DF903B0C0BCB9467D
:1014D000B046F0BD2600DA6B18369768E2612762E5
:1014E0007E6096601A003832A2629A6B034E013217
:1014F0009A63DEE75660BBE7E00000106000001072
:1015000070B50400002901D072B6FEE700280DD0A6
:1015100001F01AF94823E25C0025022A03D001F009
:101520001FF9280070BDE5540135F8E7044B00258C
:101530005C6801F009F94823E25C022AEFD1F2E786
:101540006000001070B504000D00160000280BD0DC
:10155000AD00651901F0F8F86C6C6B6CB3436B640B
:1015600001F0FEF8200070BD014B5C68F0E7C0465A
:101570006000001070B51600026C0400856B002A34
:1015800006D1066801350020002E25D0A56370BD68
:10159000002E0ED1406802F0D5FD6368226C013543
:1015A0009B18A2686360934201D3236863600020A4
:1015B000ECE7C06802F0C6FD226CE36851429B1A5A
:1015C0002268E360934202D2A3685B18E360022EB4
:1015D00007D000200135D9E7A068FFF7F9FCA66025
:1015E000D4E7002DF5D00020D0E7C04670B5050047
:1015F00001F0AAF84523EC5C64B2002C16DD2E0045
:10160000243604E0013CE2B264B2002A0ED06B6AD8
:10161000002B0BD03000FFF763FB0028F2D0013C19
:10162000FFF772FCE2B264B2002AF0D14523FF2238
:10163000EA5401F095F801F087F84423EC5C64B2B9
:10164000002C16DD2E00103604E0013CE2B264B23C
:10165000002A0ED02B69002B0BD03000FFF740FB87
:101660000028F2D0013CFFF74FFCE2B264B2002A3E
:10167000F0D14423FF22EA5401F072F870BDC04655
:1016800070B504000D00002834D0C36B002B2FD0A0
:10169000016C1A0C080C002A1DD100282CD101F075
:1016A00053F8216CE36B22684B43D0185B1A6260DD
:1016B000D218A060E260FF2344220020A063A3545C
:1016C0000132A354002D1AD12369002B20D101F03F
:1016D00047F8012070BD00280AD1081C9BB289B2CE
:1016E000594380B293B24343090C5B181B0CD6D00C
:1016F00072B6FEE772B6FEE7021C181CEEE7200089
:10170000103000F01FFD2000243000F01BFDDEE74C
:1017100020001030FFF7E4FA0028D8D001F008F8D4
:10172000D5E7C04670B504000D0000280AD0030CB0
:101730000A0C002B08D1002A24D1280060430300A2
:1017400049330ED972B6FEE7002AFBD1A0B2AAB285
:10175000424389B29BB24B43120C9B181B0CECD03A
:10176000F0E7483001F0B4F8061E09D00300002D60
:101770000BD1012130003360F4633564FFF780FF43
:10178000300070BD131C011CE0E74833F1E7C04690
:1017900010B50C00002801D0884201D272B6FEE7D5
:1017A00002220021FFF7BEFF002800D0846310BD95
:1017B000F0B54746CE4680B585B01E006B460400A6
:1017C0009D1D88462A80002867D000295CD0022E03
:1017D00004D1E36B012B01D072B6FEE7FFF7A0FB4B
:1017E00000285CD000F0B0FFA26BE36B9A425BD3A1
:1017F000022E59D000220023442791460DE000F02C
:10180000AFFF2000FFF7F2FEFFF708F900F09CFFA2
:10181000A16BE26B0123914246D32A88002A55D05E
:10182000002B36D000F09CFFFFF7F0F800F08CFFA3
:10183000E35D5BB2013301D14B46E3554523E05CE8
:1018400040B2013001D14A46E25400F089FF29003C
:1018500002A8FFF71DFB00283CD100F075FFA26B2A
:10186000E36B9A42CBD100F07BFF20002988103037
:10187000FFF7D2F92000FFF7B9FEFFF7CFF80028F5
:10188000C4D100F055FFC1E7036C002B9FD072B6A6
:10189000FEE702A8FFF7F0FAC4E772B6FEE72B886E
:1018A000002B9FD072B6FEE7320041462000FFF7C2
:1018B00061FE636A002B17D1002812D100F050FF9F
:1018C000012005B0C0BCB946B046F0BD00F048FFED
:1018D0000020F6E72000FFF789FEFFF79FF80020C1
:1018E000EFE700F025FFE9E720002430FFF7F8F9E3
:1018F000E2E7C04670B5482000F0EAFF041E10D0B1
:10190000002501230121C36300600564FFF7B8FED1
:101910000023002200212000A5602560E560FFF77C
:1019200047FF200070BDC046F0B54F464646D6463C
:101930000400C0B51D000F001600002837D0002994
:1019400018D0022D04D1E36B012B18D072B6FEE73C
:1019500000F014FF0021A26BE36B804689469A4297
:1019600011D3404600F00EFF4846E0BCBA46B146EF
:10197000A846F0BD036C002BE3D072B6FEE700F082
:10198000FDFE8046A36B45239A46E35C2A005BB2CA
:10199000994639002000A36BFFF7ECFD4B4601335D
:1019A00007D1636A002B12D101239946D9E772B699
:1019B000FEE7FFF757F88145F6D24B467F2B04D060
:1019C000524601335BB2A354EEE772B6FEE7200045
:1019D0002430FFF785F90028E6D0002EE4D001235B
:1019E0003360E1E7F0B5C64604000D0000B50028FD
:1019F0001BD0036C002B01D072B6FEE70368002BEE
:101A000015D000F0BBFEA36BE26B06009A4213D91F
:101A10004522A75C01337FB29046A3637B1C13D1A0
:101A2000636A002B1CD1012407E072B6FEE78368CD
:101A3000002BE6D072B6FEE70024300000F0A2FED4
:101A4000200080BCB846F0BDFFF70CF88742EAD210
:101A50007F2F11D0434601377FB2E7540124ECE7D2
:101A600020002430FFF73CF90028DCD0002DDAD02C
:101A7000012301242B60E0E772B6FEE7F0B546468D
:101A8000D6464F46C0B584B06B4604009D1D0E007F
:101A90002A80002800D179E000294FD0FFF740FAD2
:101AA000002850D000F050FEA36B9A46002B00D0C7
:101AB0006EE02B88002B38D002A8FFF7DDF9442315
:101AC000984600234527994600F04AFEFEF79EFF00
:101AD00000F03AFE4346E35C5BB2013302D1434679
:101AE0004A46E254E35D5BB2013301D14B46E35514
:101AF00000F036FE290002A8FFF7CAF9002827D116
:101B000000F022FEA36B002B2FD000F029FE200056
:101B1000FFF76CFDFEF782FF00F016FEA36B9A46FE
:101B2000002B35D12B88002BCED100F019FE0020E0
:101B300004B0E0BCBA46B146A846F0BD036C002B29
:101B4000ACD072B6FEE72B88002BABD072B6FEE7A6
:101B50002000FFF74BFDFEF761FF00F0F5FDA36BE2
:101B6000002BE2D000F0FCFDD6E700F0F9FD2000EC
:101B700029882430FFF750F82000FFF737FDFEF7E3
:101B80004DFF0028C8D100F0D3FDC5E772B6FEE7CF
:101B9000226C002A0AD0E168A3688918E1609942A2
:101BA00001D32168E160300002F0CCFA5346013BDA
:101BB000A3632369002B03D100F0D2FD0120B7E716
:101BC00020001030FFF78CF80028F5D000F0B0FDB1
:101BD000F2E7C046F0B5CE46474680B585B06B46C5
:101BE00004009D1D298000284FD0036C002B01D0DC
:101BF00072B6FEE7FFF794F9002848D000F0A4FD84
:101C0000A36B002B00D083E02B88002B35D002A8DB
:101C1000FFF732F90023442799469846452600F0FD
:101C20009FFDFEF7F3FE00F08FFDE35D5BB2013335
:101C300001D14346E355A35D5BB2013301D1434675
:101C4000A35500F08DFD290002A8FFF721F9002817
:101C500022D100F079FDA36B002B39D000F080FD7C
:101C60002000FFF7C3FCFEF7D9FE00F06DFDA36B6B
:101C7000002B4DD12B88002BD1D100F071FD00201D
:101C800005B0C0BCB946B046F0BD72B6FEE72B88C1
:101C9000002BB3D072B6FEE72000FFF7A7FCFEF7DB
:101CA000BDFE00F051FDA36B002B25D100F058FDC7
:101CB0004B46002BE3D000F047FD616A002903D0BA
:101CC0000521236B1B88C91AA068FFF7BDF9D4E76B
:101CD00000F046FD2368002B11D020002988243015
:101CE000FEF79AFF2000FFF781FCFEF797FE002821
:101CF000BBD100F01DFDB8E700F032FDB5E700F004
:101D000023FDA068FFF718F9814600F029FDE4E7FC
:101D1000013BA3632368002B06D02369002B07D166
:101D200000F01EFD0120ABE7FFF7E2F9A060F4E749
:101D300020001030FEF7D4FF0028F1D000F0F8FCAE
:101D4000EEE7C046F0B5CE46474680B585B06B4657
:101D500004009D1D0E002A80002800D176E0002995
:101D60004CD0FFF7DDF800284DD000F0EDFCA36B60
:101D7000002B00D06CE02B88002B37D002A8FFF797
:101D80007BF84423984600234527994600F0E8FC59
:101D9000FEF73CFE00F0D8FC4346E35C5BB2013347
:101DA00002D143464A46E254E35D5BB2013301D1BE
:101DB0004B46E35500F0D4FC290002A8FFF768F871
:101DC000002825D100F0C0FCA36B002B2DD000F023
:101DD000C7FC2000FFF70AFCFEF720FE00F0B4FC71
:101DE000A36B002B34D12B88002BCFD100F0B8FC93
:101DF000002005B0C0BCB946B046F0BD036C002B56
:101E0000AFD072B6FEE72B88002BAED072B6FEE7DD
:101E10002000FFF7EBFBFEF701FE00F095FCA36B43
:101E2000002BE3D000F09CFCD8E700F099FC2000E8
:101E300029882430FEF7F0FE2000FFF7D7FBFEF7DD
:101E4000EDFD0028CAD100F073FCC7E772B6FEE7CB
:101E5000226CE568002A09D0A368A918E1609942BC
:101E600001D32168E160300002F06CF9636AE5603B
:101E7000002B03D100F074FC0120BAE720002430CD
:101E8000FEF72EFF0028F5D000F052FCF2E7C04626
:101E9000F8B54746CE46040080B516000F0000286E
:101EA00033D000290FD000F069FCA36B05009846E1
:101EB000002B0DD10024280000F064FC2000C0BCE1
:101EC000B946B046F8BD036C002BECD072B6FEE705
:101ED0004423E35C226C5BB29946002A0AD0E16895
:101EE000A3688918E160994201D32168E160380054
:101EF00002F028F94346013BA3634B46013306D168
:101F00002369002B10D10124D5E772B6FEE7FEF756
:101F1000A9FD8145F7D24B467F2B11D044220133D6
:101F20005BB2A3540124C6E720001030FEF7D8FEB0
:101F30000028E8D0002EE6D0012301243360BAE760
:101F400072B6FEE7F8B504000D0000280AD0036C55
:101F5000002903D0002B07D172B6FEE7002BFBD07F
:101F600072B6FEE772B6FEE700F008FCA36B06004F
:101F70000027002B04D1300000F004FC3800F8BD2D
:101F8000226CE768002A09D0A368B918E160994279
:101F900001D32168E160280002F0D4F8E76001274E
:101FA000E9E7C04610B5041E06D000F0CDFBA46BD7
:101FB00000F0D6FB200010BD72B6FEE710B5041E7F
:101FC00008D000F0C1FBA36BE46BE41A00F0C8FB7F
:101FD000200010BD72B6FEE7002801D0806B70476C
:101FE00072B6FEE710B500280CD00B4C002322007F
:101FF0005168884208D001330832042BF8D100F030
:10200000E3FC10BD72B6FEE7DB00E41800220023FB
:1020100022606360F3E7C04668010010002803D027
:10202000806B43425841704772B6FEE7002805D0E6
:10203000836BC06BC01A43425841704772B6FEE7CB
:1020400070B5002818D0002915D0134C00236568FE
:102050002200260085420AD015680133002D0DD0DC
:10206000042B08D0D56808321600A842F4D1DB0052
:10207000E6183160706070BD72B6FEE7042BF8D0D0
:10208000D5680832A842F2D00133042BF1D0D568CC
:102090000832A842F8D1EAE76801001010B500281C
:1020A0000BD0084C002322005168814207D0013335
:1020B0000832042BF8D1002010BD72B6FEE7DB0019
:1020C000E058F9E76801001010B500280AD00A4C62
:1020D000002322005168884206D001330832042BC5
:1020E000F8D110BD72B6FEE7DB00E4180022002331
:1020F00022606360F5E7C0466801001070B5040017
:1021000016000D0000F020FB4422A35C5BB20133FB
:1021100001D10023A3544522A35C5BB2013301D15A
:102120000023A35400F01CFBA36B002B03D0200062
:10213000FFF75CFA70BD2000320029002430FEF762
:10214000ABFDF4E70300083301224360C360036181
:1021500000235242028103607047C046002303619E
:102160007047C04643689A684B608A6051609960C6
:1021700003680861013303607047C046030030B54F
:102180000A4A0D88083395420DD01C005B681A88F6
:10219000AA42FAD94B60996003688C600133616090
:1021A0000861036030BD04696368F3E7FFFF000066
:1021B0000369416882688A6051605968814206D02B
:1021C000002202611A68013A1A60186870475A6062
:1021D000F6E7C04670B500F0B7FA0F4C2368002B45
:1021E00002D000F0BDFA70BD2500261D3000183564
:1021F000FFF7A8FF2800FFF7A5FF00220C2104200D
:10220000E6622563FFF78EFA20600028E9D00349D3
:10221000FFF716FFE5E7C04688010010F44900000B
:10222000F8B5CE4647461D4B80B59946DB6A060099
:10223000DB680F00DC68231D18009846FFF7B8FF25
:102240002422A35C590711D401218B43A3542000FD
:10225000236A9847C0BCB946B046F8BDBE1BB6B2AB
:10226000B34214D82000236A98472E00238B2461A0
:10227000F518ADB2A580AF42F0D2B74201D2AE425E
:10228000F0D94B464146D86AFFF778FFDFE74B4667
:102290004146186BFFF772FFD9E7C046880100106E
:1022A0007C4BF0B5454698462423DE4657464E46BD
:1022B0009B46E0B5784D85B001ACEB6A1A68002A00
:1022C00000D0AFE0FEF7A2FBFEF7B4FBAB8E070039
:1022D000834235D82B6BA8861A6853425A41002393
:1022E00099464B46D91B286889B2FFF707FFFEF7CE
:1022F00095FB002800D1A6E0002221002868FFF706
:10230000BDFB0028D9D02368002BF5DBA7687B69CB
:10231000002B02D0381DFFF74BFFFEF78BFBAB8E77
:10232000060083421CD82368AE86092BE4D84246B7
:102330009B00D3589F46DB6858491888FFF770FF09
:10234000EB6A1A68002AF6D12A6BAF86EA622B6321
:10235000FEF764FBD0E7DB6850491888FFF760FFA1
:10236000EB6A1A68002AF6D12A6B2B63EA62DAE775
:102370005B46F85C01235A460343BB54A1883A8B61
:102380003F618B189BB2BB80B34266D8711A89B289
:102390008A4278D8410710D4012398435B46F85409
:1023A00038003B6A9847A7E7F31A9BB29A4265D870
:1023B0003B6A3800984753463A8BD11889B28A460F
:1023C000B9803F618E42EFD29E4201D28B42EFD95B
:1023D000E86A391DFFF7D2FEE2E75B460122FB5CAB
:1023E00093435A46BB5487E75B460122FB5C134389
:1023F0005A46BB54A3883B83002B49D09B199BB200
:10240000BB803F61391DB34230D8286BFFF7B6FE61
:1024100072E75B46FB5C9A072CD5012293435A4630
:10242000BB5469E7DB681B889946FEF7EFFAFEF7B5
:1024300001FBAB8E0700834200D981E7A886814566
:1024400004D900224DE700F073F955E7FEF7E6FAEC
:1024500039004846FFF7E4FE4EE7B14201D9994200
:1024600098D9E86A391DFFF789FE45E7E86AFFF762
:1024700085FE41E7380000F0A7FA3DE7286B391DDB
:10248000FFF77CFE8CE7286B391DFFF777FE33E7FB
:1024900072B6FEE7544A000088010010FFFF0000FA
:1024A00000B583B0FFF796FE094B1A68002A0BD0DF
:1024B0003833019302234022009306490023064843
:1024C000FDF7DAFF002801D172B6FEE703B000BDC8
:1024D00088010010FC490000A1220000F8B5CE469A
:1024E0004746804680B528200E0091461D0000F02A
:1024F000EFF9041E18D024270023C355002E01D164
:1025000072B6FEE7FFF766FE43462360089B26830C
:102510002362E561201DFFF721FE4B46002B03D00F
:102520000422E35D1343E3552000C0BCB946B04626
:10253000F8BDC046F0B5C64600B584B01D006B4678
:102540001B8D041E98461AD0144F3868002811D0ED
:1025500001AE0191B280B460052912DCFEF7E0FC07
:1025600000233C68022812D0002231002000FFF72F
:102570001FF900E0002004B080BCB846F0BD72B680
:10258000FEE700232A003100FFF7CEF9F3E74246C9
:1025900031002000FFF70CF9EDE7C046880100107C
:1025A000034B986B002800D0704772B6FEE7C04618
:1025B00088010010002801D0008B704772B6FEE73A
:1025C00070B504000D0000280ED000F0BDF82423E3
:1025D0000422E35C002D05D193432422A35400F090
:1025E000BFF870BD1343F8E772B6FEE710B5041EDE
:1025F00009D000F0A9F82423E45C00F0B1F86407E6
:10260000E40F200010BD72B6FEE7C04610B5041EF0
:1026100009D000F099F82423E45C00F0A1F86407E5
:10262000E40F200010BD72B6FEE7C046002801D0BE
:102630008088704772B6FEE7002801D000687047B6
:1026400072B6FEE710B5041E09D000F07DF8242311
:10265000E35C01241C4000F083F8200010BD72B63A
:10266000FEE7C04610B5041E06D000F06DF8E46920
:1026700000F076F8200010BD72B6FEE770B50400D9
:102680000D00002805D000F05FF8E56100F068F863
:1026900070BD72B6FEE7C0460000000000000000FA
:1026A000002382B00193064B1B68013301D072B640
:1026B000FEE772B6019B002BFCD002B07047C0460B
:1026C000000000100A4A13681868203080F3098857
:1026D000022080F31488BFF36F8F3FBCAE4608BC66
:1026E00004BC62B61847C046C046C046C046C04695
:1026F0006400001010B58024031F64041C60043BB8
:1027000019600349043B1960143B40381A6010BD3E
:10271000A12600007047C046FA22044B92001B68B5
:10272000934201D072B6FEE77047C0460000001029
:102730008022044B52051A60BFF34F8FBFF36F8F97
:102740007047C04604ED00E072B6044A13680133D6
:102750001360BFF34F8FBFF36F8F704700000010FF
:10276000054A1368002B01D172B6FEE7013B1360E6
:10277000002B00D162B6704700000010EFF310800C
:1027800072B6704780F310887047C046EFF3098037
:102790000F4B1A6820381060F0C044464D4656462C
:1027A0005F46F0C008B572B6FEF79EF962B60CBC83
:1027B000116808681030F0C8A046A946B246BB466A
:1027C00080F309882038F0C81847C046C046C04684
:1027D0006400001010B5FFF7D1FF0400FEF772F996
:1027E000002803D08022034B52051A602000FFF717
:1027F000C9FF10BD04ED00E00023FA2110B5074A1F
:10280000074C890023601360064B186801F0B4FB85
:10281000054B013818600723236010BD18E000E065
:1028200010E000E00400001014E000E0FF2230B5EA
:10283000104B1204196883B00A431A60FF22002566
:10284000196812060A431A60FFF7D6FF0A4C256082
:10285000FFF738FFFEF748F923680195013301D0EF
:1028600072B6FEE772B6019B002BFCD0002003B0CD
:1028700030BDC04620ED00E00000001070B5134DE3
:102880002B001A001B688342FBD354684168161959
:10289000B04210D04418A34204D00360824200D05A
:1028A000106070BDAC68A342F7D05C681B6861180B
:1028B00041600360F2E70919501851608342F0D17A
:1028C000AC681000A342F0D1EBE7C046C401001091
:1028D000F0B5C64600B50400FEF798F8384DAB6871
:1028E000002B52D0002C08D1FEF798F80026FDF7F7
:1028F00003FC300080BCB846F0BD072626403300FC
:10290000113BA342F0D310239C46A4446346991B79
:102910000029E9DD2F698F42E6D328002C6804E006
:102920002368002B04D020001C0062688A42F7D381
:10293000AB68A342D8D00368984623680360634617
:10294000F61AB618102E09D96018430701D072B6CE
:10295000FEE746606160FFF791FF6268EB68BF1AAF
:102960002F619F4200D2EF6080231B0613436360F8
:102970000023464623606B69083601336B61FEF71E
:102980004DF87307B5D072B6FEE707200D4B1A005D
:102990001900184202D0DA1D82431100FF26F6000A
:1029A000B446072600206344B3439A1A686029603E
:1029B00058601860AB604A600B60EA602A6191E77A
:1029C000C4010010E001001070B500281DD00838C7
:1029D00043680400002B01DB72B6FEE70268002AA0
:1029E00001D072B6FEE75B005B084360FEF70EF8AD
:1029F000064D63682A6920009B182B61FFF73EFF94
:102A0000AB690133AB61FEF709F870BDC40100107A
:102A1000014B18697047C046C4010010014BD868CB
:102A20007047C046C40100107047C04670B500280A
:102A300005D0030C0A0C002B1CD1002A0CD14143F9
:102A400008000D00FFF744FF041E03D02A000021F8
:102A500001F068FB200070BD131C041C85B28AB213
:102A60006A43A4B29BB26343120C9B181B0CE6D0C2
:102A70000024EFE7002AFBD10C1CEFE7F0B5C646B7
:102A800000B50700FDF7C2FF194B98461B68002BE5
:102A900029D04246916800260024164D8B420AD068
:102AA0005A680134964200D21600954200D91500AA
:102AB0001B688B42F4D1FDF7B1FF7E60BD60FC6006
:102AC000FFF742FE43461B693B6043465B697B61FF
:102AD00043469B69BB614346DB683B61FFF740FEB1
:102AE00080BCB846F0BD00260024024DE3E7C04696
:102AF000C4010010FFFF000000B583B000F098FE95
:102B000000F0A0FE00230022019300930121002089
:102B100000F0B0FF0121082000F000FC03B000BD70
:102B2000014B18687047C046E0090010014B586817
:102B30007047C046E00900100121024A13688B4328
:102B400013607047000005400122014B1A60704776
:102B5000E0090010B222284B52009958043A9B58C1
:102B6000090470B5194345D51F2301251C00013BFD
:102B70003ED32A009A401142F8D1F3220F211E4B76
:102B80005A62027B1140D42252010A439A63417B6C
:102B9000026800291CD1194D92002A408025ED01C0
:102BA00015439962DD621963A02109020A435A6341
:102BB00080218388104A0902D363C3881364038980
:102BC0005364438993641462136A0B42FCD170BD51
:102BD00080251104120CD604F60C2D02090C354385
:102BE0009962DD621963E02109020A435A63DFE753
:102BF0000024C2E72024C0E700000540FC1F0000BD
:102C0000B222284B52009958043A9B58090430B517
:102C1000194345D51F2301251C00013B3ED32A0043
:102C20009A401142F8D1B7230F211E4A5362037B09
:102C3000194098231B010B439363417B03680029D0
:102C400023D1116318499B000B40A02109020B43BB
:102C500053638288134BDA63C2881A6402895A6408
:102C600042899A64827B012A07D103215A6A8A43E6
:102C70005A625A6B0D490A405A638021094A090277
:102C80001462136A0B42FCD130BD1904090C1163A4
:102C9000E0211B0C09020B435363DAE70024C2E76F
:102CA0002024C0E700000540FC1F0000FFDFFFFFFD
:102CB00070B5802580242F4A2D0213592B42FCD158
:102CC00084237F25D550105180228026294C120262
:102CD000A3591D0015401342FAD19822A3581B0591
:102CE0001FD50121244B19608423F231E150A550F6
:102CF00080220433E5500433E5500433E5500433B7
:102D0000E5500833E5500433E5500433E55004330F
:102D1000E550A05117487339120243581342FCD1B1
:102D200070BD9422A3585B041BD4A3580022DB047B
:102D30005B0D4A7398220B600E4B9858893A0240FB
:102D40000A739C229A588A80A0229A58CA80A42288
:102D50009A580A81A8229B58A73A4B81064B5A6081
:102D6000DEE7A3580548043AA2581B040340134366
:102D70000122DEE700000540E00900100000FF1F0F
:102D8000B222204B520070B59C58043A9B58240440
:102D90001C43DB0734D5002301261D000133202B03
:102DA0002CD032009A401442F7D10235F022154B54
:102DB0005A62154A9A63002911D1144A80001040C2
:102DC0008022120202439962D86219635A638021F9
:102DD0000C4A09021562136A0B42FCD170BD8021B6
:102DE0000204C000C00C0902120C01439A62D962AD
:102DF0001A63C022120202435A63E8E70025D5E7AE
:102E00000125D3E7000005408F140000FC1F0000DF
:102E100000B5144A83B013690093009B002B09D0BE
:102E2000802109028B4207D000984004400C431EC9
:102E30001F2B13D903B000BD5368019308230199D8
:102E40000B4202D05168994351601023019A1342FA
:102E5000F0D004494A689A434A60EBE70249FFF719
:102E600027FFE7E700000540E80900100821234B91
:102E700070B55A6880240A435A60802278315858C5
:102E8000920202435A501E4B1E49186801F074F812
:102E9000C02240211C4B520001389850803AFF3A22
:102EA0001A601A68F3260A431A601A6824028A43D1
:102EB00080211A60154A8901116000210022013128
:102EC0005E629A639A62DA621A635A63DA631A6418
:102ED0005A649A641962186A050025402042FAD1A2
:102EE0002029ECD15D601A680E310A431A601A6815
:102EF0002D398A431A60064B196070BD008004406A
:102F00000400001000127A000000054000E100E01B
:102F1000E0090010F8B5040018000F4B9C61002A6E
:102F200008D01F00002418370E5DE51901342E71FA
:102F30009442F9DB24215A5425229854002202316C
:102F40005A541968002900D1F8BD1A6018331800C6
:102F5000FFF756FEF8E7C046E0090010F8B50E4F3F
:102F6000B862002A08D03E00002028360D5C841983
:102F7000013025719042F9DB38002830437301237A
:102F800083733B680273002B00D1F8BD00233B60C4
:102F9000FFF7E0FDF9E7C046E00900100A4910B567
:102FA0004B68002B0ED000234B608B6803608B8A2C
:102FB0000A7D83818B7D8373002A03D00C3104301A
:102FC00001F09EF810BDC046E00900108021034BBF
:102FD0001A680A431A6010225A61704700000540BF
:102FE00010B5012915D002290AD0002907D10122E4
:102FF000A02482400B49E40563589343635010BDFD
:103000000123A0218340074AC9058C5863408B5097
:10301000F5E7A0228140034BD205D4582143D1507B
:10302000EDE7C046FC3F000010B5012913D002298E
:1030300009D0002906D1012282400A4C0A4963586E
:103040009343635010BD012383400649064A8C58C0
:1030500063408B50F6E78140024A034BD45821432A
:10306000D150EFE700000150FC3F000010B50129EE
:1030700013D0022909D0002906D1012282400A4C2E
:103080000A4963589343635010BD012383400649A6
:10309000064A8C5863408B50F6E78140024A034B46
:1030A000D4582143D150EFE700000250FC3F00000C
:1030B00010B5012913D0022909D0002906D1012217
:1030C00082400A4C0A4963589343635010BD012360
:1030D00083400649064A8C5863408B50F6E781408E
:1030E000024A034BD4582143D150EFE7000003506C
:1030F000FC3F0000A022054BD205D358012282409C
:1031000013401800431E98417047C046FC3F000022
:10311000044A054BD3580122824013401800431E35
:103120009841704700000150FC3F0000044A054BE5
:10313000D3580122824013401800431E9841704723
:1031400000000250FC3F0000044A054BD358012206
:10315000824013401800431E9841704700000350FE
:10316000FC3F000030B50F24A02280008440814045
:10317000034DD2055359A3430B43535130BDC046B1
:10318000FC3F000030B50F24800084408140034D97
:10319000034A5359A3430B43535130BDFC3F000036
:1031A0000000015030B50F24800084408140034D61
:1031B000034A5359A3430B43535130BDFC3F000016
:1031C0000000025030B50F24800084408140034D40
:1031D000034A5359A3430B43535130BDFC3F0000F6
:1031E00000000350012210B5A02482400249E405EA
:1031F00063589343635010BD108000000122824049
:1032000010B50349034C63589343635010BDC04647
:1032100010800000000001500122824010B50349D7
:10322000034C63589343635010BDC04610800000A8
:10323000000002500122824010B50349034C63583C
:103240009343635010BDC04610800000000003503F
:103250000123A021834010B5024AC9058C5823439D
:103260008B5010BD108000000123834010B503492E
:10327000034A8C5823438B5010BDC04600000150B8
:10328000108000000123834010B50349034A8C5885
:1032900023438B5010BDC046000002501080000038
:1032A0000123834010B50349034A8C5823438B50B4
:1032B00010BDC04600000350108000000123A02173
:1032C0008340034AC9058B50C046C0467047C0467C
:1032D0001C800000012383400249034A8B50C046F2
:1032E000C0467047000001501C800000012383404D
:1032F0000249034A8B50C046C04670470000025046
:103300001C800000012383400249034A8B50C046C1
:10331000C0467047000003501C80000010B5002913
:103320000BD0012900D010BDA02280238140D205FE
:103330001B02D4582143D150F5E70122A02480215B
:103340008240E4050902635893436350EBE7C046AB
:1033500010B500290AD0012900D010BD802381407A
:10336000074A1B02D4582143D150F6E7012280219D
:103370008240034C0902635893436350EDE7C04613
:103380000000015010B500290AD0012900D010BD5D
:1033900080238140074A1B02D4582143D150F6E7CD
:1033A000012280218240034C0902635893436350F9
:1033B000EDE7C0460000025010B500290AD00129EF
:1033C00000D010BD80238140074A1B02D4582143FE
:1033D000D150F6E7012280218240034C0902635854
:1033E00093436350EDE7C046000003500123A02241
:1033F000834030B5094DD20554591C43545101291D
:1034000007D0022900D030BD05495058034353501E
:10341000F9E70348115899431150F4E7048000007C
:103420000C8000000123A022834030B5114DD2054D
:103430005459D8439C435451022911D003290AD02E
:10344000012907D10C4C115901400C481151115858
:103450000B43135030BD0849505803435350F9E70C
:10346000054953580340535004495358034053509F
:10347000F0E7C04604800000088000000C800000D7
:103480000123834030B50A4A0A4D54591C43545114
:10349000012907D0022900D030BD07495058034305
:1034A0005350F9E70448115899431150F4E7C046C6
:1034B00000000150048000000C80000001238340C4
:1034C00030B5114A114DD84354599C4354510229E7
:1034D00011D003290AD0012907D10D4C11590140FF
:1034E0000C48115111580B43135030BD0849505826
:1034F00003435350F9E706495358034053500549D5
:10350000535803405350F0E700000150048000007E
:10351000088000000C8000000123834030B50A4A77
:103520000A4D54591C435451012907D0022900D097
:1035300030BD0749505803435350F9E70448115828
:1035400099431150F4E7C046000002500480000087
:103550000C8000000123834030B5114A114DD8433F
:1035600054599C435451022911D003290AD00129EE
:1035700007D10D4C115901400C48115111580B4302
:10358000135030BD0849505803435350F9E70649DA
:103590005358034053500549535803405350F0E7E4
:1035A0000000025004800000088000000C80000031
:1035B0000123834030B50A4A0A4D54591C435451E3
:1035C000012907D0022900D030BD074950580343D4
:1035D0005350F9E70448115899431150F4E7C04695
:1035E00000000350048000000C8000000123834091
:1035F00030B5114A114DD84354599C4354510229B6
:1036000011D003290AD0012907D10D4C11590140CD
:103610000C48115111580B43135030BD08495058F4
:1036200003435350F9E706495358034053500549A3
:10363000535803405350F0E700000350048000004B
:10364000088000000C80000010B50820FFF74EFE37
:103650000122014B1A7010BD180A00102021034AE4
:1036600053691942FCD010607047C046008000408A
:1036700010B500280CD00478002C09D02021054A70
:1036800053691942FCD0146044780130002CF7D102
:1036900010BDC04600800040034A00205369DB078C
:1036A00001D51068C0B27047008000400FB430B53B
:1036B000A3B026AB04CB02AC80212000019300F024
:1036C00013FD2578002D09D02021074A536919429E
:1036D000FCD0156065780134002DF7D123B030BCE3
:1036E00008BC04B01847C04600800040FEE7C04652
:1036F0000848094B10B5984207D2013B1A1A9208A4
:1037000001320649920000F01DFD00F053F8FCF76D
:10371000DDFCFEE7000000105C000010EC4A000039
:10372000204B00205B6A10B5DB051B0F013B0E2B05
:1037300002D81D4A9B00985803241A4A516A136FF5
:103740002340022B25D0032B0ED0012B04D1136C68
:103750001C40023C012C23D91448124B144C996F85
:1037600000F00AFC206010BD116C0B40012B03D04F
:10377000023B0020012BF0D9C02391685B00194265
:10378000EAD19268623BFF3B08481340013358433B
:10379000E3E73E2349001940023100F0EDFBDCE78E
:1037A0000020DAE7008004407C4A0000001BB700DC
:1037B000040000108E2120201C4B89005A5882B032
:1037C00082435A5000221A620192019BC72B06D8ED
:1037D000C046019B01330193019BC72BF8D90123FC
:1037E0000021124A13645364516453640131536CD1
:1037F0001942FCD023238E218020936089005358E6
:10380000834353500121094AD3681942FCD0032352
:10381000136700235167536751670121034A536FB0
:103820001942FCD0916702B07047C0460080044046
:103830008022802302495B02885803438B507047E3
:10384000008004408022402002498B5803438B5063
:103850007047C046008004408022802302499B01BB
:10386000885803438B507047008004408022802397
:1038700002499B00885803438B50704700800440E6
:10388000802280230249DB00885803438B50704715
:103890000080044080230249CA581A43CA50704726
:1038A000008004408022802302491B018858034382
:1038B0008B507047008004408022202002498B58A2
:1038C00003438B507047C046008004408022802311
:1038D00002495B01885803438B50704700800440C5
:1038E0008022802302499B02885803438B507047F3
:1038F000008004408022802302491B028858034331
:103900008B507047008004409823014AD050704784
:10391000008004409423014AD05070470080044046
:103920000121024A53680B435360704700800440F2
:103930000221024A53680B435360704700800440E1
:103940000821024A53680B435360704700800440CB
:103950008E221020024992008B5883438B5070476F
:10396000008004408E224020024992008B588343FD
:103970008B5070470080044030B5039C049D2402A6
:10398000AD022C43DB011C4304435201024B1443A0
:10399000C9000C431C6130BD0040044030B5039C9D
:1039A000049D2402AD022C43DB011C43044352015D
:1039B000024B1443C9000C43DC6130BD004004409D
:1039C00030B5039C049D2402AD022C43DB011C4353
:1039D00004435201024B1443C9000C43DC6230BD66
:1039E0000040044030B5039C049D2402AD022C43EA
:1039F000DB011C4304435201024B1443C9000C4336
:103A00001C6330BD0040044030B5039C049D24027B
:103A1000AD022C43DB011C4304435201024B14430F
:103A2000C9000C435C6330BD0040044030B5039CCA
:103A3000049D2402AD022C43DB011C4304435201CC
:103A4000024B1443C9000C43DC6430BD0040044009
:103A500030B5039C049D2402AD022C43DB011C43C2
:103A600004435201024B1443C9000C431C6530BD92
:103A70000040044030B5039C049D2402AD022C4359
:103A8000DB011C4304435201024B1443C9000C43A5
:103A90001C6630BD0040044030B5039C049D2402E8
:103AA000AD022C43DB011C4304435201024B14437F
:103AB000C9000C435C6630BD0040044030B5039C37
:103AC000049D2402AD022C43DB011C43044352013C
:103AD000024B1443C9000C435C6730BD00400440F6
:103AE00030B5039C049D2402AD022C43DB011C4332
:103AF00004435201024B1443C9000C439C6730BD80
:103B00000040044030B5039C049D2402AD022C43C8
:103B1000DB011C4304435201024B1443C9000C4314
:103B2000DC6730BD0040044030B5039C049D240296
:103B3000AD022C43DB011C43802304435201144398
:103B4000C900024A0C43D45030BDC0460040044076
:103B500030B5039C049D2402AD022C43DB011C43C1
:103B60009423044352011443C900024A0C43D45025
:103B700030BDC0460040044030B5039C049D240283
:103B8000AD022C43DB011C43A02304435201144328
:103B9000C900024A0C43D45030BDC0460040044026
:103BA00030B5039C049D2402AD022C43DB011C4371
:103BB000A423044352011443C900024A0C43D450C5
:103BC00030BDC0460040044030B5039C049D240233
:103BD000AD022C43DB011C43A823044352011443D0
:103BE000C900024A0C43D45030BDC04600400440D6
:103BF00030B5039C049D2402AD022C43DB011C4321
:103C000004435201024B1443C9000C435C6130BDB4
:103C10000040044030B5039C049D2402AD022C43B7
:103C2000DB011C4304435201024B1443C9000C4303
:103C3000DC6630BD0040044030B5039C049D240286
:103C4000AD022C43DB011C4398230443520114436F
:103C5000C900024A0C43D45030BDC0460040044065
:103C600030B5039C049D2402AD022C43DB011C43B0
:103C700004435201024B1443C9000C439C6030BD05
:103C80000040044030B5039C049D2402AD022C4347
:103C9000DB011C4304435201024B1443C9000C4393
:103CA0009C6230BD0040044030B5039C049D24025A
:103CB000AD022C43DB011C4304435201024B14436D
:103CC000C9000C43DC6530BD0040044030B5039CA6
:103CD000049D2402AD022C43DB011C438C230443CE
:103CE00052011443C900024A0C43D45030BDC046AF
:103CF0000040044030B5039C049D2402AD022C43D7
:103D0000DB011C4304435201024B1443C9000C4322
:103D10001C6030BD0040044030B5039C049D24026B
:103D2000AD022C43DB011C4304435201024B1443FC
:103D3000C9000C431C6230BD0040044030B5039CF8
:103D4000049D2402AD022C43DB011C4304435201B9
:103D5000024B1443C9000C435C6230BD0040044078
:103D600030B5039C049D2402AD022C43DB011C43AF
:103D700004435201024B1443C9000C439C6530BDFF
:103D80000040044030B5039C049D2402AD022C4346
:103D9000DB011C4304435201024B1443C9000C4392
:103DA0001C6730BD0040044030B5039C049D2402D4
:103DB000AD022C43DB011C43842304435201144312
:103DC000C900024A0C43D45030BDC04600400440F4
:103DD00030B5039C049D2402AD022C43DB011C433F
:103DE0008823044352011443C900024A0C43D450AF
:103DF00030BDC0460040044030B5039C049D240201
:103E0000AD022C43DB011C439C23044352011443A9
:103E1000C900024A0C43D45030BDC04600400440A3
:103E200030B5039C049D2402AD022C43DB011C43EE
:103E3000AC23044352011443C900024A0C43D4503A
:103E400030BDC04600400440084A03001068002806
:103E500008D00749C3188B4201D81360704701206E
:103E60004042FBE703481060F3E7C0461C0A00101D
:103E7000700B0010700D0010012040427047C046CA
:103E800080239B0100204B607047C0460120704793
:103E9000002070470020704710007047FEE7C046C2
:103EA00010B500F047F9162303600120404210BD11
:103EB00001207047072010B5FFF71CF9064BC0B270
:103EC0001A78012A01D0187010BD0028FBD10349CF
:103ED0000A7801320A70F6E708000010200A001084
:103EE000F8B50520FFF714F9C6B20820FFF710F95E
:103EF0000A2507000520FFF70BF9013D0400082003
:103F0000FFF706F9002DF5D1E4B2A64203D1FFB2C6
:103F1000C0B2874203D00520FFF7DCF9F8BD054B9E
:103F200059684A1EBE4201D05A60F4E74A1C5A60E2
:103F3000F1E7C046200A001070B50A48FFF7B6FB4B
:103F4000094D0A4C69682000FFF7B0FB0848FFF7ED
:103F5000ADFB29782000FFF7A9FB0648FFF7A6FB79
:103F600070BDC046044A0000200A0010144A000038
:103F7000184A0000244A0000002243088B4274D3F0
:103F800003098B425FD3030A8B4244D3030B8B425A
:103F900028D3030C8B420DD3FF22090212BA030C63
:103FA0008B4202D31212090265D0030B8B4219D344
:103FB00000E0090AC30B8B4201D3CB03C01A524164
:103FC000830B8B4201D38B03C01A5241430B8B42AC
:103FD00001D34B03C01A5241030B8B4201D30B0395
:103FE000C01A5241C30A8B4201D3CB02C01A5241BC
:103FF000830A8B4201D38B02C01A5241430A8B427F
:1040000001D34B02C01A5241030A8B4201D30B0267
:10401000C01A5241CDD2C3098B4201D3CB01C01A81
:10402000524183098B4201D38B01C01A524143098B
:104030008B4201D34B01C01A524103098B4201D379
:104040000B01C01A5241C3088B4201D3CB00C01AE6
:10405000524183088B4201D38B00C01A524143085E
:104060008B4201D34B00C01A5241411A00D2014683
:10407000524110467047FFE701B5002000F006F8F6
:1040800002BDC0460029F7D076E770477047C046AA
:1040900070B50600140008001A009AB0002C05DA6A
:1040A0008B230120336040421AB070BD82236946E1
:1040B00000259B008B81199500900490AC4200D0A4
:1040C000651E01235B42CB8130001E9B8D604D61DC
:1040D00000F0A2F9431C01DA8B233360002CE3D0FB
:1040E0000022009B1A70DFE713B5044C0093130005
:1040F0000A0001002068FFF7CBFF16BD0C0000107E
:1041000010B5884202D98B18984208D300239A42EE
:1041100007D0CC5CC4540133F9E78B5C8354013A7B
:10412000FBD210BD03008218934200D17047197072
:104130000133F9E7014B18687047C0460C000010C6
:1041400070477047002310B59A4200D110BDCC5C77
:10415000C4540133F8E7000070B505000C1E10D000
:10416000043C2368002B00DAE418280000F0E0F893
:104170001D4A1368002B05D163601460280000F00D
:10418000DFF870BDA34208D9206821188B42F3D113
:1041900019685B6809182160EEE71A005B68002B5C
:1041A00001D0A342F9D911685018A0420BD1206860
:1041B0000918501811608342E0D118685B684118F3
:1041C00011605360DAE7A04202D90C232B60D5E7D7
:1041D000206821188B4203D119685B680918216097
:1041E00063605460CAE7C0466C0B001070B50F4E98
:1041F0000D0031680400002902D100F08DFB306011
:104200002900200000F088FB431C03D101256D42EA
:10421000280070BD0323C51C9D43A842F8D0291A6D
:10422000200000F079FB0130F2D1EFE7680B0010BD
:10423000F7B50322CB1C9343083305001F000C2B5A
:1042400034D20C27B94233D8280000F071F8374E29
:1042500033681C00002C2FD139002800FFF7C6FF5F
:104260000400431C5FD134680094009B002B4AD1AA
:10427000002C52D023682800E3180099019300F025
:104280004BFB019B834248D123682800FF1A390069
:10429000FFF7ACFF013040D02368DB19236033689F
:1042A0005A68002A33D1009B336019E0002BC9DA29
:1042B0000C232B600020FEBD2168C91B20D40B29D4
:1042C0000AD9E2192760A34204D132606368116001
:1042D000536005E05A60F9E76268A3420ED132608C
:1042E000280000F02DF8200007220B30231D9043FA
:1042F000C21A9842DFD01B1AA350DCE75A60EFE7DE
:1043000023006468A6E7009C63680093ADE71A0089
:104310005B68A342FBD10023DAE70C2328002B6063
:1043200000F00EF8C6E70760DAE7C0466C0B001035
:1043300010B50248FFF704FF10BDC046640B001023
:1043400010B50248FFF7FDFE10BDC046640B00101B
:10435000F0B58E6885B01F000C0033000290039208
:10436000BE4254D80C22885E9022D20010422CD03B
:104370000322096923685B1A019363695343019A15
:10438000DD0FED187B1C6D109B182A00AB4201D984
:104390001D001A00400527D511000298FFF748FFBD
:1043A000061E2AD0019A2169FFF7CCFEA289194B7B
:1043B0001A4080231343A381019B2661F6182660CF
:1043C00065613E00ED1A3B00A5601F003A000399AD
:1043D0002068FFF795FE0020A3689B1BA36023685D
:1043E000DB19236005B0F0BD029800F0B2FA061E9A
:1043F000E2D121690298FFF7AFFE0C230120029A57
:1044000040421360A28934331343A381EAE73E009C
:10441000DCE7C0467FFBFFFFF0B59FB002901C00B9
:104420008B890E0015001B0611D50B69002B0ED1D0
:104430004021FFF7FDFE30603061002805D10C23DC
:10444000029A136001204042D4E0402373610023AC
:10445000292102AA52180B9320331370013102AAAA
:1044600010335218137005942C002378002B01D0C0
:10447000252B48D1671BAC420BD03B002A003100F2
:104480000298FFF765FF013000D1AEE00B9BDB190E
:104490000B932378002B00D1A7E0012253210023A6
:1044A0005242079202AA5218651C06930993089378
:1044B00013701C93554F29780522380000F03EFAFE
:1044C0006C1C069906AB00281FD1CA0604D55327D9
:1044D000202202A8C01902700A0704D553272B22F4
:1044E00002A8C01902702A782A2A15D02C000020B0
:1044F0000A27DA682178651C3039092950D9002843
:1045000011D009920FE00134AFE70123C01B8340B3
:104510000B4325000693CDE7059A101D1268059000
:10452000002A37DBDA6022782E2A0CD162782A2A18
:104530003BD1059A0234111D12680591002A01DA57
:10454000012252425A60324D03222800217800F0A5
:10455000F5F906AF002806D04023401B8340069A99
:10456000013413430693217806222A48651C3976C4
:1045700000F0E4F900283FD0274B002B29D1072277
:10458000059B07339343083305930B9B03995B18F3
:104590000B9369E75242DA6002220A430692C2E7AD
:1045A0007A432C0001205218A4E700220A205A6006
:1045B0001100130001342278651C303A092A03D90E
:1045C000002BC0D00791BEE741432C00012389187E
:1045D000F1E705AA009239003200104B029800E082
:1045E00000BF0390039B0133CFD1B3890B985B06C7
:1045F00000D527E71FB0F0BD05AA009239003200B0
:10460000064B029800F07CF8EBE7C046B84A000081
:10461000BE4A0000C24A00000000000051430000F2
:10462000F7B5160001938A680B690C00009093425D
:1046300000DA13002200336043321278002A01D0DE
:104640000133336023689B0602D53368023333603D
:104650002268062315001D401A4227D02300433349
:104660001B785A1E93412268920630D42200019989
:104670000098089D4332A847013025D006222368C0
:1046800000251340042B05D13368E568ED1AEB4390
:10469000DB171D40A3682269934201DD9B1AED18C8
:1046A0000026B54220D1002010E00135E3683268D1
:1046B0009B1AAB42D2DD2200012301990098089F8A
:1046C0001932B8470130F0D101204042FEBD302000
:1046D000E1184331087021005A1C45310978A218AD
:1046E000433202331170C1E722000123019900987F
:1046F000089F1A32B8470130E6D00136D1E70000F2
:10470000F0B58BB006920A004332079305900392EE
:104710000A7E0C00109B782A09D8622A0BD8002A3E
:1047200000D1BAE07A490491582A00D18EE02500E0
:1047300042352A7022E0100063381528F7D800F0BF
:1047400041F916001F00F6FFF6FFF6FFF6FF1F0007
:10475000F6FFF6FFF6FFF6FF9F0036007E00F6FF3D
:10476000F6FFB000F6FF3600F6FFF6FF82002500E8
:104770001A684235111D196013682B7001239EE0E1
:1047800018680968021D0D060BD506681A60002E10
:1047900003DA2D23039A764213705D4B0A270493A4
:1047A00018E006681A604906F1D536B2EFE70868E6
:1047B000196840C9050602D4400600D5B6B2196092
:1047C000534B0A2704936F2A00D1023F2300002293
:1047D00043331A706368A360002B06DB0421226850
:1047E000039D8A43226033430CD0039D300039007F
:1047F000FFF748FC049B013D5B5C2B703300060017
:104800009F42F3D9082F09D12368DB0706D56268D8
:1048100023699A4202DC3023013D2B70039B5B1B12
:104820002361079B210000930598069B09AAFFF7C7
:10483000F7FE013048D1012040420BB0F0BD2022EC
:1048400009680A43226078223249049121004531E7
:104850000A701968226840C9100602D4500600D5B3
:10486000B6B21960D30702D5202313432360002E6C
:1048700001D01027AAE72022236893432360F8E79A
:104880001A680D68101D4969186013682E0601D555
:10489000196002E06D06FBD519800023039D23619A
:1048A000BFE71A68111D19601568002128006268A9
:1048B00000F044F8002801D0401B60606368236169
:1048C0000023039A1370ACE72A0023690699059820
:1048D000079DA8470130AED023689B0715D4099BDC
:1048E000E0689842A9DA1800A7E722000123069998
:1048F0000598079E1932B04701309CD00135E36816
:10490000099A9B1AAB42F0DCE9E70025F7E7C046BD
:10491000C94A0000DA4A0000002370B5064D0400C1
:1049200008002B60FFF790FA431C03D12B68002B83
:1049300000D0236070BDC046600B0010C9B2821861
:10494000904201D10020704703788B42FBD00130A8
:10495000F6E7F7B506000C001500002905D1110097
:10496000FFF766FC04002000FEBD002A03D1FFF71C
:10497000F3FB2C00F7E700F01CF80700854202D893
:104980004308AB42EFD329003000FFF751FC019000
:10499000002801D1019CE6E72A00BD4200D93A0077
:1049A00021000198FFF7CEFB21003000FFF7D4FB78
:1049B000F0E70B1F1B68181F002B01DA0B58C018FB
:1049C0007047000003B47146490840004900095E81
:1049D00049008E4403BC7047F8B5C046F8B5C046E0
:1049E0004D61696E5461736B0000000049444C4591
:1049F00000000000546D725100000000546D7220E0
:104A0000537663000D526F746172793A436E743D50
:104A10000000000025640000207C20436C69636B6B
:104A2000733D0000202020003C120000AA1200006C
:104A30009A1200003A120000A21200002613000091
:104A4000541300004C130000241300004413000012
:104A500004000000F8220000702300007023000012
:104A6000DA230000E8230000122400007023000075
:104A700070230000DA230000E823000020A10700D3
:104A800000350C00E0C81000C05C1500006A18007A
:104A900040771B0080841E00C0912100009F2400ED
:104AA00040AC2700E032290020402C00604D2F0050
:104AB00000D4300040E13300232D302B2000686CFF
:104AC0004C00656667454647003031323334353631
:104AD000373839414243444546003031323334356A
:0C4AE00036373839616263646566000097
:104AEC00AAAAAAAA006CDC020100000010000010A7
:104AFC0000000000280A0010900A0010F80A0010AC
:104B0C000000000000000000000000000000000099
:104B1C000000000000000000000000000000000089
:104B2C000000000000000000000000000000000079
:0C4B3C000000000000000000000000006D
:00000001FF
