:1000000000200010E5050000E1050000E10500000A
:1000100000000000000000000000000000000000E0
:10002000000000000000000000000000E1050000EA
:100030000000000000000000E1050000E1050000F4
:10004000E1050000E1050000E1050000E105000018
:10005000E1050000E1050000E1050000E105000008
:10006000E1050000E1050000E1050000E1050000F8
:10007000E105000011040000E1050000E1050000B9
:10008000E1050000E1050000E1050000E1050000D8
:10009000E1050000E1050000E1050000E1050000C8
:1000A000E1050000E1050000E1050000E1050000B8
:1000B000E1050000E1050000E1050000E1050000A8
:1000C000FA2384B01B0101900293019B5A1E0192F6
:1000D000002B11D0029B0393039B5A1E0392002B0B
:1000E000F3D0C046039B5A1E0392002BF9D1019B0B
:1000F0005A1E0192002BEDD104B0704700B583B0B9
:1001000000F010FB00230022012100200193009346
:1001100000F022FC03B000BD10B5FFF7EFFFFEE7D3
:10012000014B18687047C04604000010014B586826
:100130007047C046040000100121024A13688B4337
:1001400013607047000005400122014B1A607047A0
:1001500004000010B222284B52009958043A9B58D0
:10016000090470B5194345D51F2301251C00013B27
:100170003ED32A009A401142F8D1F3220F211E4BA0
:100180005A62027B1140D42252010A439A63417B96
:10019000026800291CD1194D92002A408025ED01EA
:1001A00015439962DD621963A02109020A435A636B
:1001B00080218388104A0902D363C38813640389AA
:1001C0005364438993641462136A0B42FCD170BD7B
:1001D00080251104120CD604F60C2D02090C3543AF
:1001E0009962DD621963E02109020A435A63DFE77D
:1001F0000024C2E72024C0E700000540FC1F0000E7
:10020000B222284B52009958043A9B58090430B541
:10021000194345D51F2301251C00013B3ED32A006D
:100220009A401142F8D1B7230F211E4A5362037B33
:10023000194098231B010B439363417B03680029FA
:1002400023D1116318499B000B40A02109020B43E5
:1002500053638288134BDA63C2881A6402895A6432
:1002600042899A64827B012A07D103215A6A8A4310
:100270005A625A6B0D490A405A638021094A0902A1
:100280001462136A0B42FCD130BD1904090C1163CE
:10029000E0211B0C09020B435363DAE70024C2E799
:1002A0002024C0E700000540FC1F0000FFDFFFFF27
:1002B00070B5802580242F4A2D0213592B42FCD182
:1002C00084237F25D550105180228026294C12028C
:1002D000A3591D0015401342FAD19822A3581B05BB
:1002E0001FD50121244B19608423F231E150A55020
:1002F00080220433E5500433E5500433E5500433E1
:10030000E5500833E5500433E5500433E550043339
:10031000E550A05117487339120243581342FCD1DB
:1003200070BD9422A3585B041BD4A3580022DB04A5
:100330005B0D4A7398220B600E4B9858893A024025
:100340000A739C229A588A80A0229A58CA80A422B2
:100350009A580A81A8229B58A73A4B81064B5A60AB
:10036000DEE7A3580548043AA2581B040340134390
:100370000122DEE700000540040000100000FF1F1E
:10038000B222204B520070B59C58043A9B5824046A
:100390001C43DB0734D5002301261D000133202B2D
:1003A0002CD032009A401442F7D10235F022154B7E
:1003B0005A62154A9A63002911D1144A80001040EC
:1003C0008022120202439962D86219635A63802123
:1003D0000C4A09021562136A0B42FCD170BD8021E0
:1003E0000204C000C00C0902120C01439A62D962D7
:1003F0001A63C022120202435A63E8E70025D5E7D8
:100400000125D3E7000005408F140000FC1F000009
:1004100000B5144A83B013690093009B002B09D0E8
:10042000802109028B4207D000984004400C431EF3
:100430001F2B13D903B000BD536801930823019902
:100440000B4202D05168994351601023019A134224
:10045000F0D004494A689A434A60EBE70249FFF743
:1004600027FFE7E7000005400C0000100821234BA0
:1004700070B55A6880240A435A60802278315858EF
:10048000920202435A501E4B1E49186800F04EFC5F
:10049000C02240211C4B520001389850803AFF3A4C
:1004A0001A601A68F3260A431A601A6824028A43FB
:1004B00080211A60154A8901116000210022013152
:1004C0005E629A639A62DA621A635A63DA631A6442
:1004D0005A649A641962186A050025402042FAD1CC
:1004E0002029ECD15D601A680E310A431A601A683F
:1004F0002D398A431A60064B196070BD0080044094
:100500000000001000127A000000054000E100E049
:1005100004000010F8B5040018000F4B9C61002A7D
:1005200008D01F00002418370E5DE51901342E7124
:100530009442F9DB24215A54252298540022023196
:100540005A541968002900D1F8BD1A6018331800F0
:10055000FFF756FEF8E7C04604000010F8B50E4F4E
:10056000B862002A08D03E00002028360D5C8419AD
:10057000013025719042F9DB3800283043730123A4
:1005800083733B680273002B00D1F8BD00233B60EE
:10059000FFF7E0FDF9E7C046040000100A4910B576
:1005A0004B68002B0ED000234B608B6803608B8A56
:1005B0000A7D83818B7D8373002A03D00C31043044
:1005C00000F040FC10BDC046040000108021034B29
:1005D0001A680A431A6010225A61704700000540E9
:1005E000FEE7C0460848094B10B5984207D2013BC8
:1005F0001A1A920801320649920000F07BFC00F0C2
:1006000053F8FFF789FDFEE700000010040000101A
:10061000C40F0000204B00205B6A10B5DB051B0FE8
:10062000013B0E2B02D81D4A9B00985803241A4AFE
:10063000516A136F2340022B25D0032B0ED0012BC0
:1006400004D1136C1C40023C012C23D91448124BDA
:10065000144C996F00F06AFB206010BD116C0B40C8
:10066000012B03D0023B0020012BF0D9C02391685D
:100670005B001942EAD19268623BFF3B0848134095
:1006800001335843E3E73E2349001940023100F0AB
:100690004DFBDCE70020DAE700800440880F000013
:1006A000001BB700000000108E2120201C4B890089
:1006B0005A5882B082435A5000221A620192019B1A
:1006C000C72B06D8C046019B01330193019BC72B62
:1006D000F8D901230021124A13645364516453640E
:1006E0000131536C1942FCD023238E21802093606A
:1006F00089005358834353500121094AD368194252
:10070000FCD003231367002351675367516701210E
:10071000034A536F1942FCD0916702B07047C0463C
:10072000008004408022802302495B0288580343F2
:100730008B507047008004408022402002498B5833
:1007400003438B507047C0460080044080228023C2
:1007500002499B01885803438B5070470080044036
:100760008022802302499B00885803438B507047A6
:1007700000800440802280230249DB008858034324
:100780008B5070470080044080230249CA581A43A6
:10079000CA507047008004408022802302491B0118
:1007A000885803438B5070470080044080222020EB
:1007B00002498B5803438B507047C0460080044069
:1007C0008022802302495B01885803438B50704785
:1007D000008004408022802302499B028858034302
:1007E0008B507047008004408022802302491B0206
:1007F000885803438B507047008004409823014A77
:10080000D0507047008004409423014AD050704774
:10081000008004400121024A53680B435360704733
:10082000008004400221024A53680B435360704722
:10083000008004408E221020024992008B5883438E
:100840008B507047008004408E2240200249920065
:100850008B5883438B5070470080044030B5039C15
:10086000049D2402AD022C43DB011C4304435201CE
:10087000024B1443C9000C431C6130BD00400440CE
:1008800030B5039C049D2402AD022C43DB011C43C4
:1008900004435201024B1443C9000C43DC6130BDD8
:1008A0000040044030B5039C049D2402AD022C435B
:1008B000DB011C4304435201024B1443C9000C43A7
:1008C000DC6230BD0040044030B5039C049D24022E
:1008D000AD022C43DB011C4304435201024B144381
:1008E000C9000C431C6330BD0040044030B5039C7C
:1008F000049D2402AD022C43DB011C43044352013E
:10090000024B1443C9000C435C6330BD00400440FB
:1009100030B5039C049D2402AD022C43DB011C4333
:1009200004435201024B1443C9000C43DC6430BD44
:100930000040044030B5039C049D2402AD022C43CA
:10094000DB011C4304435201024B1443C9000C4316
:100950001C6530BD0040044030B5039C049D24025A
:10096000AD022C43DB011C4304435201024B1443F0
:10097000C9000C431C6630BD0040044030B5039CE8
:10098000049D2402AD022C43DB011C4304435201AD
:10099000024B1443C9000C435C6630BD0040044068
:1009A00030B5039C049D2402AD022C43DB011C43A3
:1009B00004435201024B1443C9000C435C6730BD31
:1009C0000040044030B5039C049D2402AD022C433A
:1009D000DB011C4304435201024B1443C9000C4386
:1009E0009C6730BD0040044030B5039C049D240248
:1009F000AD022C43DB011C4304435201024B144360
:100A0000C9000C43DC6730BD0040044030B5039C96
:100A1000049D2402AD022C43DB011C4380230443CC
:100A200052011443C900024A0C43D45030BDC046A1
:100A30000040044030B5039C049D2402AD022C43C9
:100A4000DB011C439423044352011443C900024AAE
:100A50000C43D45030BDC0460040044030B5039C28
:100A6000049D2402AD022C43DB011C43A02304435C
:100A700052011443C900024A0C43D45030BDC04651
:100A80000040044030B5039C049D2402AD022C4379
:100A9000DB011C43A423044352011443C900024A4E
:100AA0000C43D45030BDC0460040044030B5039CD8
:100AB000049D2402AD022C43DB011C43A823044304
:100AC00052011443C900024A0C43D45030BDC04601
:100AD0000040044030B5039C049D2402AD022C4329
:100AE000DB011C4304435201024B1443C9000C4375
:100AF0005C6130BD0040044030B5039C049D24027D
:100B0000AD022C43DB011C4304435201024B14434E
:100B1000C9000C43DC6630BD0040044030B5039C86
:100B2000049D2402AD022C43DB011C4398230443A3
:100B300052011443C900024A0C43D45030BDC04690
:100B40000040044030B5039C049D2402AD022C43B8
:100B5000DB011C4304435201024B1443C9000C4304
:100B60009C6030BD0040044030B5039C049D2402CD
:100B7000AD022C43DB011C4304435201024B1443DE
:100B8000C9000C439C6230BD0040044030B5039C5A
:100B9000049D2402AD022C43DB011C43044352019B
:100BA000024B1443C9000C43DC6530BD00400440D7
:100BB00030B5039C049D2402AD022C43DB011C4391
:100BC0008C23044352011443C900024A0C43D450FD
:100BD00030BDC0460040044030B5039C049D240253
:100BE000AD022C43DB011C4304435201024B14436E
:100BF000C9000C431C6030BD0040044030B5039C6C
:100C0000049D2402AD022C43DB011C43044352012A
:100C1000024B1443C9000C431C6230BD0040044029
:100C200030B5039C049D2402AD022C43DB011C4320
:100C300004435201024B1443C9000C435C6230BDB3
:100C40000040044030B5039C049D2402AD022C43B7
:100C5000DB011C4304435201024B1443C9000C4303
:100C60009C6530BD0040044030B5039C049D2402C7
:100C7000AD022C43DB011C4304435201024B1443DD
:100C8000C9000C431C6730BD0040044030B5039CD4
:100C9000049D2402AD022C43DB011C438423044346
:100CA00052011443C900024A0C43D45030BDC0461F
:100CB0000040044030B5039C049D2402AD022C4347
:100CC000DB011C438823044352011443C900024A38
:100CD0000C43D45030BDC0460040044030B5039CA6
:100CE000049D2402AD022C43DB011C439C230443DE
:100CF00052011443C900024A0C43D45030BDC046CF
:100D00000040044030B5039C049D2402AD022C43F6
:100D1000DB011C43AC23044352011443C900024AC3
:100D20000C43D45030BDC04600400440002243086C
:100D30008B4274D303098B425FD3030A8B4244D3A3
:100D4000030B8B4228D3030C8B420DD3FF220902E5
:100D500012BA030C8B4202D31212090265D0030BA4
:100D60008B4219D300E0090AC30B8B4201D3CB039A
:100D7000C01A5241830B8B4201D38B03C01A5241DC
:100D8000430B8B4201D34B03C01A5241030B8B42DE
:100D900001D30B03C01A5241C30A8B4201D3CB02C9
:100DA000C01A5241830A8B4201D38B02C01A5241AE
:100DB000430A8B4201D34B02C01A5241030A8B42B1
:100DC00001D30B02C01A5241CDD2C3098B4201D3C9
:100DD000CB01C01A524183098B4201D38B01C01A47
:100DE000524143098B4201D34B01C01A52410309BE
:100DF0008B4201D30B01C01A5241C3088B4201D36D
:100E0000CB00C01A524183088B4201D38B00C01A19
:100E1000524143088B4201D34B00C01A5241411A40
:100E200000D20146524110467047FFE701B500204D
:100E300000F006F802BDC0460029F7D076E77047FB
:100E40007047C046F0B588420AD98B18984207D23D
:100E5000531E002A03D0CA5CC254013BFBD2F0BD32
:100E600005000F2A0AD8561E002AF8D00023CC5CB1
:100E70001A00EC5401339642F9D1F0E703273E0003
:100E80000D430C0003002E402F422DD11500103DC4
:100E90002D09AC462F013F1825681D6065685D600F
:100EA000A5689D60E5681034DD601D001033BD420B
:100EB000F2D165460F230C2401352D014919134049
:100EC0004519144213D0043B9B0801339B008C59F5
:100ED000AC5104369E42FAD103231A40AD19891948
:100EE000561E002AC2D1BAE70500561EBEE71A00F8
:100EF000B9E7C046F0B505000F2A31D903273E00F7
:100F00000D430C0003002E402F4234D11500103D3C
:100F10002D09AC462F013F1865685D60A5689D608E
:100F2000E568DD60256810341D601D001033BD428A
:100F3000F2D165460F230C2401352D0149191340C8
:100F4000451914421AD0043B9B0801339B008C596D
:100F5000AC5104369E42FAD10323AD1989191A40C7
:100F6000561E002A06D00023CC5C1A00EC54013334
:100F70009642F9D1F0BD0500561EF4E71A00EFE7DE
:100F8000F8B5C046F8B5C04620A1070000350C00F2
:100F9000E0C81000C05C1500006A180040771B0014
:100FA00080841E00C0912100009F240040AC2700D7
:100FB000E032290020402C00604D2F0000D430008A
:040FC00040E13300D9
:040FC400006CDC02DF
:00000001FF
