:1000000000200010790D0000750D0000750D000036
:1000100000000000000000000000000000000000E0
:10002000000000000000000000000000750D00004E
:100030000000000000000000750D000041010000FC
:10004000750D0000750D0000750D0000750D0000A8
:10005000750D0000750D0000750D0000750D000098
:10006000750D0000750D0000750D0000750D000088
:10007000750D0000D9040000750D0000750D00001D
:10008000750D0000750D0000750D0000750D000068
:10009000750D0000750D0000750D0000750D000058
:1000A000750D0000750D0000750D0000750D000048
:1000B000750D0000110D000021170000750D0000E6
:1000C0007047C0467047C0467047C0467047C0463C
:1000D00010B500F075F800F003F830BFFDE7C0463A
:1000E0000122FA21124B10B51A8001325A800332D4
:1000F0009A800532DA800F4B8900186801F05CFBAA
:10010000830018188023400001385B0498420DD208
:10011000C021094A090650600848036A1B021B0AED
:100120000B430362002393600733136010BDC04686
:10013000000000100800001010E000E000ED00E0FA
:1001400010B51E4C2388013B9BB22380002B12D09C
:100150006388013B9BB26380002B16D0A388013BD0
:100160009BB2A380002B1AD0E388013B9BB2E380B3
:10017000002B1ED010BD01332380FFF7A1FF638841
:10018000013B9BB26380002BE8D102336380FFF711
:1001900099FFA388013B9BB2A380002BE4D10533D8
:1001A000A380FFF791FFE388013B9BB2E380002B24
:1001B000E0D10A33E380FFF789FFDBE7000000109E
:1001C00000B583B000F078FE00F080FE002300222E
:1001D000019300930121002000F090FF01210820ED
:1001E00000F000FC03B000BD014B18687047C0462A
:1001F00010000010014B58687047C04610000010F6
:100200000121024A13688B431360704700000540C8
:100210000122014B1A60704710000010B222284BD7
:1002200052009958043A9B58090470B5194345D5B2
:100230001F2301251C00013B3ED32A009A40114296
:10024000F8D1F3220F211E4B5A62027B1140D422B7
:1002500052010A439A63417B026800291CD1194D5F
:1002600092002A408025ED0115439962DD621963F1
:10027000A02109020A435A6380218388104A090297
:10028000D363C388136403895364438993641462FA
:10029000136A0B42FCD170BD80251104120CD604E8
:1002A000F60C2D02090C35439962DD621963E021D9
:1002B00009020A435A63DFE70024C2E72024C0E7AB
:1002C00000000540FC1F0000B222284B5200995844
:1002D000043A9B58090430B5194345D51F2301251D
:1002E0001C00013B3ED32A009A401142F8D1B723AB
:1002F0000F211E4A5362037B194098231B010B43B5
:100300009363417B0368002923D1116318499B0043
:100310000B40A02109020B4353638288134BDA631D
:10032000C2881A6402895A6442899A64827B012ACB
:1003300007D103215A6A8A435A625A6B0D490A400F
:100340005A638021094A09021462136A0B42FCD1E4
:1003500030BD1904090C1163E0211B0C09020B4389
:100360005363DAE70024C2E72024C0E70000054019
:10037000FC1F0000FFDFFFFF70B5802580242F4A9F
:100380002D0213592B42FCD184237F25D5501051C7
:1003900080228026294C1202A3591D0015401342C9
:1003A000FAD19822A3581B051FD50121244B1960AF
:1003B0008423F231E150A55080220433E550043308
:1003C000E5500433E5500433E5500833E550043379
:1003D000E5500433E5500433E550A0511748733914
:1003E000120243581342FCD170BD9422A3585B04FF
:1003F0001BD4A3580022DB045B0D4A7398220B60C8
:100400000E4B9858893A02400A739C229A588A8067
:10041000A0229A58CA80A4229A580A81A8229B58DE
:10042000A73A4B81064B5A60DEE7A3580548043AC9
:10043000A2581B04034013430122DEE700000540DD
:10044000100000100000FF1FB222204B520070B5B8
:100450009C58043A9B5824041C43DB0734D50023E2
:1004600001261D000133202B2CD032009A4014426B
:10047000F7D10235F022154B5A62154A9A630029CA
:1004800011D1144A80001040802212020243996266
:10049000D86219635A6380210C4A09021562136AF3
:1004A0000B42FCD170BD80210204C000C00C0902C7
:1004B000120C01439A62D9621A63C02212020243EB
:1004C0005A63E8E70025D5E70125D3E7000005409A
:1004D0008F140000FC1F000000B5144A83B013699C
:1004E0000093009B002B09D0802109028B4207D08A
:1004F00000984004400C431E1F2B13D903B000BDCD
:1005000053680193082301990B4202D05168994323
:1005100051601023019A1342F0D004494A689A436B
:100520004A60EBE70249FFF727FFE7E700000540D5
:10053000180000100821234B70B55A6880240A4324
:100540005A60802278315858920202435A501E4B0A
:100550001E49186801F030F9C02240211C4B52009E
:1005600001389850803AFF3A1A601A68F3260A4315
:100570001A601A6824028A4380211A60154A890188
:1005800011600021002201315E629A639A62DA6290
:100590001A635A63DA631A645A649A641962186AAD
:1005A000050025402042FAD12029ECD15D601A686F
:1005B0000E310A431A601A682D398A431A60064BB5
:1005C000196070BD008004400800001000127A001D
:1005D0000000054000E100E010000010F8B5040044
:1005E00018000F4B9C61002A08D01F000024183708
:1005F0000E5DE51901342E719442F9DB24215A5421
:1006000025229854002202315A541968002900D139
:10061000F8BD1A6018331800FFF756FEF8E7C04619
:1006200010000010F8B50E4FB862002A08D03E0046
:10063000002028360D5C8419013025719042F9DBC9
:10064000380028304373012383733B680273002B07
:1006500000D1F8BD00233B60FFF7E0FDF9E7C0469D
:10066000100000100A4910B54B68002B0ED0002373
:100670004B608B6803608B8A0A7D83818B7D8373DB
:10068000002A03D00C31043001F00CFA10BDC04632
:10069000100000108021034B1A680A431A601022D0
:1006A0005A6170470000054010B5012915D0022994
:1006B0000AD0002907D10122A02482400B49E40579
:1006C00063589343635010BD0123A0218340074A20
:1006D000C9058C5863408B50F5E7A0228140034B3D
:1006E000D205D4582143D150EDE7C046FC3F00006D
:1006F00010B5012913D0022909D0002906D1012201
:1007000082400A4C0A4963589343635010BD012349
:1007100083400649064A8C5863408B50F6E7814077
:10072000024A034BD4582143D150EFE70000015057
:10073000FC3F000010B5012913D0022909D000297F
:1007400006D1012282400A4C0A4963589343635000
:1007500010BD012383400649064A8C5863408B50E4
:10076000F6E78140024A034BD4582143D150EFE7CA
:1007700000000250FC3F000010B5012913D00229EF
:1007800009D0002906D1012282400A4C0A49635847
:100790009343635010BD012383400649064A8C5899
:1007A00063408B50F6E78140024A034BD458214303
:1007B000D150EFE700000350FC3F0000A022054BA2
:1007C000D205D3580122824013401800431E98419D
:1007D0007047C046FC3F0000044A054BD358012235
:1007E000824013401800431E98417047000001509A
:1007F000FC3F0000044A054BD358012282401340BD
:100800001800431E9841704700000250FC3F000052
:10081000044A054BD3580122824013401800431E5E
:100820009841704700000350FC3F000030B50F2492
:10083000A022800084408140034DD2055359A34338
:100840000B43535130BDC046FC3F000030B50F2470
:10085000800084408140034D034A5359A3430B4316
:10086000535130BDFC3F00000000015030B50F2453
:10087000800084408140034D034A5359A3430B43F6
:10088000535130BDFC3F00000000025030B50F2432
:10089000800084408140034D034A5359A3430B43D6
:1008A000535130BDFC3F000000000350012210B541
:1008B000A02482400249E40563589343635010BD6D
:1008C000108000000122824010B50349034C635898
:1008D0009343635010BDC0461080000000000150DB
:1008E0000122824010B50349034C6358934363507F
:1008F00010BDC0461080000000000250012282405E
:1009000010B50349034C63589343635010BDC04670
:1009100010800000000003500123A021834010B587
:10092000024AC9058C5823438B5010BD108000002B
:100930000123834010B50349034A8C5823438B504D
:1009400010BDC0460000015010800000012383400C
:1009500010B50349034A8C5823438B5010BDC04641
:1009600000000250108000000123834010B50349AD
:10097000034A8C5823438B5010BDC04600000350DF
:10098000108000000123A0218340034AC9058B5039
:10099000C046C0467047C0461C800000012383400B
:1009A0000249034A8B50C046C046704700000150C0
:1009B0001C800000012383400249034A8B50C0463B
:1009C000C0467047000002501C8000000123834095
:1009D0000249034A8B50C046C0467047000003508E
:1009E0001C80000010B500290BD0012900D010BDDB
:1009F000A02280238140D2051B02D4582143D1502C
:100A0000F5E70122A02480218240E4050902635811
:100A100093436350EBE7C04610B500290AD0012983
:100A200000D010BD80238140074A1B02D4582143C7
:100A3000D150F6E7012280218240034C090263581D
:100A400093436350EDE7C0460000015010B5002904
:100A50000AD0012900D010BD80238140074A1B0223
:100A6000D4582143D150F6E7012280218240034C23
:100A70000902635893436350EDE7C04600000250FB
:100A800010B500290AD0012900D010BD8023814073
:100A9000074A1B02D4582143D150F6E70122802196
:100AA0008240034C0902635893436350EDE7C0460C
:100AB000000003500123A022834030B5094DD20528
:100AC00054591C435451012907D0022900D030BD8C
:100AD0000549505803435350F9E7034811589943C7
:100AE0001150F4E7048000000C8000000123A022D4
:100AF000834030B5114DD2055459D8439C435451CD
:100B0000022911D003290AD0012907D10C4C11590F
:100B100001400C48115111580B43135030BD084986
:100B2000505803435350F9E7054953580340535075
:100B30000449535803405350F0E7C0460480000076
:100B4000088000000C8000000123834030B50A4A71
:100B50000A4D54591C435451012907D0022900D091
:100B600030BD0749505803435350F9E70448115822
:100B700099431150F4E7C046000001500480000082
:100B80000C8000000123834030B5114A114DD84339
:100B900054599C435451022911D003290AD00129E8
:100BA00007D10D4C115901400C48115111580B43FC
:100BB000135030BD0849505803435350F9E70649D4
:100BC0005358034053500549535803405350F0E7DE
:100BD0000000015004800000088000000C8000002C
:100BE0000123834030B50A4A0A4D54591C435451DD
:100BF000012907D0022900D030BD074950580343CE
:100C00005350F9E70448115899431150F4E7C0468E
:100C100000000250048000000C800000012383408B
:100C200030B5114A114DD84354599C4354510229AF
:100C300011D003290AD0012907D10D4C11590140C7
:100C40000C48115111580B43135030BD08495058EE
:100C500003435350F9E7064953580340535005499D
:100C6000535803405350F0E7000002500480000046
:100C7000088000000C8000000123834030B50A4A40
:100C80000A4D54591C435451012907D0022900D060
:100C900030BD0749505803435350F9E704481158F1
:100CA00099431150F4E7C04600000350048000004F
:100CB0000C8000000123834030B5114A114DD84308
:100CC00054599C435451022911D003290AD00129B7
:100CD00007D10D4C115901400C48115111580B43CB
:100CE000135030BD0849505803435350F9E70649A3
:100CF0005358034053500549535803405350F0E7AD
:100D00000000035004800000088000000C800000F8
:100D100010B50820FFF74EFE0122014B1A7010BDDE
:100D2000480000102021034A53691942FCD010608A
:100D30007047C0460080004010B500280CD00478F1
:100D4000002C09D02021054A53691942FCD01460B7
:100D500044780130002CF7D110BDC046008000401F
:100D6000034A00205369DB0701D51068C0B2704701
:100D700000800040FEE7C0460848094B10B5984285
:100D800007D2013B1A1A920801320649920000F07C
:100D9000E1FE00F053F8FFF79BF9FEE700000010BA
:100DA00010000010481C0000204B00205B6A10B5AA
:100DB000DB051B0F013B0E2B02D81D4A9B009858E8
:100DC00003241A4A516A136F2340022B25D0032BA8
:100DD0000ED0012B04D1136C1C40023C012C23D9F2
:100DE0001448124B144C996F00F0E6FC206010BDC3
:100DF000116C0B40012B03D0023B0020012BF0D9DA
:100E0000C02391685B001942EAD19268623BFF3BC4
:100E10000848134001335843E3E73E234900194093
:100E2000023100F0C9FCDCE70020DAE70080044072
:100E3000E81B0000001BB700080000108E212020D6
:100E40001C4B89005A5882B082435A5000221A62C1
:100E50000192019BC72B06D8C046019B0133019329
:100E6000019BC72BF8D901230021124A1364536454
:100E7000516453640131536C1942FCD023238E21F9
:100E80008020936089005358834353500121094ABD
:100E9000D3681942FCD003231367002351675367BB
:100EA00051670121034A536F1942FCD0916702B088
:100EB0007047C046008004408022802302495B02C4
:100EC000885803438B5070470080044080224020A4
:100ED00002498B5803438B507047C0460080044042
:100EE0008022802302499B01885803438B5070471E
:100EF000008004408022802302499B0088580343DD
:100F00008B50704700800440802280230249DB0020
:100F1000885803438B507047008004408023024967
:100F2000CA581A43CA507047008004408022802368
:100F300002491B01885803438B50704700800440CE
:100F40008022202002498B5803438B507047C046B3
:100F5000008004408022802302495B0188580343BB
:100F60008B507047008004408022802302499B02FE
:100F7000885803438B5070470080044080228023B0
:100F800002491B02885803438B507047008004407D
:100F90009823014AD0507047008004409423014AAE
:100FA000D0507047008004400121024A53680B432F
:100FB00053607047008004400221024A53680B438B
:100FC00053607047008004400821024A53680B4375
:100FD00053607047008004408E2210200249920026
:100FE0008B5883438B507047008004408E224020F2
:100FF000024992008B5883438B5070470080044015
:1010000030B5039C049D2402AD022C43DB011C433C
:1010100004435201024B1443C9000C431C6130BD10
:101020000040044030B5039C049D2402AD022C43D3
:10103000DB011C4304435201024B1443C9000C431F
:10104000DC6130BD0040044030B5039C049D2402A7
:10105000AD022C43DB011C4304435201024B1443F9
:10106000C9000C43DC6230BD0040044030B5039C35
:10107000049D2402AD022C43DB011C4304435201B6
:10108000024B1443C9000C431C6330BD00400440B4
:1010900030B5039C049D2402AD022C43DB011C43AC
:1010A00004435201024B1443C9000C435C6330BD3E
:1010B0000040044030B5039C049D2402AD022C4343
:1010C000DB011C4304435201024B1443C9000C438F
:1010D000DC6430BD0040044030B5039C049D240214
:1010E000AD022C43DB011C4304435201024B144369
:1010F000C9000C431C6530BD0040044030B5039C62
:10110000049D2402AD022C43DB011C430443520125
:10111000024B1443C9000C431C6630BD0040044020
:1011200030B5039C049D2402AD022C43DB011C431B
:1011300004435201024B1443C9000C435C6630BDAA
:101140000040044030B5039C049D2402AD022C43B2
:10115000DB011C4304435201024B1443C9000C43FE
:101160005C6730BD0040044030B5039C049D240200
:10117000AD022C43DB011C4304435201024B1443D8
:10118000C9000C439C6730BD0040044030B5039C4F
:10119000049D2402AD022C43DB011C430443520195
:1011A000024B1443C9000C43DC6730BD00400440CF
:1011B00030B5039C049D2402AD022C43DB011C438B
:1011C0008023044352011443C900024A0C43D45003
:1011D00030BDC0460040044030B5039C049D24024D
:1011E000AD022C43DB011C439423044352011443FE
:1011F000C900024A0C43D45030BDC04600400440F0
:1012000030B5039C049D2402AD022C43DB011C433A
:10121000A023044352011443C900024A0C43D45092
:1012200030BDC0460040044030B5039C049D2402FC
:10123000AD022C43DB011C43A4230443520114439D
:10124000C900024A0C43D45030BDC046004004409F
:1012500030B5039C049D2402AD022C43DB011C43EA
:10126000A823044352011443C900024A0C43D4503A
:1012700030BDC0460040044030B5039C049D2402AC
:10128000AD022C43DB011C4304435201024B1443C7
:10129000C9000C435C6130BD0040044030B5039C84
:1012A000049D2402AD022C43DB011C430443520184
:1012B000024B1443C9000C43DC6630BD00400440BF
:1012C00030B5039C049D2402AD022C43DB011C437A
:1012D0009823044352011443C900024A0C43D450DA
:1012E00030BDC0460040044030B5039C049D24023C
:1012F000AD022C43DB011C4304435201024B144357
:10130000C9000C439C6030BD0040044030B5039CD4
:10131000049D2402AD022C43DB011C430443520113
:10132000024B1443C9000C439C6230BD0040044092
:1013300030B5039C049D2402AD022C43DB011C4309
:1013400004435201024B1443C9000C43DC6530BD19
:101350000040044030B5039C049D2402AD022C43A0
:10136000DB011C438C23044352011443C900024A8D
:101370000C43D45030BDC0460040044030B5039CFF
:10138000049D2402AD022C43DB011C4304435201A3
:10139000024B1443C9000C431C6030BD00400440A4
:1013A00030B5039C049D2402AD022C43DB011C4399
:1013B00004435201024B1443C9000C431C6230BD6C
:1013C0000040044030B5039C049D2402AD022C4330
:1013D000DB011C4304435201024B1443C9000C437C
:1013E0005C6230BD0040044030B5039C049D240283
:1013F000AD022C43DB011C4304435201024B144356
:10140000C9000C439C6530BD0040044030B5039CCE
:10141000049D2402AD022C43DB011C430443520112
:10142000024B1443C9000C431C6730BD004004400C
:1014300030B5039C049D2402AD022C43DB011C4308
:101440008423044352011443C900024A0C43D4507C
:1014500030BDC0460040044030B5039C049D2402CA
:10146000AD022C43DB011C43882304435201144387
:10147000C900024A0C43D45030BDC046004004406D
:1014800030B5039C049D2402AD022C43DB011C43B8
:101490009C23044352011443C900024A0C43D45014
:1014A00030BDC0460040044030B5039C049D24027A
:1014B000AD022C43DB011C43AC2304435201144313
:1014C000C900024A0C43D45030BDC046004004401D
:1014D0000FB4F0B5DE4657464E464546E0B5834C60
:1014E000A544909C002C36D02578281E00D187E09A
:1014F000012322009C4629007D4F5378252906D0E0
:101500000132002B13D0190053782529F8D1002B74
:101510000DD019006439C9B2112905D83E00CE405A
:10152000310066460E4222D119000132ECE7FF215C
:1015300006AE3200490005E00134187020785A1CCC
:1015400000283BD01300921B8A42F5D900223000BC
:101550001A70FFF7F1FB87239B009D44F0BCBB464C
:10156000B246A946A046F0BC08BC04B01847F6270E
:1015700091AB06AE2A00029335007F00002A40D0CE
:10158000AB1BBB4208D26378252A07D02A701A0009
:1015900001340135002AF3D12B00D7E7002B0AD004
:1015A000752B16D0642B2ED0732B09D02A700134E2
:1015B0001A000135E4E76B1C2A70C7E71300C5E782
:1015C000029B1A1D1B680292002B34D1A2780234B0
:1015D000E0E7029B1A1D1B6802929846002B60D11F
:1015E000302203AB1A70002291462A0001354B4489
:1015F0004D441978013B117001329542F9D1E5E76C
:1016000006AE3300A2E7029B1A1D1B6802929846A1
:10161000002B22DB67D1302203AB1A7041466918D8
:101620002A0043444D1C1878013B10701000013211
:101630008842F8D1CAE71A78002AC7D0FB202900CF
:10164000400005E001332A701A78691C002A48D04E
:101650000D00891B8142F5D3B8E72D232B7043463B
:101660005B4299460135002302AA94469A46033309
:101670006344019301235344D0469A46019B484654
:1016800053449B460A2100F007FA5B463031484636
:1016900019700A2100F01AF981460028EAD103AB3B
:1016A000BCE7002302AA94469A460333634401939D
:1016B00001235344D1469A46019B404653449B46DE
:1016C0000A2100F0FFF85B46C346303119704046EE
:1016D0000A2100F071F85B468046092BE8D803AB7D
:1016E00083E70D0072E79946BDE7C046E4FDFFFFC2
:1016F00001800200072010B5FFF760F8064BC0B26A
:101700001A78012A01D0187010BD0028FBD10349B6
:101710000A7801320A70F6E70C0000104C00001045
:10172000F8B50520FFF758F8C6B20820FFF754F8BF
:101730000A2507000520FFF74FF8013D04000820A7
:10174000FFF74AF8002DF5D1E4B2A64203D1FFB26B
:10175000C0B2874203D00520FFF720F9F8BD054B42
:1017600059684A1EBE4201D05A60F4E74A1C5A60CA
:10177000F1E7C0464C00001070B50A48FFF7A8FE1C
:10178000094D0A4C69682000FFF7A2FE0848FFF7E0
:101790009FFE29782000FFF79BFE0648FFF798FE82
:1017A00070BDC046241C00004C000010341C00001A
:1017B000381C0000441C0000002243088B4274D3F4
:1017C00003098B425FD3030A8B4244D3030B8B4242
:1017D00028D3030C8B420DD3FF22090212BA030C4B
:1017E0008B4202D31212090265D0030B8B4219D32C
:1017F00000E0090AC30B8B4201D3CB03C01A52414C
:10180000830B8B4201D38B03C01A5241430B8B4293
:1018100001D34B03C01A5241030B8B4201D30B037C
:10182000C01A5241C30A8B4201D3CB02C01A5241A3
:10183000830A8B4201D38B02C01A5241430A8B4266
:1018400001D34B02C01A5241030A8B4201D30B024F
:10185000C01A5241CDD2C3098B4201D3CB01C01A69
:10186000524183098B4201D38B01C01A5241430973
:101870008B4201D34B01C01A524103098B4201D361
:101880000B01C01A5241C3088B4201D3CB00C01ACE
:10189000524183088B4201D38B00C01A5241430846
:1018A0008B4201D34B00C01A5241411A00D201466B
:1018B000524110467047FFE701B5002000F0F0F8F4
:1018C00002BDC0460029F7D076E7704703460B43B8
:1018D0007FD4002243088B4274D303098B425FD329
:1018E000030A8B4244D3030B8B4228D3030C8B4255
:1018F0000DD3FF22090212BA030C8B4202D312123B
:10190000090265D0030B8B4219D300E0090AC30B0F
:101910008B4201D3CB03C01A5241830B8B4201D3BC
:101920008B03C01A5241430B8B4201D34B03C01AA5
:101930005241030B8B4201D30B03C01A5241C30A1D
:101940008B4201D3CB02C01A5241830A8B4201D38E
:101950008B02C01A5241430A8B4201D34B02C01A78
:101960005241030A8B4201D30B02C01A5241CDD21D
:10197000C3098B4201D3CB01C01A524183098B4268
:1019800001D38B01C01A524143098B4201D34B0151
:10199000C01A524103098B4201D30B01C01A5241B4
:1019A000C3088B4201D3CB00C01A524183088B423B
:1019B00001D38B00C01A524143088B4201D34B0024
:1019C000C01A5241411A00D2014652411046704796
:1019D0005DE0CA0F00D04942031000D3404253409B
:1019E00000229C4603098B422DD3030A8B4212D35B
:1019F000FC22890112BA030A8B420CD3890192118D
:101A00008B4208D3890192118B4204D389013AD0C9
:101A1000921100E08909C3098B4201D3CB01C01A9E
:101A2000524183098B4201D38B01C01A52414309B1
:101A30008B4201D34B01C01A524103098B4201D39F
:101A40000B01C01A5241C3088B4201D3CB00C01A0C
:101A5000524183088B4201D38B00C01A5241D9D224
:101A600043088B4201D34B00C01A5241411A00D2A5
:101A70000146634652415B10104601D34042002BA1
:101A800000D54942704763465B1000D3404201B520
:101A9000002000F005F802BD0029F8D016E77047D5
:101AA0007047C046F0B588420AD98B18984207D2D1
:101AB000531E002A03D0CA5CC254013BFBD2F0BDC6
:101AC00005000F2A0AD8561E002AF8D00023CC5C45
:101AD0001A00EC5401339642F9D1F0E703273E0097
:101AE0000D430C0003002E402F422DD11500103D58
:101AF0002D09AC462F013F1825681D6065685D60A3
:101B0000A5689D60E5681034DD601D001033BD429E
:101B1000F2D165460F230C2401352D0149191340DC
:101B20004519144213D0043B9B0801339B008C5988
:101B3000AC5104369E42FAD103231A40AD198919DB
:101B4000561E002AC2D1BAE70500561EBEE71A008B
:101B5000B9E7C046F0B505000F2A31D903273E008A
:101B60000D430C0003002E402F4234D11500103DD0
:101B70002D09AC462F013F1865685D60A5689D6022
:101B8000E568DD60256810341D601D001033BD421E
:101B9000F2D165460F230C2401352D01491913405C
:101BA000451914421AD0043B9B0801339B008C5901
:101BB000AC5104369E42FAD10323AD1989191A405B
:101BC000561E002A06D00023CC5C1A00EC540133C8
:101BD0009642F9D1F0BD0500561EF4E71A00EFE772
:101BE000F8B5C046F8B5C04620A1070000350C0086
:101BF000E0C81000C05C1500006A180040771B00A8
:101C000080841E00C0912100009F240040AC27006A
:101C1000E032290020402C00604D2F0000D430001D
:101C200040E133000D526F746172793A436E743D36
:101C30000000000025640000207C20436C69636B79
:081C4000733D0000202020008C
:101C48000100020005000A00006CDC02010000002F
:00000001FF
