:10000000002000107910000075100000751000002D
:1000100000000000000000000000000000000000E0
:10002000000000000000000000000000751000004B
:10003000000000000000000075100000D501000065
:10004000751000007510000075100000751000009C
:10005000751000007510000075100000751000008C
:10006000751000007510000075100000751000007C
:10007000751000006D05000075100000751000007F
:10008000751000007510000075100000751000005C
:10009000751000007510000075100000751000004C
:1000A000751000007510000075100000751000003C
:1000B000751000004D0F0000B11800007510000011
:1000C0007047C0467047C0467047C04610B5174AD3
:1000D00013780133DBB2092B01D8137010BD002354
:1000E0001370134A13780A33DBB219005A2B1AD84B
:1000F000104C1370216001F029FE01F05DFE01211A
:10010000012001F021FC0C4B226819680B4801F01A
:1001100027FC0121022001F017FC094B094819684E
:1001200001F01EFCDAE70A230A21E1E7640000106F
:1001300000000010B4000010B0000010542C0000AB
:10014000B8000010682C000010B500F083F801F032
:1001500075FB01F03DFE01F0F7FCFA22044B920022
:100160001A6001F0F3FD00F005F830BFFDE7C0466E
:10017000B00000100122FA21124B10B51A80013292
:100180005A8003329A800532DA800F4B8900186852
:1001900001F032FE830018188023400001385B0410
:1001A00098420DD2C021094A090650600848036AE6
:1001B0001B021B0A0B430362002393600733136087
:1001C00010BDC046020000100C00001010E000E05E
:1001D00000ED00E010B51E4C2388013B9BB223804C
:1001E000002B12D06388013B9BB26380002B16D09A
:1001F000A388013B9BB2A380002B1AD0E388013B6C
:100200009BB2E380002B1ED010BD01332380FFF78B
:1002100057FF6388013B9BB26380002BE8D1023318
:100220006380FFF74FFFA388013B9BB2A380002BA5
:10023000E4D10533A380FFF747FFE388013B9BB27E
:10024000E380002BE0D10A33E380FFF73FFFDBE7D9
:100250000200001000B583B000F0AEFF00F0B6FF62
:1002600000230022019300930121002001F0C6F831
:100270000121082000F000FC03B000BD014B18680C
:100280007047C04668000010014B58687047C04670
:10029000680000100121024A13688B431360704705
:1002A000000005400122014B1A60704768000010F1
:1002B000B222284B52009958043A9B58090470B551
:1002C000194345D51F2301251C00013B3ED32A00BD
:1002D0009A401142F8D1F3220F211E4B5A62027B41
:1002E0001140D42252010A439A63417B02680029DB
:1002F0001CD1194D92002A408025ED0115439962C9
:10030000DD621963A02109020A435A6380218388B0
:10031000104A0902D363C388136403895364438971
:1003200093641462136A0B42FCD170BD80251104E2
:10033000120CD604F60C2D02090C35439962DD62CD
:100340001963E02109020A435A63DFE70024C2E788
:100350002024C0E700000540FC1F0000B222284B0B
:1003600052009958043A9B58090430B5194345D5B1
:100370001F2301251C00013B3ED32A009A40114255
:10038000F8D1B7230F211E4A5362037B19409823EB
:100390001B010B439363417B0368002923D1116345
:1003A00018499B000B40A02109020B43536382882C
:1003B000134BDA63C2881A6402895A6442899A64C8
:1003C000827B012A07D103215A6A8A435A625A6BF7
:1003D0000D490A405A638021094A09021462136ACE
:1003E0000B42FCD130BD1904090C1163E0211B0C38
:1003F00009020B435363DAE70024C2E72024C0E775
:1004000000000540FC1F0000FFDFFFFF70B58025E6
:1004100080242F4A2D0213592B42FCD184237F259F
:10042000D550105180228026294C1202A3591D005C
:1004300015401342FAD19822A3581B051FD501215C
:10044000244B19608423F231E150A55080220433FB
:10045000E5500433E5500433E5500433E5500833E8
:10046000E5500433E5500433E5500433E550A05122
:1004700017487339120243581342FCD170BD9422BD
:10048000A3585B041BD4A3580022DB045B0D4A7302
:1004900098220B600E4B9858893A02400A739C22AE
:1004A0009A588A80A0229A58CA80A4229A580A810F
:1004B000A8229B58A73A4B81064B5A60DEE7A35807
:1004C0000548043AA2581B04034013430122DEE707
:1004D00000000540680000100000FF1FB222204B02
:1004E000520070B59C58043A9B5824041C43DB0707
:1004F00034D5002301261D000133202B2CD03200DF
:100500009A401442F7D10235F022154B5A62154A2F
:100510009A63002911D1144A8000104080221202EF
:1005200002439962D86219635A6380210C4A090216
:100530001562136A0B42FCD170BD80210204C00019
:10054000C00C0902120C01439A62D9621A63C022DC
:10055000120202435A63E8E70025D5E70125D3E7F5
:10056000000005408F140000FC1F000000B5144A75
:1005700083B013690093009B002B09D080210902EE
:100580008B4207D000984004400C431E1F2B13D908
:1005900003B000BD53680193082301990B4202D0B8
:1005A0005168994351601023019A1342F0D00449D5
:1005B0004A689A434A60EBE70249FFF727FFE7E7FB
:1005C00000000540700000100821234B70B55A68E8
:1005D00080240A435A60802278315858920202439C
:1005E0005A501E4B1E49186801F006FCC0224021DB
:1005F0001C4B520001389850803AFF3A1A601A6832
:10060000F3260A431A601A6824028A4380211A607A
:10061000154A890111600021002201315E629A634E
:100620009A62DA621A635A63DA631A645A649A64E1
:100630001962186A050025402042FAD12029ECD120
:100640005D601A680E310A431A601A682D398A43B0
:100650001A60064B196070BD008004400C00001049
:1006600000127A000000054000E100E06800001080
:10067000F8B5040018000F4B9C61002A08D01F0039
:10068000002418370E5DE51901342E719442F9DB10
:1006900024215A5425229854002202315A541968B0
:1006A000002900D1F8BD1A6018331800FFF756FE74
:1006B000F8E7C04668000010F8B50E4FB862002A8F
:1006C00008D03E00002028360D5C841901302571C9
:1006D0009042F9DB380028304373012383733B6871
:1006E0000273002B00D1F8BD00233B60FFF7E0FD53
:1006F000F9E7C046680000100A4910B54B68002BA6
:100700000ED000234B608B6803608B8A0A7D838147
:100710008B7D8373002A03D00C31043001F0F8FB89
:1007200010BDC046680000108021034B1A680A43C0
:100730001A6010225A6170470000054010B5012967
:1007400015D002290AD0002907D10122A024824015
:100750000B49E40563589343635010BD0123A02166
:100760008340074AC9058C5863408B50F5E7A022A7
:100770008140034BD205D4582143D150EDE7C04608
:10078000FC3F000010B5012913D0022909D000292F
:1007900006D1012282400A4C0A49635893436350B0
:1007A00010BD012383400649064A8C5863408B5094
:1007B000F6E78140024A034BD4582143D150EFE77A
:1007C00000000150FC3F000010B5012913D00229A0
:1007D00009D0002906D1012282400A4C0A496358F7
:1007E0009343635010BD012383400649064A8C5849
:1007F00063408B50F6E78140024A034BD4582143B3
:10080000D150EFE700000250FC3F000010B5012975
:1008100013D0022909D0002906D1012282400A4CB6
:100820000A4963589343635010BD0123834006492E
:10083000064A8C5863408B50F6E78140024A034BCE
:10084000D4582143D150EFE700000350FC3F000093
:10085000A022054BD205D358012282401340180034
:10086000431E98417047C046FC3F0000044A054BB8
:10087000D3580122824013401800431E984170470C
:1008800000000150FC3F0000044A054BD3580122F0
:10089000824013401800431E9841704700000250E8
:1008A000FC3F0000044A054BD3580122824013400C
:1008B0001800431E9841704700000350FC3F0000A1
:1008C00030B50F24A022800084408140034DD20522
:1008D0005359A3430B43535130BDC046FC3F000066
:1008E00030B50F24800084408140034D034A5359A2
:1008F000A3430B43535130BDFC3F000000000150A7
:1009000030B50F24800084408140034D034A535981
:10091000A3430B43535130BDFC3F00000000025085
:1009200030B50F24800084408140034D034A535961
:10093000A3430B43535130BDFC3F00000000035064
:10094000012210B5A02482400249E4056358934374
:10095000635010BD108000000122824010B5034991
:10096000034C63589343635010BDC0461080000091
:10097000000001500122824010B50349034C635826
:100980009343635010BDC046108000000000025029
:100990000122824010B50349034C635893436350CE
:1009A00010BDC04610800000000003500123A021AC
:1009B000834010B5024AC9058C5823438B5010BDA3
:1009C000108000000123834010B50349034A8C586E
:1009D00023438B5010BDC046000001501080000022
:1009E0000123834010B50349034A8C5823438B509D
:1009F00010BDC0460000025010800000012383405B
:100A000010B50349034A8C5823438B5010BDC04690
:100A100000000350108000000123A0218340034AFE
:100A2000C9058B50C046C0467047C0461C800000B8
:100A3000012383400249034A8B50C046C046704799
:100A4000000001501C800000012383400249034A3A
:100A50008B50C046C0467047000002501C8000000A
:100A6000012383400249034A8B50C046C046704769
:100A7000000003501C80000010B500290BD0012994
:100A800000D010BDA02280238140D2051B02D45883
:100A90002143D150F5E70122A02480218240E405C2
:100AA0000902635893436350EBE7C04610B5002931
:100AB0000AD0012900D010BD80238140074A1B02C3
:100AC000D4582143D150F6E7012280218240034CC3
:100AD0000902635893436350EDE7C046000001509C
:100AE00010B500290AD0012900D010BD8023814013
:100AF000074A1B02D4582143D150F6E70122802136
:100B00008240034C0902635893436350EDE7C046AB
:100B10000000025010B500290AD0012900D010BDF4
:100B200080238140074A1B02D4582143D150F6E765
:100B3000012280218240034C090263589343635091
:100B4000EDE7C046000003500123A022834030B5EA
:100B5000094DD20554591C435451012907D002298B
:100B600000D030BD0549505803435350F9E70348BE
:100B7000115899431150F4E7048000000C800000E4
:100B80000123A022834030B5114DD2055459D843DA
:100B90009C435451022911D003290AD0012907D1BD
:100BA0000C4C115901400C48115111580B43135072
:100BB00030BD0849505803435350F9E7054953588D
:100BC000034053500449535803405350F0E7C04684
:100BD00004800000088000000C8000000123834096
:100BE00030B50A4A0A4D54591C435451012907D0C3
:100BF000022900D030BD0749505803435350F9E74C
:100C00000448115899431150F4E7C04600000150C0
:100C1000048000000C8000000123834030B5114A9D
:100C2000114DD84354599C435451022911D00329E2
:100C30000AD0012907D10D4C115901400C4811511E
:100C400011580B43135030BD0849505803435350BB
:100C5000F9E7064953580340535005495358034098
:100C60005350F0E7000001500480000008800000AD
:100C70000C8000000123834030B50A4A0A4D5459C4
:100C80001C435451012907D0022900D030BD074927
:100C9000505803435350F9E70448115899431150F1
:100CA000F4E7C04600000250048000000C80000001
:100CB0000123834030B5114A114DD84354599C4308
:100CC0005451022911D003290AD0012907D10D4C12
:100CD000115901400C48115111580B43135030BDAC
:100CE0000849505803435350F9E706495358034005
:100CF00053500549535803405350F0E70000025049
:100D000004800000088000000C8000000123834064
:100D100030B50A4A0A4D54591C435451012907D091
:100D2000022900D030BD0749505803435350F9E71A
:100D30000448115899431150F4E7C046000003508D
:100D4000048000000C8000000123834030B5114A6C
:100D5000114DD84354599C435451022911D00329B1
:100D60000AD0012907D10D4C115901400C481151ED
:100D700011580B43135030BD08495058034353508A
:100D8000F9E7064953580340535005495358034067
:100D90005350F0E70000035004800000088000007A
:100DA0000C800000014B18677047C046008001406E
:100DB000014B18677047C04600C00040014B98685F
:100DC0007047C04600800140014B98687047C0469C
:100DD00000C00040014B98607047C0460080014051
:100DE000014B98607047C04600C00040014B9861BD
:100DF0007047C04600800140014B98617047C04673
:100E000000C00040014B58627047C046008001405E
:100E1000014B58627047C04600C00040022808D00D
:100E2000032800D070470421044A53690B435361DF
:100E3000F8E7024A536903435361F3E70080014036
:100E4000022808D0032800D070470421044A5369BF
:100E50000B435361F8E7024A536903435361F3E7D5
:100E600000C00040022809D0032800D0704780232A
:100E7000064A1B0151690B435361F7E78023034A7C
:100E8000DB0051690B435361F0E7C046008001402D
:100E9000022809D0032800D070478023064A1B018E
:100EA00051690B435361F7E78023034ADB00516923
:100EB0000B435361F0E7C04600C00040012808D052
:100EC000022800D070470121044A536F0B43536737
:100ED000F8E73022014BDA63F4E7C04600800140B6
:100EE000012808D0022800D070470121044A536F1E
:100EF0000B435367F8E73022014BDA63F4E7C0464F
:100F000000C0004001380022022802D8044B8000B3
:100F1000C2580121034BDA605A680A435A6070478D
:100F2000F82C00000080014001380022022802D87D
:100F3000044B8000C2580121034BDA605A680A430F
:100F40005A607047F82C000000C0004010B508201F
:100F5000FFF77AFD0122014B1A7010BDA0000010AE
:100F60002021034A53691942FCD010607047C046E3
:100F70000080004010B500280CD00478002C09D067
:100F80002021054A53691942FCD01460447801308D
:100F9000002CF7D110BDC04600800040034A00205D
:100FA0005369DB0701D51068C0B27047008000406C
:100FB0000FB430B5A3B026AB04CB02AC8021200027
:100FC000019301F003F82578002D09D02021074A6C
:100FD00053691942FCD0156065780134002DF7D1B2
:100FE00023B030BC08BC04B01847C04600800040A5
:100FF000014BD8607047C0460080004003282CD0C9
:101000000EDC01281ED002281BD18020184B0021A5
:10101000DA680243DA607D221A6059603C3A0BE0DC
:1010200004280ED18020124B0021DA680243DA60D6
:1010300019221A605960B4329A62DA688243DA601F
:101040001962704780200A4B0021DA680243DA6097
:10105000FA221A605960B93AEEE78020044B002169
:10106000DA680243DA6025221A6059607532E3E7D4
:1010700000800040FEE7C0460848094B10B5984282
:1010800007D2013B1A1A920801320649920001F078
:101090000DF800F053F8FFF757F8FEE700000010D6
:1010A00064000010C42D0000204B00205B6A10B5C6
:1010B000DB051B0F013B0E2B02D81D4A9B009858E5
:1010C00003241A4A516A136F2340022B25D0032BA5
:1010D0000ED0012B04D1136C1C40023C012C23D9EF
:1010E0001448124B144C996F00F086FE206010BD1E
:1010F000116C0B40012B03D0023B0020012BF0D9D7
:10110000C02391685B001942EAD19268623BFF3BC1
:101110000848134001335843E3E73E234900194090
:10112000023100F069FEDCE70020DAE700800440CD
:10113000042D0000001BB7000C0000108E212020A1
:101140001C4B89005A5882B082435A5000221A62BE
:101150000192019BC72B06D8C046019B0133019326
:10116000019BC72BF8D901230021124A1364536451
:10117000516453640131536C1942FCD023238E21F6
:101180008020936089005358834353500121094ABA
:10119000D3681942FCD003231367002351675367B8
:1011A00051670121034A536F1942FCD0916702B085
:1011B0007047C046008004408022802302495B02C1
:1011C000885803438B5070470080044080224020A1
:1011D00002498B5803438B507047C046008004403F
:1011E0008022802302499B01885803438B5070471B
:1011F000008004408022802302499B0088580343DA
:101200008B50704700800440802280230249DB001D
:10121000885803438B507047008004408023024964
:10122000CA581A43CA507047008004408022802365
:1012300002491B01885803438B50704700800440CB
:101240008022202002498B5803438B507047C046B0
:10125000008004408022802302495B0188580343B8
:101260008B507047008004408022802302499B02FB
:10127000885803438B5070470080044080228023AD
:1012800002491B02885803438B507047008004407A
:101290009823014AD0507047008004409423014AAB
:1012A000D0507047008004400121024A53680B432C
:1012B00053607047008004400221024A53680B4388
:1012C00053607047008004400821024A53680B4372
:1012D00053607047008004408E2210200249920023
:1012E0008B5883438B507047008004408E224020EF
:1012F000024992008B5883438B5070470080044012
:1013000030B5039C049D2402AD022C43DB011C4339
:1013100004435201024B1443C9000C431C6130BD0D
:101320000040044030B5039C049D2402AD022C43D0
:10133000DB011C4304435201024B1443C9000C431C
:10134000DC6130BD0040044030B5039C049D2402A4
:10135000AD022C43DB011C4304435201024B1443F6
:10136000C9000C43DC6230BD0040044030B5039C32
:10137000049D2402AD022C43DB011C4304435201B3
:10138000024B1443C9000C431C6330BD00400440B1
:1013900030B5039C049D2402AD022C43DB011C43A9
:1013A00004435201024B1443C9000C435C6330BD3B
:1013B0000040044030B5039C049D2402AD022C4340
:1013C000DB011C4304435201024B1443C9000C438C
:1013D000DC6430BD0040044030B5039C049D240211
:1013E000AD022C43DB011C4304435201024B144366
:1013F000C9000C431C6530BD0040044030B5039C5F
:10140000049D2402AD022C43DB011C430443520122
:10141000024B1443C9000C431C6630BD004004401D
:1014200030B5039C049D2402AD022C43DB011C4318
:1014300004435201024B1443C9000C435C6630BDA7
:101440000040044030B5039C049D2402AD022C43AF
:10145000DB011C4304435201024B1443C9000C43FB
:101460005C6730BD0040044030B5039C049D2402FD
:10147000AD022C43DB011C4304435201024B1443D5
:10148000C9000C439C6730BD0040044030B5039C4C
:10149000049D2402AD022C43DB011C430443520192
:1014A000024B1443C9000C43DC6730BD00400440CC
:1014B00030B5039C049D2402AD022C43DB011C4388
:1014C0008023044352011443C900024A0C43D45000
:1014D00030BDC0460040044030B5039C049D24024A
:1014E000AD022C43DB011C439423044352011443FB
:1014F000C900024A0C43D45030BDC04600400440ED
:1015000030B5039C049D2402AD022C43DB011C4337
:10151000A023044352011443C900024A0C43D4508F
:1015200030BDC0460040044030B5039C049D2402F9
:10153000AD022C43DB011C43A4230443520114439A
:10154000C900024A0C43D45030BDC046004004409C
:1015500030B5039C049D2402AD022C43DB011C43E7
:10156000A823044352011443C900024A0C43D45037
:1015700030BDC0460040044030B5039C049D2402A9
:10158000AD022C43DB011C4304435201024B1443C4
:10159000C9000C435C6130BD0040044030B5039C81
:1015A000049D2402AD022C43DB011C430443520181
:1015B000024B1443C9000C43DC6630BD00400440BC
:1015C00030B5039C049D2402AD022C43DB011C4377
:1015D0009823044352011443C900024A0C43D450D7
:1015E00030BDC0460040044030B5039C049D240239
:1015F000AD022C43DB011C4304435201024B144354
:10160000C9000C439C6030BD0040044030B5039CD1
:10161000049D2402AD022C43DB011C430443520110
:10162000024B1443C9000C439C6230BD004004408F
:1016300030B5039C049D2402AD022C43DB011C4306
:1016400004435201024B1443C9000C43DC6530BD16
:101650000040044030B5039C049D2402AD022C439D
:10166000DB011C438C23044352011443C900024A8A
:101670000C43D45030BDC0460040044030B5039CFC
:10168000049D2402AD022C43DB011C4304435201A0
:10169000024B1443C9000C431C6030BD00400440A1
:1016A00030B5039C049D2402AD022C43DB011C4396
:1016B00004435201024B1443C9000C431C6230BD69
:1016C0000040044030B5039C049D2402AD022C432D
:1016D000DB011C4304435201024B1443C9000C4379
:1016E0005C6230BD0040044030B5039C049D240280
:1016F000AD022C43DB011C4304435201024B144353
:10170000C9000C439C6530BD0040044030B5039CCB
:10171000049D2402AD022C43DB011C43044352010F
:10172000024B1443C9000C431C6730BD0040044009
:1017300030B5039C049D2402AD022C43DB011C4305
:101740008423044352011443C900024A0C43D45079
:1017500030BDC0460040044030B5039C049D2402C7
:10176000AD022C43DB011C43882304435201144384
:10177000C900024A0C43D45030BDC046004004406A
:1017800030B5039C049D2402AD022C43DB011C43B5
:101790009C23044352011443C900024A0C43D45011
:1017A00030BDC0460040044030B5039C049D240277
:1017B000AD022C43DB011C43AC2304435201144310
:1017C000C900024A0C43D45030BDC046004004401A
:1017D000084A03001068002808D00749C3188B4244
:1017E00001D81360704701204042FBE703481060B6
:1017F000F3E7C046A400001008020010080400101F
:10180000012040427047C04680239B0100204B606E
:101810007047C04601207047002070470020704785
:1018200010007047FEE7C04610B500F0C9FB162354
:1018300003600120404210BD0120704710B5002414
:1018400082B0FFF7B9FCFFF705FD0120FFF720FD8F
:10185000FFF73AFD002300220221012001940094A9
:10186000FFF762FE00230022022101200194009470
:10187000FFF76EFE0320FFF7BBFB0420FFF7BEFB64
:1018800002B010BD072010B5FEF7E2FF064BC0B254
:101890001A78012A01D0187010BD0028FBD1034925
:1018A0000A7801320A70F6E710000010A800001054
:1018B000F8B50520FEF7DAFFC6B20820FEF7D6FF1E
:1018C0000A2507000520FEF7D1FF013D040008208E
:1018D000FEF7CCFF002DF5D1E4B2A64203D1FFB252
:1018E000C0B2874203D00520FFF7A2F8F8BD054B30
:1018F00059684A1EBE4201D05A60F4E74A1C5A6039
:10190000F1E7C046A800001070B50A48FFF750FB89
:10191000094D0A4C69682000FFF74AFB0848FFF7A9
:1019200047FB29782000FFF743FB0648FFF740FB01
:1019300070BDC0467C2C0000A80000108C2C00005C
:10194000902C00009C2C000010B5C9B2012804D0D6
:101950004139C8B200F062F810BD7F31C8B2F9E772
:101960000FB470B58AB00EAB04CB02AD20212800B5
:10197000019300F02BFB2C78002C36D00F26012190
:101980000020FEF721FF012000F034F801210120A2
:10199000FEF71AFF012000F02DF821090020FEF7C4
:1019A000BFFF012000F026F800210120FEF70CFF08
:1019B000012000F01FF801210120FEF705FF0120A2
:1019C00000F018F8210000203140FEF7A9FF0120A7
:1019D00000F010F800210120FEF7F6FE013532205C
:1019E00000F008F82C78002CC9D10AB070BC08BCF3
:1019F00004B0184784B00190019A93009B185B00D3
:101A00000393039B5A1E0392002B05D0C046039BF1
:101A10005A1E0392002BF9D104B0704730B50F2441
:101A200089B00021044005090020FEF7CDFE0A23FD
:101A30000793079B5A1E0792002B05D0C046079BB1
:101A40005A1E0792002BF9D101210120FEF7BCFE9E
:101A50000A230693069B5A1E0692002B05D0C04609
:101A6000069B5A1E0692002BF9D129000020FEF792
:101A700057FF0A230593059B5A1E0592002B05D09C
:101A8000C046059B5A1E0592002BF9D1002101206A
:101A9000FEF79AFE0A230493049B5A1E0492002B1D
:101AA00005D0C046049B5A1E0492002BF9D1012197
:101AB0000120FEF789FE0A230393039B5A1E03921B
:101AC000002B05D0C046039B5A1E0392002BF9D170
:101AD00021000020FEF724FF0A230293029B5A1ED6
:101AE0000292002B05D0C046029B5A1E0292002B88
:101AF000F9D100210120FEF767FEFA235B00019374
:101B0000019B5A1E0192002B05D0C046019B5A1E14
:101B10000192002BF9D109B030BDC04600B50120BB
:101B200083B0FFF77BFF074B0193019B5A1E019285
:101B3000002B05D0C046019B5A1E0192002BF9D103
:101B400003B000BD204E000010B500248CB0FFF79C
:101B500033FBFFF73BFB002300220221002001940E
:101B60000094FFF741FD012300220221002001948F
:101B70000094FFF74BFD0023002202210020019476
:101B80000094FFF7D5FD00230022022100200194DC
:101B90000094FFF7E1FD00230022022100200194C0
:101BA0000094FFF7EDFD00230022022100200194A4
:101BB0000094FFF7F9FD0023002201210020019489
:101BC0000094FFF7EBFC01210020FEF789FF0121C3
:101BD0000120FEF785FF01210020FEF79BFF012178
:101BE0000120FEF797FF01210220FEF793FF01215C
:101BF0000320FEF78FFF01210A20FEF757FF4B4B12
:101C00000A930A9B5A1E0A92002B05D0C0460A9BD3
:101C10005A1E0A92002BF9D10220FFF7FFFEFA2389
:101C20009B000993099B5A1E0992002B05D0C046C0
:101C3000099B5A1E0992002BF9D12820FFF7EEFECE
:101C4000FA239B000893089B5A1E0892002B05D08C
:101C5000C046089B5A1E0892002BF9D10C20FFF7B2
:101C6000DDFEFA239B000793079B5A1E0792002B69
:101C700005D0C046079B5A1E0792002BF9D10620BB
:101C8000FFF7CCFEFA239B000693069B5A1E069292
:101C9000002B05D0C046069B5A1E0692002BF9D198
:101CA0000120FFF7BBFE224B0593059B5A1E0592B0
:101CB000002B05D0C046059B5A1E0592002BF9D17A
:101CC0008020FFF7ABFEFA239B000493049B5A1E6F
:101CD0000492002B05D0C046049B5A1E0492002B90
:101CE000F9D10120FFF79AFE114B0B930B9B5A1E63
:101CF0000B92002B05D0C0460B9B5A1E0B92002B5B
:101D0000F9D1FA239B000393039B5A1E0392002BE5
:101D100005D0C046039B5A1E0392002BF9D1002127
:101D20000A20FEF72FFD0CB010BDC046F04902009E
:101D3000204E000010B501210A20FEF723FD10BD42
:101D400010B500210A20FEF71DFD10BDF8B5174C97
:101D500021686768002925D0154800F04DF8050076
:101D600038006421684300F047F8060011486421F8
:101D7000784300F041F8A0600020FFF713F8280036
:101D8000FFF740F83000FFF731F80020FFF722F8A6
:101D90000120FFF743F80220FFF764F80220FFF765
:101DA0008DF8F8BD00260025E0E7C046B000001021
:101DB00040420F00E40C000010B5034903480EC96F
:101DC000FFF7F6F810BDC046B0000010A02C0000D0
:101DD00000B583B0FFF7F0F9FFF716FA00230022F1
:101DE00001210193009303200133FFF74FFB0320F0
:101DF000FFF788F803B000BD002243088B4274D37C
:101E000003098B425FD3030A8B4244D3030B8B42FB
:101E100028D3030C8B420DD3FF22090212BA030C04
:101E20008B4202D31212090265D0030B8B4219D3E5
:101E300000E0090AC30B8B4201D3CB03C01A524105
:101E4000830B8B4201D38B03C01A5241430B8B424D
:101E500001D34B03C01A5241030B8B4201D30B0336
:101E6000C01A5241C30A8B4201D3CB02C01A52415D
:101E7000830A8B4201D38B02C01A5241430A8B4220
:101E800001D34B02C01A5241030A8B4201D30B0209
:101E9000C01A5241CDD2C3098B4201D3CB01C01A23
:101EA000524183098B4201D38B01C01A524143092D
:101EB0008B4201D34B01C01A524103098B4201D31B
:101EC0000B01C01A5241C3088B4201D3CB00C01A88
:101ED000524183088B4201D38B00C01A5241430800
:101EE0008B4201D34B00C01A5241411A00D2014625
:101EF000524110467047FFE701B5002000F006F898
:101F000002BDC0460029F7D076E770477047C0464B
:101F1000F0B588420AD98B18984207D2531E002A7E
:101F200003D0CA5CC254013BFBD2F0BD05000F2AAE
:101F30000AD8561E002AF8D00023CC5C1A00EC54B4
:101F400001339642F9D1F0E703273E000D430C0020
:101F500003002E402F422DD11500103D2D09AC4617
:101F60002F013F1825681D6065685D60A5689D604C
:101F7000E5681034DD601D001033BD42F2D16546C6
:101F80000F230C2401352D01491913404519144222
:101F900013D0043B9B0801339B008C59AC51043691
:101FA0009E42FAD103231A40AD198919561E002A00
:101FB000C2D1BAE70500561EBEE71A00B9E7C0460F
:101FC000014B18687047C0461400001070B51A4CD9
:101FD0009AB0246800292ADB82256E46AD00B581BF
:101FE0000025009019950490002911D00139029123
:101FF000059101214942F1812000694600F090F9E4
:10200000431C01DA8B2323600022009B1A700CE032
:102010000291059101214942F1812000694600F0B9
:102020007FF9431C01DA8B2323601AB070BD8B2328
:10203000012023604042F8E71400001030B514007E
:1020400005001A009BB0002C2BDB822368469B0006
:1020500083810023009119930491002C11D0013B3E
:10206000013CC38169461E9B28000294059400F040
:1020700057F9431C01DA8B232B600022009B1A7056
:102080000DE001235B42C38169461E9B2800029438
:10209000059400F045F9431C01DA8B232B601BB03B
:1020A00030BD8B23036001204042F8E7F0B5050006
:1020B0000F2A31D903273E000D430C0003002E40A8
:1020C0002F4234D11500103D2D09AC462F013F1889
:1020D00065685D60A5689D60E568DD602568103411
:1020E0001D601D001033BD42F2D165460F230C2444
:1020F00001352D0149191340451914421AD0043BEA
:102100009B0801339B008C59AC5104369E42FAD196
:102110000323AD1989191A40561E002A06D0002340
:10212000CC5C1A00EC5401339642F9D1F0BD0500A5
:10213000561EF4E71A00EFE7F0B546464F46D6467E
:10214000C0B58E6880460C0091461D0008689E420E
:1021500039D80C228B5E9022D200134210D1350068
:102160002A004946FFF7D4FE0020A3689B1BA3600A
:1021700023685B192360E0BCBA46B146A846F0BDAF
:102180000969421A9246606942001218D70FBF18B7
:10219000681C7F1050443A00B84201D90700020081
:1021A0005B0512D51100404600F03CFA061E1FD018
:1021B00052462169FFF77AFFA389124A1340802211
:1021C0001343A38106E01E00CAE7404600F00EFB61
:1021D000061E09D03000534650446761FF1A26613D
:1021E00020602E00A760BBE74046216900F0A2FAFC
:1021F0000C234246136040220120A389404213432E
:10220000A381B8E77FFBFFFFF0B545465746DE46A2
:102210004E46E0B5136883B0984693680D00924629
:102220000190002B6FD0002300249B460A688B6826
:1022300049E00C216B5E9021C9000B422BD06869EC
:102240002969561A42001218D00F8218701C5210B9
:1022500000199146904201D9814602008020C000B9
:1022600003423AD01100019800F0DCF9071E3DD07E
:1022700032002969FFF71AFFAB89284A13408022F0
:102280001343AB814B46B8199E1B2F61AE602700EC
:10229000260028606B6132005946FFF739FE51462F
:1022A0005046AB682A688968DB1B9219091BAB6032
:1022B0002A60816027D0414609688B4641464C68B8
:1022C00008218C46E0441F001000002CF3D01E00B3
:1022D0009C42AED227002600DDE7019800F086FA86
:1022E000071ECFD12969019800F024FA0C23019A26
:1022F000012013604022AB8940421343AB81524618
:102300000023936000E0002000235246536003B096
:10231000F0BCBB46B246A946A046F0BD7FFBFFFF1E
:10232000F0B5DE4657464E464546E0B51C008B8963
:102330008246894693469DB01B0603D50B69002B48
:1023400000D1F5E0002304AD6B6120336B761033D0
:10235000AB765B461B787F4F0394002B78D05C46AE
:1023600004E063780134002B00D17EE0252BF8D106
:102370005B46E61A5C4500D07BE02378002B67D0F3
:10238000012300225B42049205930022002306925F
:10239000079300234332AB54AB6501339B460134B2
:1023A00006E05A46C01B82401C0029680A432A6086
:1023B00005223800217800F0D7F8631C1E000028A1
:1023C000EFD12A68D10602D5432120306854110785
:1023D00002D543212B20685421782A2955D1039B0B
:1023E000191D1B680391002B00DA7CE0EB6061781B
:1023F0002E2960D0584C0322200000F0B5F80028A8
:1024000006D04023001B83402A68013613432B600B
:102410003178731C062251489B46297600F0A4F8B7
:10242000002866D04E4B002B56D003AA00922900FC
:102430004A4650464B4B00E000BF804643460133BE
:1024400006D06B6943446B615B461B78002B86D1D9
:102450004B469B895B0600D579E068691DB0F0BCEE
:10246000BB46B246A946A046F0BD5B46E61A5C45AF
:10247000EED033005A4649465046FFF75DFE013024
:10248000E6D06B699B196B6177E70800303826004E
:102490000928ADD8EA68140000E00133A20012193F
:1024A000197852001418080030380928F5D91E0090
:1024B000EC602E299ED171782A2924D1039BB01C6F
:1024C0001A1D1B6803926B60002B02DA01235B422A
:1024D0006B60B17806008DE70722039B07339343B7
:1024E00008330393ADE75B42EB6002231A432A6093
:1024F0007DE703AA009229004A465046194B00F096
:1025000055FA80469AE708000023303801366B60A0
:10251000092800D96EE71A0093009B1871785B00B8
:102520001A180800303801360928F5D96A6061E7C1
:10253000402100F077F84B4618601861002803D05E
:1025400040234A465361FDE60C23524613600120A6
:10255000404283E7BC2C0000C42C0000C82C0000C3
:10256000000000003921000070B5CCB283070DD007
:10257000531E002A0FD0032504E00130284206D064
:10258000013B08D30278A242F7D170BD1300032BA0
:1025900003D8002B14D10020F7E7FF220A401502D0
:1025A000AD182A040B4EAD1803E0043B0430032B96
:1025B000EFD9026808496A40511891433142F4D07A
:1025C000C31802E001309842E5D00278A242F9D166
:1025D000DBE7C04680808080FFFEFEFE70B5104EB7
:1025E000050033680C00002B15D02100280000F0F6
:1025F00011FB431C0CD00323C41C9C43A04205D0F8
:10260000211A280000F006FB013001D0200070BD27
:1026100001246442FAE7002100F0FCFA3060E4E7AC
:10262000F8010010F8B50323CE464746CD1C9D4364
:102630000835060080B50C2D1ED20C25A9421DD8E8
:10264000300000F0E3FA3A4F7A68002A1AD01400FA
:1026500004E063682200002B14D01C0023685B1B7D
:10266000F7D40B2B27D96119256094425BD05160B8
:102670000B6063684B600DE0002DDFDA0C23002057
:10268000336014E029003000FFF7A8FF0400431C6A
:1026900019D00560300000F0BBFA200007220B3093
:1026A000231D9043C21A984201D01B1AA350C0BCEC
:1026B000B946B046F8BD6368944202D05360E9E77A
:1026C00043467B60E6E77B689846002B24D044466F
:1026D00063689846002BFAD12368002199463000A0
:1026E000A14400F097FA814516D123683000ED1A15
:1026F0002900FFF773FF01300ED023687A685B1959
:1027000023605368002B02D1DAE71A005B689C4211
:10271000FBD100235360BDE70C233000336000F091
:1027200077FA0020C3E779600B6063684B60B1E71C
:10273000F801001070B50500002915D00C1F2368A2
:10274000002B23DB280000F061FA274A1368002BD6
:1027500005D0A3420BD92168601883422CD02800F1
:102760006360146000F054FA70BDA34210D81A00E0
:102770005B68002BF9D1106811188C4218D02CD34B
:1027800063605460280000F043FAEDE7E418D9E7ED
:1027900011685018A04214D01FD8216860188342D5
:1027A000EED118685B684118216063605460E9E706
:1027B00023681B181360E5E718685B6841182160FF
:1027C000CDE720680918501811608342DAD11868E3
:1027D0005B68411811605360D4E70C2328002B601C
:1027E00000F016FAC0E7C046FC010010F0B5C6467E
:1027F00007000E00140000B500292DD0002A27D0B4
:1028000000F01AFA8046844203D835004308A342F8
:1028100010D321003800FFF705FF051E0AD0220063
:1028200044450BD831002800FFF740FC3100380048
:10283000FFF780FF280080BCB846F0BD310042465B
:102840002800FFF733FC31003800FFF773FFF1E792
:10285000FFF770FF0025EDE71100FFF7E3FE05002D
:10286000E8E7C046F8B557464E464546DE46E0B571
:102870001F000A9B924698460A698B6806000C0066
:102880009A4200DA1A0053461A604323E35C002B95
:1028900002D0514601320A602268910661D5534642
:1028A000524606201B680233136022681100104252
:1028B00008D10020814619308346E168A34499423B
:1028C00047DC11004323E35C5A1E934189060AD575
:1028D0003020E1184331087045215A1C615CA21870
:1028E0004332023311702200390030004332C047B6
:1028F00001301DD0534606251B68E1689C462368BD
:10290000A26820692B40042B31D0824239DD00239C
:102910009946121A914400251A3402E001354D45BA
:102920002FDA0123220039003000C0470130F5D1F1
:1029300001204042F0BCBB46B246A946A046F8BDC5
:1029400001239C465346E5681B68E144ED1A4D455A
:1029500024DD01235A4639003000C0470130EFD151
:10296000E6E7062111420ED05A1E9341BBE76346AB
:10297000C91ACB43DB170B4099468242C9DC0029B8
:10298000C9DC0020D6E70020534681461930834633
:102990001B68E168A3449942DBDC92E7432321688A
:1029A000E35C5A1E9341890692D49CE7F0B54E46EB
:1029B000994643239C4657464546DE468C4463462B
:1029C000E0B587B002930C00097E90460700109A8C
:1029D000002914D00B00583BDBB2202B48D8884884
:1029E0009B00C3589F46136821681D1D60691560D0
:1029F0001B680E0602D4490600D5DCE018600023EF
:102A0000029D23614B46210000933800434605AAEE
:102A1000FFF728FF01301ED02A0041463800236905
:102A2000C847013017D02368E068059E9B071BD577
:102A3000B04219DD19239A460025A24404E0E0685B
:102A40000135831BAB420FDD01235246414638005E
:102A5000C8470130F3D10120404207B0F0BCBB466B
:102A6000B246A946A046F0BDB042F6DA3000F4E71F
:102A70002500422301204235E154432300222061F6
:102A8000E254BFE713682168181D10600D0602D4D8
:102A90004D0600D594E01A6816006368002A00DA33
:102AA00092E0584A93460A2203924BE0136820684A
:102AB00040CB050601D440067FD41360514B9B46A2
:102AC0006F2900D191E00A23039337E013682500B2
:102AD000191D11601A68422301204235E254CCE7E7
:102AE0001368191D11601D68002128006268FFF736
:102AF0003BFD002800D181E0401B6060BDE7202342
:102B000021680B4323604521782060543E498B4661
:102B1000116840C9180603D4580601D53604360C8E
:102B20001160DA0702D5202213432360002E03D15F
:102B3000202223689343236010230393432300221E
:102B4000E2546368A360002B18DB042122688A43E7
:102B50002260002E12D1029D002B49D1039B082B2D
:102B60001ED0029B5B1B23614CE745235821E15497
:102B7000244923688B46CBE72368C4E7039B9A4626
:102B8000029D30005146FFF7BDF95B465B5C013D9D
:102B90002B70330006005345F3D2039B082BE0D182
:102BA0002368DB07DDD5626823699A42D9DC3023CC
:102BB000013D2B70D5E7188021E73604360C7CE701
:102BC00000269E5F320068E743222D20A054A360B8
:102BD000002B02DB0423994321600A239A46094B08
:102BE00076429B460A230393CAE708230393A5E78B
:102BF0005B4625001B7842352B70AFE760683CE7E9
:102C0000402D0000D02C0000E42C00007047C0468E
:102C10007047C046002370B5064C050008002360CD
:102C2000FEF7D6FD431C00D070BD2368002BFBD0FF
:102C30002B60F9E7000200100B1F1B68181F002B08
:102C400000DB70470B58C018FBE7C046F8B5C0461C
:102C5000F8B5C04650574D3A25346C75487A202552
:102C6000336C752525202000566F6C743A25346C22
:102C7000756D562020202020000000000D526F743A
:102C80006172793A436E743D0000000025640000D3
:102C9000207C20436C69636B733D00002020200082
:102CA00050574D3A20256C7520487A2C20256C759C
:102CB00025252C20256C75206D560A00232D302BE0
:102CC00020000000686C4C006566674546470000C0
:102CD0003031323334353637383941424344454652
:102CE0000000000030313233343536373839616214
:102CF0006364656600000000DF0100005F00000003
:102D00002F00000020A1070000350C00E0C81000D3
:102D1000C05C1500006A180040771B0080841E000C
:102D2000C0912100009F240040AC2700E032290020
:102D300020402C00604D2F0000D4300040E13300D3
:102D40006A2B0000702A0000702A0000702A000020
:102D5000702A0000702A0000702A0000702A00000B
:102D6000702A0000702A0000702A0000CC2A00009F
:102D7000842A0000702A0000702A0000702A0000D7
:102D8000702A0000842A0000702A0000702A0000C7
:102D9000702A0000702A0000E6290000AC2A00001A
:102DA000FE2A0000702A0000702A0000E02A0000BD
:102DB000702A0000AC2A0000702A0000702A00006F
:042DC000782B00006C
:102DC4000A000100020005000A000000006CDC0299
:102DD400010000001800001000000000C0000010F6
:102DE4002801001090010010000000000000000005
:102DF40000000000000000000000000000000000CF
:102E040000000000000000000000000000000000BE
:102E140000000000000000000000000000000000AE
:042E240000000000AA
:00000001FF
