:1000000000200010990500009505000095050000EE
:1000100000000000000000000000000000000000E0
:100020000000000000000000000000009505000036
:10003000000000000000000095050000950500008C
:100040009505000095050000950500009505000048
:100050009505000095050000950500009505000038
:100060009505000095050000950500009505000028
:1000700095050000F90100009505000095050000B8
:100080009505000095050000950500009505000008
:1000900095050000950500009505000095050000F8
:1000A00095050000950500009505000095050000E8
:1000B0009505000095050000590500009505000014
:1000C000002382B00193019B834201D302B07047A9
:1000D000C046019B0133F5E710B500F011FA03208B
:1000E00000F0C4F90448FFF7EBFF012000F0BEF96F
:1000F0000148FFF7E5FFF2E720A107008023F7B5ED
:100100002F4A00901B02D06F1842FCD17F23802021
:100110002C4E0002F367009BD367D46F230003408B
:100120000442FAD1284C294D2068AC460190019D2B
:100130002748284F2D051BD5012527490D60F321A0
:10014000F167264923600B6025490B6025490B6048
:10015000254903600B6061460B6024493B600B60DE
:10016000009BD36780231B02D16F1942FCD1F7BDDE
:10017000066880223300D201134016421CD0026868
:10018000184B1B481B68120402401A4301230A60E3
:100190000F224B73236813400B73134B0E3A1B68EB
:1001A0008B8063461B68CB803B680B810F4B1B68C1
:1001B0004B81104B1A60DAE70268D204520DE6E771
:1001C000040005400800054098000540A0000540D7
:1001D00094000540A400054004000010880005407C
:1001E0008C000540900005409C000540A80005409B
:1001F0000000FF1F0000001007B5124B1A690092A3
:10020000009A002A13D0802109028A4210D10821C5
:100210005A680192019A0A4202D05A688A435A6087
:100220001021019A0A4202D05A688A435A6007BDD7
:1002300000984004400C431E1F2BF8D80249FFF7DA
:100240005DFFF4E7000005400800001010B501292B
:100250000BD0022910D0002906D1012282400A4C7D
:100260000A4963589343635010BD8140064A074BC7
:10027000D4582143D150F7E7012383400249034A70
:100280008C5863408B50EFE700000150FC3F0000AA
:1002900010B501290BD0022910D0002906D1012266
:1002A00082400A4C0A4963589343635010BD814011
:1002B000064A074BD4582143D150F7E70123834026
:1002C0000249034A8C5863408B50EFE7000002500C
:1002D000FC3F0000044A054BD358012282401340E2
:1002E0001800431E9841704700000150FC3F000079
:1002F000012383400249034A8B50C046C0467047E1
:10030000000001501C80000010B5002902D0012916
:1003100009D010BD012280218240074C0902635898
:1003200093436350F5E780238140034A1B02D4586E
:100330002143D150EDE7C0460000015010B500291F
:1003400002D0012909D010BD012280218240074C32
:100350000902635893436350F5E780238140034AC1
:100360001B02D4582143D150EDE7C0460000025093
:1003700030B5039C049D2402AD022C43DB011C43D9
:1003800004435201024B1443C9000C43DC6730BDE7
:100390000440044030B5039C049D2402AD022C436C
:1003A000DB011C4304435201024B1443C9000C43BC
:1003B000DC6630BD0040044030B5039C049D24023F
:1003C000AD022C43DB011C4304435201024B144396
:1003D000C9000C439C6530BD004004408023034AA3
:1003E0005B02D16F0B43D3677047C0460480044063
:1003F0004023024AD16F0B43D36770470480044007
:100400008E212020184B89005A5882B082435A50BE
:1004100000221A620192019AC72A21D901220021E1
:100420001A645A6459645A64596C1142FCD02322EC
:100430008E2180209A6089005A5882435A500122A6
:10044000D9681142FCD00321196700215A67596706
:100450005A670122596F1142FCD09A6702B0704767
:10046000C046019A0132D5E700800440013810B53A
:100470000A2825D800F0A4F8060C0E182527292FE5
:1004800031333A0001210A20FFF702FF012106E083
:100490000021F8E701210A20FFF7FAFE00210220DF
:1004A000FFF7D4FE012108E001210A20FFF7F0FE4A
:1004B00001210220FFF7CAFE00210A20FFF7C6FE35
:1004C00010BD0021E7E70021EFE701210A20FFF737
:1004D000DFFE0021EDE70021F8E70221D3E701214B
:1004E0000A20FFF7D5FE02210800D9E701210A20E2
:1004F000FFF7CEFE01210220FFF7A8FE0221DCE774
:1005000013B50024FFF76AFFFFF772FF23002200F4
:100510002000022101940094FFF74EFF01232200E6
:100520001800022101940094FFF722FF012322000A
:100530002000022101940094FFF72CFF01210A20E2
:10054000FFF7FCFE01210220FFF7DEFE01210A2059
:10055000FFF7DAFE13BD0000082010B5FFF7BAFE62
:10056000C0B20A4B0A4A01280AD118701378013325
:10057000DBB205201370FFF7BBFEC046C04610BDBE
:10058000022119701378013BF2E7C04619000010F0
:1005900018000010FEE7000010B5064A064B074998
:1005A0008B4204D3FFF72CFFFFF796FDFEE701CA4D
:1005B00001C3F5E7D40500000000001000000010A2
:1005C00002B4714649084900095C49008E4402BCE6
:0405D0007047C0466A
:0405D400F8B5C04670
:0405D800F8B5C0466C
:04000003000005995B
:00000001FF
